{
  "_format": "hh-sol-artifact-1",
  "contractName": "EHR",
  "sourceName": "contracts/EHR.sol",
  "abi": [
    {
      "inputs": [],
      "stateMutability": "nonpayable",
      "type": "constructor"
    },
    {
      "inputs": [],
      "name": "checkRole",
      "outputs": [
        {
          "internalType": "uint256",
          "name": "",
          "type": "uint256"
        }
      ],
      "stateMutability": "view",
      "type": "function"
    },
    {
      "inputs": [
        {
          "internalType": "address",
          "name": "userAdd",
          "type": "address"
        },
        {
          "internalType": "string",
          "name": "docName",
          "type": "string"
        },
        {
          "internalType": "string",
          "name": "recordHash",
          "type": "string"
        },
        {
          "internalType": "string",
          "name": "recordName",
          "type": "string"
        },
        {
          "internalType": "string",
          "name": "issueDate",
          "type": "string"
        },
        {
          "internalType": "string",
          "name": "testSuggested",
          "type": "string"
        }
      ],
      "name": "createNewRecord",
      "outputs": [],
      "stateMutability": "nonpayable",
      "type": "function"
    },
    {
      "inputs": [
        {
          "internalType": "string",
          "name": "name",
          "type": "string"
        },
        {
          "internalType": "string",
          "name": "description",
          "type": "string"
        },
        {
          "internalType": "string",
          "name": "cid",
          "type": "string"
        },
        {
          "internalType": "string",
          "name": "cidName",
          "type": "string"
        },
        {
          "internalType": "uint256",
          "name": "usersRequired",
          "type": "uint256"
        }
      ],
      "name": "createNewResearch",
      "outputs": [],
      "stateMutability": "payable",
      "type": "function"
    },
    {
      "inputs": [],
      "name": "fetchAllHospitals",
      "outputs": [
        {
          "components": [
            {
              "internalType": "address",
              "name": "hosAdd",
              "type": "address"
            },
            {
              "internalType": "string",
              "name": "name",
              "type": "string"
            },
            {
              "internalType": "string",
              "name": "personalAdd",
              "type": "string"
            },
            {
              "internalType": "string",
              "name": "emailId",
              "type": "string"
            },
            {
              "internalType": "string",
              "name": "contactNo",
              "type": "string"
            }
          ],
          "internalType": "struct EHR.Hospital[]",
          "name": "",
          "type": "tuple[]"
        }
      ],
      "stateMutability": "view",
      "type": "function"
    },
    {
      "inputs": [],
      "name": "fetchAllResearchs",
      "outputs": [
        {
          "components": [
            {
              "internalType": "uint256",
              "name": "id",
              "type": "uint256"
            },
            {
              "internalType": "address",
              "name": "orgAdd",
              "type": "address"
            },
            {
              "internalType": "string",
              "name": "name",
              "type": "string"
            },
            {
              "internalType": "string",
              "name": "description",
              "type": "string"
            },
            {
              "internalType": "string",
              "name": "cid",
              "type": "string"
            },
            {
              "internalType": "string",
              "name": "cidName",
              "type": "string"
            },
            {
              "internalType": "uint256",
              "name": "usersRequired",
              "type": "uint256"
            },
            {
              "internalType": "uint256",
              "name": "currentUsers",
              "type": "uint256"
            }
          ],
          "internalType": "struct EHR.Research[]",
          "name": "",
          "type": "tuple[]"
        }
      ],
      "stateMutability": "view",
      "type": "function"
    },
    {
      "inputs": [
        {
          "internalType": "uint256",
          "name": "researchId",
          "type": "uint256"
        }
      ],
      "name": "fetchAllUsersForResearch",
      "outputs": [
        {
          "components": [
            {
              "internalType": "address",
              "name": "userAdd",
              "type": "address"
            },
            {
              "internalType": "string",
              "name": "name",
              "type": "string"
            },
            {
              "internalType": "string",
              "name": "personalAdd",
              "type": "string"
            },
            {
              "internalType": "string",
              "name": "emailId",
              "type": "string"
            },
            {
              "internalType": "string",
              "name": "mobileNo",
              "type": "string"
            },
            {
              "internalType": "uint256",
              "name": "gender",
              "type": "uint256"
            },
            {
              "internalType": "string",
              "name": "dob",
              "type": "string"
            }
          ],
          "internalType": "struct EHR.User[]",
          "name": "",
          "type": "tuple[]"
        }
      ],
      "stateMutability": "view",
      "type": "function"
    },
    {
      "inputs": [
        {
          "internalType": "address",
          "name": "hospitalAddress",
          "type": "address"
        }
      ],
      "name": "fetchHospitalByAddress",
      "outputs": [
        {
          "components": [
            {
              "internalType": "address",
              "name": "hosAdd",
              "type": "address"
            },
            {
              "internalType": "string",
              "name": "name",
              "type": "string"
            },
            {
              "internalType": "string",
              "name": "personalAdd",
              "type": "string"
            },
            {
              "internalType": "string",
              "name": "emailId",
              "type": "string"
            },
            {
              "internalType": "string",
              "name": "contactNo",
              "type": "string"
            }
          ],
          "internalType": "struct EHR.Hospital",
          "name": "",
          "type": "tuple"
        }
      ],
      "stateMutability": "view",
      "type": "function"
    },
    {
      "inputs": [
        {
          "internalType": "address",
          "name": "insuranceCompAddress",
          "type": "address"
        }
      ],
      "name": "fetchInsuranceCompByAddress",
      "outputs": [
        {
          "components": [
            {
              "internalType": "address",
              "name": "compAddr",
              "type": "address"
            },
            {
              "internalType": "string",
              "name": "name",
              "type": "string"
            },
            {
              "internalType": "string",
              "name": "emailId",
              "type": "string"
            },
            {
              "internalType": "string",
              "name": "contactNo",
              "type": "string"
            }
          ],
          "internalType": "struct EHR.InsuranceComp",
          "name": "",
          "type": "tuple"
        }
      ],
      "stateMutability": "view",
      "type": "function"
    },
    {
      "inputs": [],
      "name": "fetchMyDocuments",
      "outputs": [
        {
          "components": [
            {
              "internalType": "address",
              "name": "userAdd",
              "type": "address"
            },
            {
              "internalType": "address",
              "name": "hosAdd",
              "type": "address"
            },
            {
              "internalType": "string",
              "name": "docName",
              "type": "string"
            },
            {
              "internalType": "string",
              "name": "recordHash",
              "type": "string"
            },
            {
              "internalType": "string",
              "name": "recordName",
              "type": "string"
            },
            {
              "internalType": "string",
              "name": "issueDate",
              "type": "string"
            },
            {
              "internalType": "string",
              "name": "testSuggested",
              "type": "string"
            }
          ],
          "internalType": "struct EHR.Record[]",
          "name": "",
          "type": "tuple[]"
        }
      ],
      "stateMutability": "view",
      "type": "function"
    },
    {
      "inputs": [],
      "name": "fetchMyHospitalAccessList",
      "outputs": [
        {
          "components": [
            {
              "internalType": "address",
              "name": "hosAdd",
              "type": "address"
            },
            {
              "internalType": "string",
              "name": "name",
              "type": "string"
            },
            {
              "internalType": "string",
              "name": "personalAdd",
              "type": "string"
            },
            {
              "internalType": "string",
              "name": "emailId",
              "type": "string"
            },
            {
              "internalType": "string",
              "name": "contactNo",
              "type": "string"
            }
          ],
          "internalType": "struct EHR.Hospital[]",
          "name": "",
          "type": "tuple[]"
        }
      ],
      "stateMutability": "view",
      "type": "function"
    },
    {
      "inputs": [],
      "name": "fetchMyResearchAccessList",
      "outputs": [
        {
          "components": [
            {
              "internalType": "uint256",
              "name": "id",
              "type": "uint256"
            },
            {
              "internalType": "address",
              "name": "orgAdd",
              "type": "address"
            },
            {
              "internalType": "string",
              "name": "name",
              "type": "string"
            },
            {
              "internalType": "string",
              "name": "description",
              "type": "string"
            },
            {
              "internalType": "string",
              "name": "cid",
              "type": "string"
            },
            {
              "internalType": "string",
              "name": "cidName",
              "type": "string"
            },
            {
              "internalType": "uint256",
              "name": "usersRequired",
              "type": "uint256"
            },
            {
              "internalType": "uint256",
              "name": "currentUsers",
              "type": "uint256"
            }
          ],
          "internalType": "struct EHR.Research[]",
          "name": "",
          "type": "tuple[]"
        }
      ],
      "stateMutability": "view",
      "type": "function"
    },
    {
      "inputs": [],
      "name": "fetchMyResearchs",
      "outputs": [
        {
          "components": [
            {
              "internalType": "uint256",
              "name": "id",
              "type": "uint256"
            },
            {
              "internalType": "address",
              "name": "orgAdd",
              "type": "address"
            },
            {
              "internalType": "string",
              "name": "name",
              "type": "string"
            },
            {
              "internalType": "string",
              "name": "description",
              "type": "string"
            },
            {
              "internalType": "string",
              "name": "cid",
              "type": "string"
            },
            {
              "internalType": "string",
              "name": "cidName",
              "type": "string"
            },
            {
              "internalType": "uint256",
              "name": "usersRequired",
              "type": "uint256"
            },
            {
              "internalType": "uint256",
              "name": "currentUsers",
              "type": "uint256"
            }
          ],
          "internalType": "struct EHR.Research[]",
          "name": "",
          "type": "tuple[]"
        }
      ],
      "stateMutability": "view",
      "type": "function"
    },
    {
      "inputs": [
        {
          "internalType": "address",
          "name": "orgAddress",
          "type": "address"
        }
      ],
      "name": "fetchOrganizationByAddress",
      "outputs": [
        {
          "components": [
            {
              "internalType": "address",
              "name": "orgAdd",
              "type": "address"
            },
            {
              "internalType": "string",
              "name": "name",
              "type": "string"
            },
            {
              "internalType": "string",
              "name": "emailId",
              "type": "string"
            },
            {
              "internalType": "string",
              "name": "contactNo",
              "type": "string"
            }
          ],
          "internalType": "struct EHR.ResearchOrg",
          "name": "",
          "type": "tuple"
        }
      ],
      "stateMutability": "view",
      "type": "function"
    },
    {
      "inputs": [
        {
          "internalType": "uint256",
          "name": "id",
          "type": "uint256"
        }
      ],
      "name": "fetchResearchById",
      "outputs": [
        {
          "components": [
            {
              "internalType": "uint256",
              "name": "id",
              "type": "uint256"
            },
            {
              "internalType": "address",
              "name": "orgAdd",
              "type": "address"
            },
            {
              "internalType": "string",
              "name": "name",
              "type": "string"
            },
            {
              "internalType": "string",
              "name": "description",
              "type": "string"
            },
            {
              "internalType": "string",
              "name": "cid",
              "type": "string"
            },
            {
              "internalType": "string",
              "name": "cidName",
              "type": "string"
            },
            {
              "internalType": "uint256",
              "name": "usersRequired",
              "type": "uint256"
            },
            {
              "internalType": "uint256",
              "name": "currentUsers",
              "type": "uint256"
            }
          ],
          "internalType": "struct EHR.Research",
          "name": "",
          "type": "tuple"
        }
      ],
      "stateMutability": "view",
      "type": "function"
    },
    {
      "inputs": [
        {
          "internalType": "address",
          "name": "userAddress",
          "type": "address"
        }
      ],
      "name": "fetchUserByAddress",
      "outputs": [
        {
          "components": [
            {
              "internalType": "address",
              "name": "userAdd",
              "type": "address"
            },
            {
              "internalType": "string",
              "name": "name",
              "type": "string"
            },
            {
              "internalType": "string",
              "name": "personalAdd",
              "type": "string"
            },
            {
              "internalType": "string",
              "name": "emailId",
              "type": "string"
            },
            {
              "internalType": "string",
              "name": "mobileNo",
              "type": "string"
            },
            {
              "internalType": "uint256",
              "name": "gender",
              "type": "uint256"
            },
            {
              "internalType": "string",
              "name": "dob",
              "type": "string"
            }
          ],
          "internalType": "struct EHR.User",
          "name": "",
          "type": "tuple"
        }
      ],
      "stateMutability": "view",
      "type": "function"
    },
    {
      "inputs": [
        {
          "internalType": "address",
          "name": "userAddress",
          "type": "address"
        }
      ],
      "name": "fetchUserDocumentsForHospital",
      "outputs": [
        {
          "components": [
            {
              "internalType": "address",
              "name": "userAdd",
              "type": "address"
            },
            {
              "internalType": "address",
              "name": "hosAdd",
              "type": "address"
            },
            {
              "internalType": "string",
              "name": "docName",
              "type": "string"
            },
            {
              "internalType": "string",
              "name": "recordHash",
              "type": "string"
            },
            {
              "internalType": "string",
              "name": "recordName",
              "type": "string"
            },
            {
              "internalType": "string",
              "name": "issueDate",
              "type": "string"
            },
            {
              "internalType": "string",
              "name": "testSuggested",
              "type": "string"
            }
          ],
          "internalType": "struct EHR.Record[]",
          "name": "",
          "type": "tuple[]"
        }
      ],
      "stateMutability": "view",
      "type": "function"
    },
    {
      "inputs": [
        {
          "internalType": "address",
          "name": "userAddress",
          "type": "address"
        },
        {
          "internalType": "uint256",
          "name": "researchId",
          "type": "uint256"
        }
      ],
      "name": "fetchUserDocumentsForResearch",
      "outputs": [
        {
          "components": [
            {
              "internalType": "address",
              "name": "userAdd",
              "type": "address"
            },
            {
              "internalType": "address",
              "name": "hosAdd",
              "type": "address"
            },
            {
              "internalType": "string",
              "name": "docName",
              "type": "string"
            },
            {
              "internalType": "string",
              "name": "recordHash",
              "type": "string"
            },
            {
              "internalType": "string",
              "name": "recordName",
              "type": "string"
            },
            {
              "internalType": "string",
              "name": "issueDate",
              "type": "string"
            },
            {
              "internalType": "string",
              "name": "testSuggested",
              "type": "string"
            }
          ],
          "internalType": "struct EHR.Record[]",
          "name": "",
          "type": "tuple[]"
        }
      ],
      "stateMutability": "view",
      "type": "function"
    },
    {
      "inputs": [],
      "name": "getAllHospitalRecords",
      "outputs": [
        {
          "components": [
            {
              "internalType": "address",
              "name": "userAdd",
              "type": "address"
            },
            {
              "internalType": "address",
              "name": "hosAdd",
              "type": "address"
            },
            {
              "internalType": "string",
              "name": "docName",
              "type": "string"
            },
            {
              "internalType": "string",
              "name": "recordHash",
              "type": "string"
            },
            {
              "internalType": "string",
              "name": "recordName",
              "type": "string"
            },
            {
              "internalType": "string",
              "name": "issueDate",
              "type": "string"
            },
            {
              "internalType": "string",
              "name": "testSuggested",
              "type": "string"
            }
          ],
          "internalType": "struct EHR.Record[]",
          "name": "",
          "type": "tuple[]"
        }
      ],
      "stateMutability": "view",
      "type": "function"
    },
    {
      "inputs": [
        {
          "internalType": "address",
          "name": "hospitalAddress",
          "type": "address"
        }
      ],
      "name": "grantAccessToHospital",
      "outputs": [],
      "stateMutability": "nonpayable",
      "type": "function"
    },
    {
      "inputs": [
        {
          "internalType": "address",
          "name": "insuranceCompAddress",
          "type": "address"
        }
      ],
      "name": "grantAccessToInsuranceComp",
      "outputs": [],
      "stateMutability": "payable",
      "type": "function"
    },
    {
      "inputs": [
        {
          "internalType": "uint256",
          "name": "researchId",
          "type": "uint256"
        }
      ],
      "name": "grantAccessToResearch",
      "outputs": [],
      "stateMutability": "payable",
      "type": "function"
    },
    {
      "inputs": [
        {
          "internalType": "address",
          "name": "userAddress",
          "type": "address"
        },
        {
          "internalType": "address",
          "name": "hospitalAddress",
          "type": "address"
        }
      ],
      "name": "hasUserRecordAccessForHospital",
      "outputs": [
        {
          "internalType": "bool",
          "name": "",
          "type": "bool"
        }
      ],
      "stateMutability": "view",
      "type": "function"
    },
    {
      "inputs": [
        {
          "internalType": "address",
          "name": "userAddress",
          "type": "address"
        },
        {
          "internalType": "address",
          "name": "insuranceCompAddress",
          "type": "address"
        }
      ],
      "name": "hasUserRecordAccessForInsuranceComp",
      "outputs": [
        {
          "internalType": "bool",
          "name": "",
          "type": "bool"
        }
      ],
      "stateMutability": "view",
      "type": "function"
    },
    {
      "inputs": [
        {
          "internalType": "address",
          "name": "userAddress",
          "type": "address"
        },
        {
          "internalType": "uint256",
          "name": "researchId",
          "type": "uint256"
        }
      ],
      "name": "hasUserRecordAccessForResearch",
      "outputs": [
        {
          "internalType": "bool",
          "name": "",
          "type": "bool"
        }
      ],
      "stateMutability": "view",
      "type": "function"
    },
    {
      "inputs": [
        {
          "internalType": "string",
          "name": "name",
          "type": "string"
        },
        {
          "internalType": "string",
          "name": "personalAdd",
          "type": "string"
        },
        {
          "internalType": "string",
          "name": "emailId",
          "type": "string"
        },
        {
          "internalType": "string",
          "name": "mobileNo",
          "type": "string"
        }
      ],
      "name": "registerHospital",
      "outputs": [],
      "stateMutability": "nonpayable",
      "type": "function"
    },
    {
      "inputs": [
        {
          "internalType": "string",
          "name": "name",
          "type": "string"
        },
        {
          "internalType": "string",
          "name": "emailId",
          "type": "string"
        },
        {
          "internalType": "string",
          "name": "mobileNo",
          "type": "string"
        }
      ],
      "name": "registerInsuranceComp",
      "outputs": [],
      "stateMutability": "nonpayable",
      "type": "function"
    },
    {
      "inputs": [
        {
          "internalType": "string",
          "name": "name",
          "type": "string"
        },
        {
          "internalType": "string",
          "name": "emailId",
          "type": "string"
        },
        {
          "internalType": "string",
          "name": "mobileNo",
          "type": "string"
        }
      ],
      "name": "registerResearchOrg",
      "outputs": [],
      "stateMutability": "nonpayable",
      "type": "function"
    },
    {
      "inputs": [
        {
          "internalType": "string",
          "name": "name",
          "type": "string"
        },
        {
          "internalType": "string",
          "name": "personalAdd",
          "type": "string"
        },
        {
          "internalType": "string",
          "name": "emailId",
          "type": "string"
        },
        {
          "internalType": "string",
          "name": "mobileNo",
          "type": "string"
        },
        {
          "internalType": "uint256",
          "name": "gender",
          "type": "uint256"
        },
        {
          "internalType": "string",
          "name": "dob",
          "type": "string"
        }
      ],
      "name": "registerUser",
      "outputs": [],
      "stateMutability": "nonpayable",
      "type": "function"
    },
    {
      "inputs": [
        {
          "internalType": "address",
          "name": "hospitalAddress",
          "type": "address"
        }
      ],
      "name": "removeAccessFromHospital",
      "outputs": [],
      "stateMutability": "nonpayable",
      "type": "function"
    },
    {
      "inputs": [
        {
          "internalType": "address",
          "name": "insuranceCompAddress",
          "type": "address"
        }
      ],
      "name": "removeAccessFromInsuranceComp",
      "outputs": [],
      "stateMutability": "nonpayable",
      "type": "function"
    },
    {
      "inputs": [
        {
          "internalType": "uint256",
          "name": "researchId",
          "type": "uint256"
        }
      ],
      "name": "removeAccessFromResearch",
      "outputs": [],
      "stateMutability": "payable",
      "type": "function"
    }
  ],
  "bytecode": "0x608060405234801561001057600080fd5b50336000806101000a81548173ffffffffffffffffffffffffffffffffffffffff021916908373ffffffffffffffffffffffffffffffffffffffff16021790555061778780620000616000396000f3fe6080604052600436106101d85760003560e01c8063849326f211610102578063baa719dc11610095578063edf9e00a11610064578063edf9e00a146106df578063f8f625e914610708578063f95ad8fd14610745578063fd265a2514610770576101d8565b8063baa719dc146105fd578063c444411d14610628578063c925075314610665578063da8da731146106a2576101d8565b80639ea271d5116100d15780639ea271d51461051d5780639f900a181461055a578063b415317614610597578063b6280060146105d4576101d8565b8063849326f21461044f5780638add45791461048c5780638aeab380146104b55780639d27643b146104e0576101d8565b8063272620b91161017a5780634c828df8116101495780634c828df8146103a25780634df6f28d146103df57806354053ea814610408578063684217a614610433576101d8565b8063272620b9146102f55780633c51fad51461033257806341bd117c1461035d5780634630d73b14610379576101d8565b806318779cb4116101b657806318779cb41461025a5780631be8530e14610276578063223a6d34146102a1578063245e7f95146102ca576101d8565b806302539bd8146101dd5780630482aa8214610206578063166fb61814610231575b600080fd5b3480156101e957600080fd5b5061020460048036038101906101ff9190616159565b61078c565b005b34801561021257600080fd5b5061021b61091b565b604051610228919061628b565b60405180910390f35b34801561023d57600080fd5b50610258600480360381019061025391906162d2565b610aa9565b005b610274600480360381019061026f91906163eb565b610c8e565b005b34801561028257600080fd5b5061028b610dc9565b604051610298919061663c565b60405180910390f35b3480156102ad57600080fd5b506102c860048036038101906102c3919061665e565b611267565b005b3480156102d657600080fd5b506102df611402565b6040516102ec919061687f565b60405180910390f35b34801561030157600080fd5b5061031c600480360381019061031791906168a1565b61196b565b6040516103299190616993565b60405180910390f35b34801561033e57600080fd5b50610347611c55565b604051610354919061663c565b60405180910390f35b610377600480360381019061037291906168a1565b611fd8565b005b34801561038557600080fd5b506103a0600480360381019061039b91906163eb565b61217c565b005b3480156103ae57600080fd5b506103c960048036038101906103c491906169b5565b6122b7565b6040516103d69190616a10565b60405180910390f35b3480156103eb57600080fd5b5061040660048036038101906104019190616a2b565b6123c4565b005b34801561041457600080fd5b5061041d61257c565b60405161042a919061663c565b60405180910390f35b61044d600480360381019061044891906168a1565b61299b565b005b34801561045b57600080fd5b50610476600480360381019061047191906163eb565b612b4d565b604051610483919061687f565b60405180910390f35b34801561049857600080fd5b506104b360048036038101906104ae91906163eb565b613108565b005b3480156104c157600080fd5b506104ca6132bf565b6040516104d79190616c4f565b60405180910390f35b3480156104ec57600080fd5b5061050760048036038101906105029190616c71565b6136bf565b6040516105149190616a10565b60405180910390f35b34801561052957600080fd5b50610544600480360381019061053f91906163eb565b613786565b6040516105519190616d22565b60405180910390f35b34801561056657600080fd5b50610581600480360381019061057c91906163eb565b6139fe565b60405161058e9190616dfc565b60405180910390f35b3480156105a357600080fd5b506105be60048036038101906105b991906163eb565b613da4565b6040516105cb9190616ea9565b60405180910390f35b3480156105e057600080fd5b506105fb60048036038101906105f6919061665e565b6140ae565b005b34801561060957600080fd5b50610612614263565b60405161061f9190616c4f565b60405180910390f35b34801561063457600080fd5b5061064f600480360381019061064a9190616c71565b6145c7565b60405161065c919061687f565b60405180910390f35b34801561067157600080fd5b5061068c600480360381019061068791906163eb565b614b83565b6040516106999190616f3c565b60405180910390f35b3480156106ae57600080fd5b506106c960048036038101906106c491906168a1565b614dfb565b6040516106d691906170d8565b60405180910390f35b3480156106eb57600080fd5b50610706600480360381019061070191906163eb565b615324565b005b34801561071457600080fd5b5061072f600480360381019061072a91906169b5565b6154db565b60405161073c9190616a10565b60405180910390f35b34801561075157600080fd5b5061075a6155e8565b604051610767919061687f565b60405180910390f35b61078a600480360381019061078591906170fa565b615b65565b005b6040518060e001604052808773ffffffffffffffffffffffffffffffffffffffff1681526020013373ffffffffffffffffffffffffffffffffffffffff16815260200186815260200185815260200184815260200183815260200182815250600960006003600081548092919061080290617214565b91905055815260200190815260200160002060008201518160000160006101000a81548173ffffffffffffffffffffffffffffffffffffffff021916908373ffffffffffffffffffffffffffffffffffffffff16021790555060208201518160010160006101000a81548173ffffffffffffffffffffffffffffffffffffffff021916908373ffffffffffffffffffffffffffffffffffffffff16021790555060408201518160020190816108b79190617468565b5060608201518160030190816108cd9190617468565b5060808201518160040190816108e39190617468565b5060a08201518160050190816108f99190617468565b5060c082015181600601908161090f9190617468565b50905050505050505050565b600060011515601160003373ffffffffffffffffffffffffffffffffffffffff1673ffffffffffffffffffffffffffffffffffffffff16815260200190815260200160002060009054906101000a900460ff1615150361097e5760019050610aa6565b60011515601260003373ffffffffffffffffffffffffffffffffffffffff1673ffffffffffffffffffffffffffffffffffffffff16815260200190815260200160002060009054906101000a900460ff161515036109df5760029050610aa6565b60011515601360003373ffffffffffffffffffffffffffffffffffffffff1673ffffffffffffffffffffffffffffffffffffffff16815260200190815260200160002060009054906101000a900460ff16151503610a405760039050610aa6565b60011515601460003373ffffffffffffffffffffffffffffffffffffffff1673ffffffffffffffffffffffffffffffffffffffff16815260200190815260200160002060009054906101000a900460ff16151503610aa15760049050610aa6565b600090505b90565b6040518060e001604052803373ffffffffffffffffffffffffffffffffffffffff168152602001878152602001868152602001858152602001848152602001838152602001828152506007600060016000815480929190610b0990617214565b91905055815260200190815260200160002060008201518160000160006101000a81548173ffffffffffffffffffffffffffffffffffffffff021916908373ffffffffffffffffffffffffffffffffffffffff1602179055506020820151816001019081610b779190617468565b506040820151816002019081610b8d9190617468565b506060820151816003019081610ba39190617468565b506080820151816004019081610bb99190617468565b5060a0820151816005015560c0820151816006019081610bd99190617468565b5090505060018054610beb919061753a565b600d60003373ffffffffffffffffffffffffffffffffffffffff1673ffffffffffffffffffffffffffffffffffffffff168152602001908152602001600020819055506001601160003373ffffffffffffffffffffffffffffffffffffffff1673ffffffffffffffffffffffffffffffffffffffff16815260200190815260200160002060006101000a81548160ff021916908315150217905550505050505050565b6000601060008373ffffffffffffffffffffffffffffffffffffffff1673ffffffffffffffffffffffffffffffffffffffff1681526020019081526020016000205490506000600d60003373ffffffffffffffffffffffffffffffffffffffff1673ffffffffffffffffffffffffffffffffffffffff16815260200190815260200160002054905060005b6017600083815260200190815260200160002080549050811015610d885782601760008481526020019081526020016000208281548110610d5d57610d5c61756e565b5b906000526020600020015403610d7557505050610dc6565b8080610d8090617214565b915050610d19565b506017600082815260200190815260200160002082908060018154018082558091505060019003906000526020600020016000909190919091505550505b50565b6060600080600090505b600654811015610e69573373ffffffffffffffffffffffffffffffffffffffff16600c600083815260200190815260200160002060010160009054906101000a900473ffffffffffffffffffffffffffffffffffffffff1673ffffffffffffffffffffffffffffffffffffffff1603610e5657600182610e53919061759d565b91505b8080610e6190617214565b915050610dd3565b5060008167ffffffffffffffff811115610e8657610e8561602e565b5b604051908082528060200260200182016040528015610ebf57816020015b610eac615dc9565b815260200190600190039081610ea45790505b5090506000915060005b60065481101561125e573373ffffffffffffffffffffffffffffffffffffffff16600c600083815260200190815260200160002060010160009054906101000a900473ffffffffffffffffffffffffffffffffffffffff1673ffffffffffffffffffffffffffffffffffffffff160361124b576000600c600083815260200190815260200160002090508060405180610100016040529081600082015481526020016001820160009054906101000a900473ffffffffffffffffffffffffffffffffffffffff1673ffffffffffffffffffffffffffffffffffffffff1673ffffffffffffffffffffffffffffffffffffffff168152602001600282018054610fd09061728b565b80601f0160208091040260200160405190810160405280929190818152602001828054610ffc9061728b565b80156110495780601f1061101e57610100808354040283529160200191611049565b820191906000526020600020905b81548152906001019060200180831161102c57829003601f168201915b505050505081526020016003820180546110629061728b565b80601f016020809104026020016040519081016040528092919081815260200182805461108e9061728b565b80156110db5780601f106110b0576101008083540402835291602001916110db565b820191906000526020600020905b8154815290600101906020018083116110be57829003601f168201915b505050505081526020016004820180546110f49061728b565b80601f01602080910402602001604051908101604052809291908181526020018280546111209061728b565b801561116d5780601f106111425761010080835404028352916020019161116d565b820191906000526020600020905b81548152906001019060200180831161115057829003601f168201915b505050505081526020016005820180546111869061728b565b80601f01602080910402602001604051908101604052809291908181526020018280546111b29061728b565b80156111ff5780601f106111d4576101008083540402835291602001916111ff565b820191906000526020600020905b8154815290600101906020018083116111e257829003601f168201915b505050505081526020016006820154815260200160078201548152505083858151811061122f5761122e61756e565b5b6020026020010181905250600184611247919061759d565b9350505b808061125690617214565b915050610ec9565b50809250505090565b60405180608001604052803373ffffffffffffffffffffffffffffffffffffffff16815260200184815260200183815260200182815250600a6000600460008154809291906112b590617214565b91905055815260200190815260200160002060008201518160000160006101000a81548173ffffffffffffffffffffffffffffffffffffffff021916908373ffffffffffffffffffffffffffffffffffffffff16021790555060208201518160010190816113239190617468565b5060408201518160020190816113399190617468565b50606082015181600301908161134f9190617468565b509050506001600454611362919061753a565b600f60003373ffffffffffffffffffffffffffffffffffffffff1673ffffffffffffffffffffffffffffffffffffffff168152602001908152602001600020819055506001601360003373ffffffffffffffffffffffffffffffffffffffff1673ffffffffffffffffffffffffffffffffffffffff16815260200190815260200160002060006101000a81548160ff021916908315150217905550505050565b6060600080600090505b6003548110156114a2573373ffffffffffffffffffffffffffffffffffffffff166009600083815260200190815260200160002060010160009054906101000a900473ffffffffffffffffffffffffffffffffffffffff1673ffffffffffffffffffffffffffffffffffffffff160361148f5760018261148c919061759d565b91505b808061149a90617214565b91505061140c565b5060008167ffffffffffffffff8111156114bf576114be61602e565b5b6040519080825280602002602001820160405280156114f857816020015b6114e5615e24565b8152602001906001900390816114dd5790505b50905060005b600354811015611962573373ffffffffffffffffffffffffffffffffffffffff166009600083815260200190815260200160002060010160009054906101000a900473ffffffffffffffffffffffffffffffffffffffff1673ffffffffffffffffffffffffffffffffffffffff160361194f5760008190506000600960008381526020019081526020016000209050806040518060e00160405290816000820160009054906101000a900473ffffffffffffffffffffffffffffffffffffffff1673ffffffffffffffffffffffffffffffffffffffff1673ffffffffffffffffffffffffffffffffffffffff1681526020016001820160009054906101000a900473ffffffffffffffffffffffffffffffffffffffff1673ffffffffffffffffffffffffffffffffffffffff1673ffffffffffffffffffffffffffffffffffffffff1681526020016002820180546116559061728b565b80601f01602080910402602001604051908101604052809291908181526020018280546116819061728b565b80156116ce5780601f106116a3576101008083540402835291602001916116ce565b820191906000526020600020905b8154815290600101906020018083116116b157829003601f168201915b505050505081526020016003820180546116e79061728b565b80601f01602080910402602001604051908101604052809291908181526020018280546117139061728b565b80156117605780601f1061173557610100808354040283529160200191611760565b820191906000526020600020905b81548152906001019060200180831161174357829003601f168201915b505050505081526020016004820180546117799061728b565b80601f01602080910402602001604051908101604052809291908181526020018280546117a59061728b565b80156117f25780601f106117c7576101008083540402835291602001916117f2565b820191906000526020600020905b8154815290600101906020018083116117d557829003601f168201915b5050505050815260200160058201805461180b9061728b565b80601f01602080910402602001604051908101604052809291908181526020018280546118379061728b565b80156118845780601f1061185957610100808354040283529160200191611884565b820191906000526020600020905b81548152906001019060200180831161186757829003601f168201915b5050505050815260200160068201805461189d9061728b565b80601f01602080910402602001604051908101604052809291908181526020018280546118c99061728b565b80156119165780601f106118eb57610100808354040283529160200191611916565b820191906000526020600020905b8154815290600101906020018083116118f957829003601f168201915b5050505050815250508483815181106119325761193161756e565b5b602002602001018190525060018261194a919061759d565b915050505b808061195a90617214565b9150506114fe565b50809250505090565b611973615dc9565b600c600083815260200190815260200160002060405180610100016040529081600082015481526020016001820160009054906101000a900473ffffffffffffffffffffffffffffffffffffffff1673ffffffffffffffffffffffffffffffffffffffff1673ffffffffffffffffffffffffffffffffffffffff168152602001600282018054611a029061728b565b80601f0160208091040260200160405190810160405280929190818152602001828054611a2e9061728b565b8015611a7b5780601f10611a5057610100808354040283529160200191611a7b565b820191906000526020600020905b815481529060010190602001808311611a5e57829003601f168201915b50505050508152602001600382018054611a949061728b565b80601f0160208091040260200160405190810160405280929190818152602001828054611ac09061728b565b8015611b0d5780601f10611ae257610100808354040283529160200191611b0d565b820191906000526020600020905b815481529060010190602001808311611af057829003601f168201915b50505050508152602001600482018054611b269061728b565b80601f0160208091040260200160405190810160405280929190818152602001828054611b529061728b565b8015611b9f5780601f10611b7457610100808354040283529160200191611b9f565b820191906000526020600020905b815481529060010190602001808311611b8257829003601f168201915b50505050508152602001600582018054611bb89061728b565b80601f0160208091040260200160405190810160405280929190818152602001828054611be49061728b565b8015611c315780601f10611c0657610100808354040283529160200191611c31565b820191906000526020600020905b815481529060010190602001808311611c1457829003601f168201915b50505050508152602001600682015481526020016007820154815250509050919050565b6060600060065467ffffffffffffffff811115611c7557611c7461602e565b5b604051908082528060200260200182016040528015611cae57816020015b611c9b615dc9565b815260200190600190039081611c935790505b50905060005b600654811015611fd0576000600c600083815260200190815260200160002090508060405180610100016040529081600082015481526020016001820160009054906101000a900473ffffffffffffffffffffffffffffffffffffffff1673ffffffffffffffffffffffffffffffffffffffff1673ffffffffffffffffffffffffffffffffffffffff168152602001600282018054611d529061728b565b80601f0160208091040260200160405190810160405280929190818152602001828054611d7e9061728b565b8015611dcb5780601f10611da057610100808354040283529160200191611dcb565b820191906000526020600020905b815481529060010190602001808311611dae57829003601f168201915b50505050508152602001600382018054611de49061728b565b80601f0160208091040260200160405190810160405280929190818152602001828054611e109061728b565b8015611e5d5780601f10611e3257610100808354040283529160200191611e5d565b820191906000526020600020905b815481529060010190602001808311611e4057829003601f168201915b50505050508152602001600482018054611e769061728b565b80601f0160208091040260200160405190810160405280929190818152602001828054611ea29061728b565b8015611eef5780601f10611ec457610100808354040283529160200191611eef565b820191906000526020600020905b815481529060010190602001808311611ed257829003601f168201915b50505050508152602001600582018054611f089061728b565b80601f0160208091040260200160405190810160405280929190818152602001828054611f349061728b565b8015611f815780601f10611f5657610100808354040283529160200191611f81565b820191906000526020600020905b815481529060010190602001808311611f6457829003601f168201915b5050505050815260200160068201548152602001600782015481525050838381518110611fb157611fb061756e565b5b6020026020010181905250508080611fc890617214565b915050611cb4565b508091505090565b6000600d60003373ffffffffffffffffffffffffffffffffffffffff1673ffffffffffffffffffffffffffffffffffffffff16815260200190815260200160002054905060005b601660008381526020019081526020016000208054905081101561208d57826016600084815260200190815260200160002082815481106120635761206261756e565b5b90600052602060002001540361207a575050612179565b808061208590617214565b91505061201f565b50601660008281526020019081526020016000208290806001815401808255809150506001900390600052602060002001600090919091909150556001600c600084815260200190815260200160002060070160008282546120ef919061759d565b92505081905550600c600083815260200190815260200160002060070154600c60008481526020019081526020016000206006015411612177573373ffffffffffffffffffffffffffffffffffffffff166108fc655af3107a40009081150290604051600060405180830381858888f19350505050158015612175573d6000803e3d6000fd5b505b505b50565b6000600e60008373ffffffffffffffffffffffffffffffffffffffff1673ffffffffffffffffffffffffffffffffffffffff1681526020019081526020016000205490506000600d60003373ffffffffffffffffffffffffffffffffffffffff1673ffffffffffffffffffffffffffffffffffffffff16815260200190815260200160002054905060005b6015600083815260200190815260200160002080549050811015612276578260156000848152602001908152602001600020828154811061224b5761224a61756e565b5b906000526020600020015403612263575050506122b4565b808061226e90617214565b915050612207565b506015600082815260200190815260200160002082908060018154018082558091505060019003906000526020600020016000909190919091505550505b50565b600080600d60008573ffffffffffffffffffffffffffffffffffffffff1673ffffffffffffffffffffffffffffffffffffffff1681526020019081526020016000205490506000600e60008573ffffffffffffffffffffffffffffffffffffffff1673ffffffffffffffffffffffffffffffffffffffff16815260200190815260200160002054905060005b60156000848152602001908152602001600020805490508110156123b657816015600085815260200190815260200160002082815481106123875761238661756e565b5b9060005260206000200154036123a357600193505050506123be565b80806123ae90617214565b915050612343565b506000925050505b92915050565b6040518060a001604052803373ffffffffffffffffffffffffffffffffffffffff16815260200185815260200184815260200183815260200182815250600860006002600081548092919061241890617214565b91905055815260200190815260200160002060008201518160000160006101000a81548173ffffffffffffffffffffffffffffffffffffffff021916908373ffffffffffffffffffffffffffffffffffffffff16021790555060208201518160010190816124869190617468565b50604082015181600201908161249c9190617468565b5060608201518160030190816124b29190617468565b5060808201518160040190816124c89190617468565b5090505060016002546124db919061753a565b600e60003373ffffffffffffffffffffffffffffffffffffffff1673ffffffffffffffffffffffffffffffffffffffff168152602001908152602001600020819055506001601260003373ffffffffffffffffffffffffffffffffffffffff1673ffffffffffffffffffffffffffffffffffffffff16815260200190815260200160002060006101000a81548160ff02191690831515021790555050505050565b60606000600d60003373ffffffffffffffffffffffffffffffffffffffff1673ffffffffffffffffffffffffffffffffffffffff1681526020019081526020016000205490506000601660008381526020019081526020016000208054905067ffffffffffffffff8111156125f4576125f361602e565b5b60405190808252806020026020018201604052801561262d57816020015b61261a615dc9565b8152602001906001900390816126125790505b50905060005b6016600084815260200190815260200160002080549050811015612992576000600c600060166000878152602001908152602001600020848154811061267c5761267b61756e565b5b9060005260206000200154815260200190815260200160002090508060405180610100016040529081600082015481526020016001820160009054906101000a900473ffffffffffffffffffffffffffffffffffffffff1673ffffffffffffffffffffffffffffffffffffffff1673ffffffffffffffffffffffffffffffffffffffff1681526020016002820180546127149061728b565b80601f01602080910402602001604051908101604052809291908181526020018280546127409061728b565b801561278d5780601f106127625761010080835404028352916020019161278d565b820191906000526020600020905b81548152906001019060200180831161277057829003601f168201915b505050505081526020016003820180546127a69061728b565b80601f01602080910402602001604051908101604052809291908181526020018280546127d29061728b565b801561281f5780601f106127f45761010080835404028352916020019161281f565b820191906000526020600020905b81548152906001019060200180831161280257829003601f168201915b505050505081526020016004820180546128389061728b565b80601f01602080910402602001604051908101604052809291908181526020018280546128649061728b565b80156128b15780601f10612886576101008083540402835291602001916128b1565b820191906000526020600020905b81548152906001019060200180831161289457829003601f168201915b505050505081526020016005820180546128ca9061728b565b80601f01602080910402602001604051908101604052809291908181526020018280546128f69061728b565b80156129435780601f1061291857610100808354040283529160200191612943565b820191906000526020600020905b81548152906001019060200180831161292657829003601f168201915b50505050508152602001600682015481526020016007820154815250508383815181106129735761297261756e565b5b602002602001018190525050808061298a90617214565b915050612633565b50809250505090565b655af3107a400034146129ad57600080fd5b6000600d60003373ffffffffffffffffffffffffffffffffffffffff1673ffffffffffffffffffffffffffffffffffffffff16815260200190815260200160002054905060005b6016600083815260200190815260200160002080549050811015612b485782601660008481526020019081526020016000208281548110612a3857612a3761756e565b5b906000526020600020015403612b35576016600083815260200190815260200160002060016016600085815260200190815260200160002080549050612a7e919061753a565b81548110612a8f57612a8e61756e565b5b9060005260206000200154601660008481526020019081526020016000208281548110612abf57612abe61756e565b5b906000526020600020018190555060166000838152602001908152602001600020805480612af057612aef6175d1565b5b600190038181906000526020600020016000905590556001600c60008581526020019081526020016000206007016000828254612b2d919061753a565b925050819055505b8080612b4090617214565b9150506129f4565b505050565b606060011515612b5d83336122b7565b151514612b9f576040517f08c379a0000000000000000000000000000000000000000000000000000000008152600401612b9690617683565b60405180910390fd5b600080600090505b600354811015612c3d578373ffffffffffffffffffffffffffffffffffffffff166009600083815260200190815260200160002060000160009054906101000a900473ffffffffffffffffffffffffffffffffffffffff1673ffffffffffffffffffffffffffffffffffffffff1603612c2a57600182612c27919061759d565b91505b8080612c3590617214565b915050612ba7565b5060008167ffffffffffffffff811115612c5a57612c5961602e565b5b604051908082528060200260200182016040528015612c9357816020015b612c80615e24565b815260200190600190039081612c785790505b50905060005b6003548110156130fd578473ffffffffffffffffffffffffffffffffffffffff166009600083815260200190815260200160002060000160009054906101000a900473ffffffffffffffffffffffffffffffffffffffff1673ffffffffffffffffffffffffffffffffffffffff16036130ea5760008190506000600960008381526020019081526020016000209050806040518060e00160405290816000820160009054906101000a900473ffffffffffffffffffffffffffffffffffffffff1673ffffffffffffffffffffffffffffffffffffffff1673ffffffffffffffffffffffffffffffffffffffff1681526020016001820160009054906101000a900473ffffffffffffffffffffffffffffffffffffffff1673ffffffffffffffffffffffffffffffffffffffff1673ffffffffffffffffffffffffffffffffffffffff168152602001600282018054612df09061728b565b80601f0160208091040260200160405190810160405280929190818152602001828054612e1c9061728b565b8015612e695780601f10612e3e57610100808354040283529160200191612e69565b820191906000526020600020905b815481529060010190602001808311612e4c57829003601f168201915b50505050508152602001600382018054612e829061728b565b80601f0160208091040260200160405190810160405280929190818152602001828054612eae9061728b565b8015612efb5780601f10612ed057610100808354040283529160200191612efb565b820191906000526020600020905b815481529060010190602001808311612ede57829003601f168201915b50505050508152602001600482018054612f149061728b565b80601f0160208091040260200160405190810160405280929190818152602001828054612f409061728b565b8015612f8d5780601f10612f6257610100808354040283529160200191612f8d565b820191906000526020600020905b815481529060010190602001808311612f7057829003601f168201915b50505050508152602001600582018054612fa69061728b565b80601f0160208091040260200160405190810160405280929190818152602001828054612fd29061728b565b801561301f5780601f10612ff45761010080835404028352916020019161301f565b820191906000526020600020905b81548152906001019060200180831161300257829003601f168201915b505050505081526020016006820180546130389061728b565b80601f01602080910402602001604051908101604052809291908181526020018280546130649061728b565b80156130b15780601f10613086576101008083540402835291602001916130b1565b820191906000526020600020905b81548152906001019060200180831161309457829003601f168201915b5050505050815250508483815181106130cd576130cc61756e565b5b60200260200101819052506001826130e5919061759d565b915050505b80806130f590617214565b915050612c99565b508092505050919050565b6000601060008373ffffffffffffffffffffffffffffffffffffffff1673ffffffffffffffffffffffffffffffffffffffff1681526020019081526020016000205490506000600d60003373ffffffffffffffffffffffffffffffffffffffff1673ffffffffffffffffffffffffffffffffffffffff16815260200190815260200160002054905060005b60176000838152602001908152602001600020805490508110156132b957826017600084815260200190815260200160002082815481106131d7576131d661756e565b5b9060005260206000200154036132a657601760008381526020019081526020016000206001601760008581526020019081526020016000208054905061321d919061753a565b8154811061322e5761322d61756e565b5b906000526020600020015460176000848152602001908152602001600020828154811061325e5761325d61756e565b5b90600052602060002001819055506017600083815260200190815260200160002080548061328f5761328e6175d1565b5b600190038181906000526020600020016000905590555b80806132b190617214565b915050613193565b50505050565b60606000600d60003373ffffffffffffffffffffffffffffffffffffffff1673ffffffffffffffffffffffffffffffffffffffff1681526020019081526020016000205490506000601560008381526020019081526020016000208054905067ffffffffffffffff8111156133375761333661602e565b5b60405190808252806020026020018201604052801561337057816020015b61335d615e8d565b8152602001906001900390816133555790505b50905060005b60156000848152602001908152602001600020805490508110156136b6576000600860006015600087815260200190815260200160002084815481106133bf576133be61756e565b5b906000526020600020015481526020019081526020016000209050806040518060a00160405290816000820160009054906101000a900473ffffffffffffffffffffffffffffffffffffffff1673ffffffffffffffffffffffffffffffffffffffff1673ffffffffffffffffffffffffffffffffffffffff16815260200160018201805461344c9061728b565b80601f01602080910402602001604051908101604052809291908181526020018280546134789061728b565b80156134c55780601f1061349a576101008083540402835291602001916134c5565b820191906000526020600020905b8154815290600101906020018083116134a857829003601f168201915b505050505081526020016002820180546134de9061728b565b80601f016020809104026020016040519081016040528092919081815260200182805461350a9061728b565b80156135575780601f1061352c57610100808354040283529160200191613557565b820191906000526020600020905b81548152906001019060200180831161353a57829003601f168201915b505050505081526020016003820180546135709061728b565b80601f016020809104026020016040519081016040528092919081815260200182805461359c9061728b565b80156135e95780601f106135be576101008083540402835291602001916135e9565b820191906000526020600020905b8154815290600101906020018083116135cc57829003601f168201915b505050505081526020016004820180546136029061728b565b80601f016020809104026020016040519081016040528092919081815260200182805461362e9061728b565b801561367b5780601f106136505761010080835404028352916020019161367b565b820191906000526020600020905b81548152906001019060200180831161365e57829003601f168201915b5050505050815250508383815181106136975761369661756e565b5b60200260200101819052505080806136ae90617214565b915050613376565b50809250505090565b600080600d60008573ffffffffffffffffffffffffffffffffffffffff1673ffffffffffffffffffffffffffffffffffffffff16815260200190815260200160002054905060005b6016600083815260200190815260200160002080549050811015613779578360166000848152602001908152602001600020828154811061374b5761374a61756e565b5b90600052602060002001540361376657600192505050613780565b808061377190617214565b915050613707565b5060009150505b92915050565b61378e615ed2565b600a6000600f60008573ffffffffffffffffffffffffffffffffffffffff1673ffffffffffffffffffffffffffffffffffffffff1681526020019081526020016000205481526020019081526020016000206040518060800160405290816000820160009054906101000a900473ffffffffffffffffffffffffffffffffffffffff1673ffffffffffffffffffffffffffffffffffffffff1673ffffffffffffffffffffffffffffffffffffffff1681526020016001820180546138519061728b565b80601f016020809104026020016040519081016040528092919081815260200182805461387d9061728b565b80156138ca5780601f1061389f576101008083540402835291602001916138ca565b820191906000526020600020905b8154815290600101906020018083116138ad57829003601f168201915b505050505081526020016002820180546138e39061728b565b80601f016020809104026020016040519081016040528092919081815260200182805461390f9061728b565b801561395c5780601f106139315761010080835404028352916020019161395c565b820191906000526020600020905b81548152906001019060200180831161393f57829003601f168201915b505050505081526020016003820180546139759061728b565b80601f01602080910402602001604051908101604052809291908181526020018280546139a19061728b565b80156139ee5780601f106139c3576101008083540402835291602001916139ee565b820191906000526020600020905b8154815290600101906020018083116139d157829003601f168201915b5050505050815250509050919050565b613a06615f10565b60076000600d60008573ffffffffffffffffffffffffffffffffffffffff1673ffffffffffffffffffffffffffffffffffffffff1681526020019081526020016000205481526020019081526020016000206040518060e00160405290816000820160009054906101000a900473ffffffffffffffffffffffffffffffffffffffff1673ffffffffffffffffffffffffffffffffffffffff1673ffffffffffffffffffffffffffffffffffffffff168152602001600182018054613ac99061728b565b80601f0160208091040260200160405190810160405280929190818152602001828054613af59061728b565b8015613b425780601f10613b1757610100808354040283529160200191613b42565b820191906000526020600020905b815481529060010190602001808311613b2557829003601f168201915b50505050508152602001600282018054613b5b9061728b565b80601f0160208091040260200160405190810160405280929190818152602001828054613b879061728b565b8015613bd45780601f10613ba957610100808354040283529160200191613bd4565b820191906000526020600020905b815481529060010190602001808311613bb757829003601f168201915b50505050508152602001600382018054613bed9061728b565b80601f0160208091040260200160405190810160405280929190818152602001828054613c199061728b565b8015613c665780601f10613c3b57610100808354040283529160200191613c66565b820191906000526020600020905b815481529060010190602001808311613c4957829003601f168201915b50505050508152602001600482018054613c7f9061728b565b80601f0160208091040260200160405190810160405280929190818152602001828054613cab9061728b565b8015613cf85780601f10613ccd57610100808354040283529160200191613cf8565b820191906000526020600020905b815481529060010190602001808311613cdb57829003601f168201915b5050505050815260200160058201548152602001600682018054613d1b9061728b565b80601f0160208091040260200160405190810160405280929190818152602001828054613d479061728b565b8015613d945780601f10613d6957610100808354040283529160200191613d94565b820191906000526020600020905b815481529060010190602001808311613d7757829003601f168201915b5050505050815250509050919050565b613dac615e8d565b60086000600e60008573ffffffffffffffffffffffffffffffffffffffff1673ffffffffffffffffffffffffffffffffffffffff1681526020019081526020016000205481526020019081526020016000206040518060a00160405290816000820160009054906101000a900473ffffffffffffffffffffffffffffffffffffffff1673ffffffffffffffffffffffffffffffffffffffff1673ffffffffffffffffffffffffffffffffffffffff168152602001600182018054613e6f9061728b565b80601f0160208091040260200160405190810160405280929190818152602001828054613e9b9061728b565b8015613ee85780601f10613ebd57610100808354040283529160200191613ee8565b820191906000526020600020905b815481529060010190602001808311613ecb57829003601f168201915b50505050508152602001600282018054613f019061728b565b80601f0160208091040260200160405190810160405280929190818152602001828054613f2d9061728b565b8015613f7a5780601f10613f4f57610100808354040283529160200191613f7a565b820191906000526020600020905b815481529060010190602001808311613f5d57829003601f168201915b50505050508152602001600382018054613f939061728b565b80601f0160208091040260200160405190810160405280929190818152602001828054613fbf9061728b565b801561400c5780601f10613fe15761010080835404028352916020019161400c565b820191906000526020600020905b815481529060010190602001808311613fef57829003601f168201915b505050505081526020016004820180546140259061728b565b80601f01602080910402602001604051908101604052809291908181526020018280546140519061728b565b801561409e5780601f106140735761010080835404028352916020019161409e565b820191906000526020600020905b81548152906001019060200180831161408157829003601f168201915b5050505050815250509050919050565b60405180608001604052803373ffffffffffffffffffffffffffffffffffffffff16815260200184815260200183815260200182815250600b6000600460008154809291906140fc90617214565b91905055815260200190815260200160002060008201518160000160006101000a81548173ffffffffffffffffffffffffffffffffffffffff021916908373ffffffffffffffffffffffffffffffffffffffff160217905550602082015181600101908161416a9190617468565b5060408201518160020190816141809190617468565b5060608201518160030190816141969190617468565b5090505060016005546141a9919061753a565b601060003373ffffffffffffffffffffffffffffffffffffffff1673ffffffffffffffffffffffffffffffffffffffff168152602001908152602001600020819055506001600560008282546141ff919061759d565b925050819055506001601360003373ffffffffffffffffffffffffffffffffffffffff1673ffffffffffffffffffffffffffffffffffffffff16815260200190815260200160002060006101000a81548160ff021916908315150217905550505050565b6060600060025467ffffffffffffffff8111156142835761428261602e565b5b6040519080825280602002602001820160405280156142bc57816020015b6142a9615e8d565b8152602001906001900390816142a15790505b50905060005b6002548110156145bf576000600860008381526020019081526020016000209050806040518060a00160405290816000820160009054906101000a900473ffffffffffffffffffffffffffffffffffffffff1673ffffffffffffffffffffffffffffffffffffffff1673ffffffffffffffffffffffffffffffffffffffff1681526020016001820180546143559061728b565b80601f01602080910402602001604051908101604052809291908181526020018280546143819061728b565b80156143ce5780601f106143a3576101008083540402835291602001916143ce565b820191906000526020600020905b8154815290600101906020018083116143b157829003601f168201915b505050505081526020016002820180546143e79061728b565b80601f01602080910402602001604051908101604052809291908181526020018280546144139061728b565b80156144605780601f1061443557610100808354040283529160200191614460565b820191906000526020600020905b81548152906001019060200180831161444357829003601f168201915b505050505081526020016003820180546144799061728b565b80601f01602080910402602001604051908101604052809291908181526020018280546144a59061728b565b80156144f25780601f106144c7576101008083540402835291602001916144f2565b820191906000526020600020905b8154815290600101906020018083116144d557829003601f168201915b5050505050815260200160048201805461450b9061728b565b80601f01602080910402602001604051908101604052809291908181526020018280546145379061728b565b80156145845780601f1061455957610100808354040283529160200191614584565b820191906000526020600020905b81548152906001019060200180831161456757829003601f168201915b5050505050815250508383815181106145a05761459f61756e565b5b60200260200101819052505080806145b790617214565b9150506142c2565b508091505090565b6060600115156145d784846136bf565b151514614619576040517f08c379a000000000000000000000000000000000000000000000000000000000815260040161461090617683565b60405180910390fd5b600080600090505b6003548110156146b7578473ffffffffffffffffffffffffffffffffffffffff166009600083815260200190815260200160002060000160009054906101000a900473ffffffffffffffffffffffffffffffffffffffff1673ffffffffffffffffffffffffffffffffffffffff16036146a4576001826146a1919061759d565b91505b80806146af90617214565b915050614621565b5060008167ffffffffffffffff8111156146d4576146d361602e565b5b60405190808252806020026020018201604052801561470d57816020015b6146fa615e24565b8152602001906001900390816146f25790505b50905060005b600354811015614b77578573ffffffffffffffffffffffffffffffffffffffff166009600083815260200190815260200160002060000160009054906101000a900473ffffffffffffffffffffffffffffffffffffffff1673ffffffffffffffffffffffffffffffffffffffff1603614b645760008190506000600960008381526020019081526020016000209050806040518060e00160405290816000820160009054906101000a900473ffffffffffffffffffffffffffffffffffffffff1673ffffffffffffffffffffffffffffffffffffffff1673ffffffffffffffffffffffffffffffffffffffff1681526020016001820160009054906101000a900473ffffffffffffffffffffffffffffffffffffffff1673ffffffffffffffffffffffffffffffffffffffff1673ffffffffffffffffffffffffffffffffffffffff16815260200160028201805461486a9061728b565b80601f01602080910402602001604051908101604052809291908181526020018280546148969061728b565b80156148e35780601f106148b8576101008083540402835291602001916148e3565b820191906000526020600020905b8154815290600101906020018083116148c657829003601f168201915b505050505081526020016003820180546148fc9061728b565b80601f01602080910402602001604051908101604052809291908181526020018280546149289061728b565b80156149755780601f1061494a57610100808354040283529160200191614975565b820191906000526020600020905b81548152906001019060200180831161495857829003601f168201915b5050505050815260200160048201805461498e9061728b565b80601f01602080910402602001604051908101604052809291908181526020018280546149ba9061728b565b8015614a075780601f106149dc57610100808354040283529160200191614a07565b820191906000526020600020905b8154815290600101906020018083116149ea57829003601f168201915b50505050508152602001600582018054614a209061728b565b80601f0160208091040260200160405190810160405280929190818152602001828054614a4c9061728b565b8015614a995780601f10614a6e57610100808354040283529160200191614a99565b820191906000526020600020905b815481529060010190602001808311614a7c57829003601f168201915b50505050508152602001600682018054614ab29061728b565b80601f0160208091040260200160405190810160405280929190818152602001828054614ade9061728b565b8015614b2b5780601f10614b0057610100808354040283529160200191614b2b565b820191906000526020600020905b815481529060010190602001808311614b0e57829003601f168201915b505050505081525050848381518110614b4757614b4661756e565b5b6020026020010181905250600182614b5f919061759d565b915050505b8080614b6f90617214565b915050614713565b50809250505092915050565b614b8b615f63565b600b6000601060008573ffffffffffffffffffffffffffffffffffffffff1673ffffffffffffffffffffffffffffffffffffffff1681526020019081526020016000205481526020019081526020016000206040518060800160405290816000820160009054906101000a900473ffffffffffffffffffffffffffffffffffffffff1673ffffffffffffffffffffffffffffffffffffffff1673ffffffffffffffffffffffffffffffffffffffff168152602001600182018054614c4e9061728b565b80601f0160208091040260200160405190810160405280929190818152602001828054614c7a9061728b565b8015614cc75780601f10614c9c57610100808354040283529160200191614cc7565b820191906000526020600020905b815481529060010190602001808311614caa57829003601f168201915b50505050508152602001600282018054614ce09061728b565b80601f0160208091040260200160405190810160405280929190818152602001828054614d0c9061728b565b8015614d595780601f10614d2e57610100808354040283529160200191614d59565b820191906000526020600020905b815481529060010190602001808311614d3c57829003601f168201915b50505050508152602001600382018054614d729061728b565b80601f0160208091040260200160405190810160405280929190818152602001828054614d9e9061728b565b8015614deb5780601f10614dc057610100808354040283529160200191614deb565b820191906000526020600020905b815481529060010190602001808311614dce57829003601f168201915b5050505050815250509050919050565b6060600080600090505b600154811015614ea15760005b6016600083815260200190815260200160002080549050811015614e8d5784601660008481526020019081526020016000208281548110614e5657614e5561756e565b5b906000526020600020015403614e7a57600183614e73919061759d565b9250614e8d565b8080614e8590617214565b915050614e12565b508080614e9990617214565b915050614e05565b5060008167ffffffffffffffff811115614ebe57614ebd61602e565b5b604051908082528060200260200182016040528015614ef757816020015b614ee4615f10565b815260200190600190039081614edc5790505b5090506000915060005b6001548110156153195760005b60166000838152602001908152602001600020805490508110156153055785601660008481526020019081526020016000208281548110614f5257614f5161756e565b5b9060005260206000200154036152f2576000600760008481526020019081526020016000209050806040518060e00160405290816000820160009054906101000a900473ffffffffffffffffffffffffffffffffffffffff1673ffffffffffffffffffffffffffffffffffffffff1673ffffffffffffffffffffffffffffffffffffffff168152602001600182018054614feb9061728b565b80601f01602080910402602001604051908101604052809291908181526020018280546150179061728b565b80156150645780601f1061503957610100808354040283529160200191615064565b820191906000526020600020905b81548152906001019060200180831161504757829003601f168201915b5050505050815260200160028201805461507d9061728b565b80601f01602080910402602001604051908101604052809291908181526020018280546150a99061728b565b80156150f65780601f106150cb576101008083540402835291602001916150f6565b820191906000526020600020905b8154815290600101906020018083116150d957829003601f168201915b5050505050815260200160038201805461510f9061728b565b80601f016020809104026020016040519081016040528092919081815260200182805461513b9061728b565b80156151885780601f1061515d57610100808354040283529160200191615188565b820191906000526020600020905b81548152906001019060200180831161516b57829003601f168201915b505050505081526020016004820180546151a19061728b565b80601f01602080910402602001604051908101604052809291908181526020018280546151cd9061728b565b801561521a5780601f106151ef5761010080835404028352916020019161521a565b820191906000526020600020905b8154815290600101906020018083116151fd57829003601f168201915b505050505081526020016005820154815260200160068201805461523d9061728b565b80601f01602080910402602001604051908101604052809291908181526020018280546152699061728b565b80156152b65780601f1061528b576101008083540402835291602001916152b6565b820191906000526020600020905b81548152906001019060200180831161529957829003601f168201915b5050505050815250508486815181106152d2576152d161756e565b5b60200260200101819052506001856152ea919061759d565b945050615305565b80806152fd90617214565b915050614f0e565b50808061531190617214565b915050614f01565b508092505050919050565b6000600e60008373ffffffffffffffffffffffffffffffffffffffff1673ffffffffffffffffffffffffffffffffffffffff1681526020019081526020016000205490506000600d60003373ffffffffffffffffffffffffffffffffffffffff1673ffffffffffffffffffffffffffffffffffffffff16815260200190815260200160002054905060005b60156000838152602001908152602001600020805490508110156154d557826015600084815260200190815260200160002082815481106153f3576153f261756e565b5b9060005260206000200154036154c2576015600083815260200190815260200160002060016015600085815260200190815260200160002080549050615439919061753a565b8154811061544a5761544961756e565b5b906000526020600020015460156000848152602001908152602001600020828154811061547a5761547961756e565b5b9060005260206000200181905550601560008381526020019081526020016000208054806154ab576154aa6175d1565b5b600190038181906000526020600020016000905590555b80806154cd90617214565b9150506153af565b50505050565b600080600d60008573ffffffffffffffffffffffffffffffffffffffff1673ffffffffffffffffffffffffffffffffffffffff1681526020019081526020016000205490506000601060008573ffffffffffffffffffffffffffffffffffffffff1673ffffffffffffffffffffffffffffffffffffffff16815260200190815260200160002054905060005b60176000848152602001908152602001600020805490508110156155da57816017600085815260200190815260200160002082815481106155ab576155aa61756e565b5b9060005260206000200154036155c757600193505050506155e2565b80806155d290617214565b915050615567565b506000925050505b92915050565b6060600080600090505b600354811015615688573373ffffffffffffffffffffffffffffffffffffffff166009600083815260200190815260200160002060000160009054906101000a900473ffffffffffffffffffffffffffffffffffffffff1673ffffffffffffffffffffffffffffffffffffffff160361567557600182615672919061759d565b91505b808061568090617214565b9150506155f2565b5061569281615d07565b61569d600354615d07565b60008167ffffffffffffffff8111156156b9576156b861602e565b5b6040519080825280602002602001820160405280156156f257816020015b6156df615e24565b8152602001906001900390816156d75790505b50905060005b600354811015615b5c573373ffffffffffffffffffffffffffffffffffffffff166009600083815260200190815260200160002060000160009054906101000a900473ffffffffffffffffffffffffffffffffffffffff1673ffffffffffffffffffffffffffffffffffffffff1603615b495760008190506000600960008381526020019081526020016000209050806040518060e00160405290816000820160009054906101000a900473ffffffffffffffffffffffffffffffffffffffff1673ffffffffffffffffffffffffffffffffffffffff1673ffffffffffffffffffffffffffffffffffffffff1681526020016001820160009054906101000a900473ffffffffffffffffffffffffffffffffffffffff1673ffffffffffffffffffffffffffffffffffffffff1673ffffffffffffffffffffffffffffffffffffffff16815260200160028201805461584f9061728b565b80601f016020809104026020016040519081016040528092919081815260200182805461587b9061728b565b80156158c85780601f1061589d576101008083540402835291602001916158c8565b820191906000526020600020905b8154815290600101906020018083116158ab57829003601f168201915b505050505081526020016003820180546158e19061728b565b80601f016020809104026020016040519081016040528092919081815260200182805461590d9061728b565b801561595a5780601f1061592f5761010080835404028352916020019161595a565b820191906000526020600020905b81548152906001019060200180831161593d57829003601f168201915b505050505081526020016004820180546159739061728b565b80601f016020809104026020016040519081016040528092919081815260200182805461599f9061728b565b80156159ec5780601f106159c1576101008083540402835291602001916159ec565b820191906000526020600020905b8154815290600101906020018083116159cf57829003601f168201915b50505050508152602001600582018054615a059061728b565b80601f0160208091040260200160405190810160405280929190818152602001828054615a319061728b565b8015615a7e5780601f10615a5357610100808354040283529160200191615a7e565b820191906000526020600020905b815481529060010190602001808311615a6157829003601f168201915b50505050508152602001600682018054615a979061728b565b80601f0160208091040260200160405190810160405280929190818152602001828054615ac39061728b565b8015615b105780601f10615ae557610100808354040283529160200191615b10565b820191906000526020600020905b815481529060010190602001808311615af357829003601f168201915b505050505081525050848381518110615b2c57615b2b61756e565b5b6020026020010181905250600182615b44919061759d565b915050505b8080615b5490617214565b9150506156f8565b50809250505090565b6000655af3107a400082615b7991906176a3565b9050348114615bbd576040517f08c379a0000000000000000000000000000000000000000000000000000000008152600401615bb490617731565b60405180910390fd5b60405180610100016040528060065481526020013373ffffffffffffffffffffffffffffffffffffffff1681526020018781526020018681526020018581526020018481526020018381526020016000815250600c600060065481526020019081526020016000206000820151816000015560208201518160010160006101000a81548173ffffffffffffffffffffffffffffffffffffffff021916908373ffffffffffffffffffffffffffffffffffffffff1602179055506040820151816002019081615c8b9190617468565b506060820151816003019081615ca19190617468565b506080820151816004019081615cb79190617468565b5060a0820151816005019081615ccd9190617468565b5060c0820151816006015560e08201518160070155905050600160066000828254615cf8919061759d565b92505081905550505050505050565b615d9d81604051602401615d1b919061628b565b6040516020818303038152906040527ff82c50f1000000000000000000000000000000000000000000000000000000007bffffffffffffffffffffffffffffffffffffffffffffffffffffffff19166020820180517bffffffffffffffffffffffffffffffffffffffffffffffffffffffff8381831617835250505050615da0565b50565b60008151905060006a636f6e736f6c652e6c6f679050602083016000808483855afa5050505050565b60405180610100016040528060008152602001600073ffffffffffffffffffffffffffffffffffffffff1681526020016060815260200160608152602001606081526020016060815260200160008152602001600081525090565b6040518060e00160405280600073ffffffffffffffffffffffffffffffffffffffff168152602001600073ffffffffffffffffffffffffffffffffffffffff16815260200160608152602001606081526020016060815260200160608152602001606081525090565b6040518060a00160405280600073ffffffffffffffffffffffffffffffffffffffff168152602001606081526020016060815260200160608152602001606081525090565b6040518060800160405280600073ffffffffffffffffffffffffffffffffffffffff1681526020016060815260200160608152602001606081525090565b6040518060e00160405280600073ffffffffffffffffffffffffffffffffffffffff1681526020016060815260200160608152602001606081526020016060815260200160008152602001606081525090565b6040518060800160405280600073ffffffffffffffffffffffffffffffffffffffff1681526020016060815260200160608152602001606081525090565b6000604051905090565b600080fd5b600080fd5b600073ffffffffffffffffffffffffffffffffffffffff82169050919050565b6000615fe082615fb5565b9050919050565b615ff081615fd5565b8114615ffb57600080fd5b50565b60008135905061600d81615fe7565b92915050565b600080fd5b600080fd5b6000601f19601f8301169050919050565b7f4e487b7100000000000000000000000000000000000000000000000000000000600052604160045260246000fd5b6160668261601d565b810181811067ffffffffffffffff821117156160855761608461602e565b5b80604052505050565b6000616098615fa1565b90506160a4828261605d565b919050565b600067ffffffffffffffff8211156160c4576160c361602e565b5b6160cd8261601d565b9050602081019050919050565b82818337600083830152505050565b60006160fc6160f7846160a9565b61608e565b90508281526020810184848401111561611857616117616018565b5b6161238482856160da565b509392505050565b600082601f8301126161405761613f616013565b5b81356161508482602086016160e9565b91505092915050565b60008060008060008060c0878903121561617657616175615fab565b5b600061618489828a01615ffe565b965050602087013567ffffffffffffffff8111156161a5576161a4615fb0565b5b6161b189828a0161612b565b955050604087013567ffffffffffffffff8111156161d2576161d1615fb0565b5b6161de89828a0161612b565b945050606087013567ffffffffffffffff8111156161ff576161fe615fb0565b5b61620b89828a0161612b565b935050608087013567ffffffffffffffff81111561622c5761622b615fb0565b5b61623889828a0161612b565b92505060a087013567ffffffffffffffff81111561625957616258615fb0565b5b61626589828a0161612b565b9150509295509295509295565b6000819050919050565b61628581616272565b82525050565b60006020820190506162a0600083018461627c565b92915050565b6162af81616272565b81146162ba57600080fd5b50565b6000813590506162cc816162a6565b92915050565b60008060008060008060c087890312156162ef576162ee615fab565b5b600087013567ffffffffffffffff81111561630d5761630c615fb0565b5b61631989828a0161612b565b965050602087013567ffffffffffffffff81111561633a57616339615fb0565b5b61634689828a0161612b565b955050604087013567ffffffffffffffff81111561636757616366615fb0565b5b61637389828a0161612b565b945050606087013567ffffffffffffffff81111561639457616393615fb0565b5b6163a089828a0161612b565b93505060806163b189828a016162bd565b92505060a087013567ffffffffffffffff8111156163d2576163d1615fb0565b5b6163de89828a0161612b565b9150509295509295509295565b60006020828403121561640157616400615fab565b5b600061640f84828501615ffe565b91505092915050565b600081519050919050565b600082825260208201905092915050565b6000819050602082019050919050565b61644d81616272565b82525050565b61645c81615fd5565b82525050565b600081519050919050565b600082825260208201905092915050565b60005b8381101561649c578082015181840152602081019050616481565b60008484015250505050565b60006164b382616462565b6164bd818561646d565b93506164cd81856020860161647e565b6164d68161601d565b840191505092915050565b6000610100830160008301516164fa6000860182616444565b50602083015161650d6020860182616453565b506040830151848203604086015261652582826164a8565b9150506060830151848203606086015261653f82826164a8565b9150506080830151848203608086015261655982826164a8565b91505060a083015184820360a086015261657382826164a8565b91505060c083015161658860c0860182616444565b5060e083015161659b60e0860182616444565b508091505092915050565b60006165b283836164e1565b905092915050565b6000602082019050919050565b60006165d282616418565b6165dc8185616423565b9350836020820285016165ee85616434565b8060005b8581101561662a578484038952815161660b85826165a6565b9450616616836165ba565b925060208a019950506001810190506165f2565b50829750879550505050505092915050565b6000602082019050818103600083015261665681846165c7565b905092915050565b60008060006060848603121561667757616676615fab565b5b600084013567ffffffffffffffff81111561669557616694615fb0565b5b6166a18682870161612b565b935050602084013567ffffffffffffffff8111156166c2576166c1615fb0565b5b6166ce8682870161612b565b925050604084013567ffffffffffffffff8111156166ef576166ee615fb0565b5b6166fb8682870161612b565b9150509250925092565b600081519050919050565b600082825260208201905092915050565b6000819050602082019050919050565b600060e0830160008301516167496000860182616453565b50602083015161675c6020860182616453565b506040830151848203604086015261677482826164a8565b9150506060830151848203606086015261678e82826164a8565b915050608083015184820360808601526167a882826164a8565b91505060a083015184820360a08601526167c282826164a8565b91505060c083015184820360c08601526167dc82826164a8565b9150508091505092915050565b60006167f58383616731565b905092915050565b6000602082019050919050565b600061681582616705565b61681f8185616710565b93508360208202850161683185616721565b8060005b8581101561686d578484038952815161684e85826167e9565b9450616859836167fd565b925060208a01995050600181019050616835565b50829750879550505050505092915050565b60006020820190508181036000830152616899818461680a565b905092915050565b6000602082840312156168b7576168b6615fab565b5b60006168c5848285016162bd565b91505092915050565b6000610100830160008301516168e76000860182616444565b5060208301516168fa6020860182616453565b506040830151848203604086015261691282826164a8565b9150506060830151848203606086015261692c82826164a8565b9150506080830151848203608086015261694682826164a8565b91505060a083015184820360a086015261696082826164a8565b91505060c083015161697560c0860182616444565b5060e083015161698860e0860182616444565b508091505092915050565b600060208201905081810360008301526169ad81846168ce565b905092915050565b600080604083850312156169cc576169cb615fab565b5b60006169da85828601615ffe565b92505060206169eb85828601615ffe565b9150509250929050565b60008115159050919050565b616a0a816169f5565b82525050565b6000602082019050616a256000830184616a01565b92915050565b60008060008060808587031215616a4557616a44615fab565b5b600085013567ffffffffffffffff811115616a6357616a62615fb0565b5b616a6f8782880161612b565b945050602085013567ffffffffffffffff811115616a9057616a8f615fb0565b5b616a9c8782880161612b565b935050604085013567ffffffffffffffff811115616abd57616abc615fb0565b5b616ac98782880161612b565b925050606085013567ffffffffffffffff811115616aea57616ae9615fb0565b5b616af68782880161612b565b91505092959194509250565b600081519050919050565b600082825260208201905092915050565b6000819050602082019050919050565b600060a083016000830151616b466000860182616453565b5060208301518482036020860152616b5e82826164a8565b91505060408301518482036040860152616b7882826164a8565b91505060608301518482036060860152616b9282826164a8565b91505060808301518482036080860152616bac82826164a8565b9150508091505092915050565b6000616bc58383616b2e565b905092915050565b6000602082019050919050565b6000616be582616b02565b616bef8185616b0d565b935083602082028501616c0185616b1e565b8060005b85811015616c3d5784840389528151616c1e8582616bb9565b9450616c2983616bcd565b925060208a01995050600181019050616c05565b50829750879550505050505092915050565b60006020820190508181036000830152616c698184616bda565b905092915050565b60008060408385031215616c8857616c87615fab565b5b6000616c9685828601615ffe565b9250506020616ca7858286016162bd565b9150509250929050565b6000608083016000830151616cc96000860182616453565b5060208301518482036020860152616ce182826164a8565b91505060408301518482036040860152616cfb82826164a8565b91505060608301518482036060860152616d1582826164a8565b9150508091505092915050565b60006020820190508181036000830152616d3c8184616cb1565b905092915050565b600060e083016000830151616d5c6000860182616453565b5060208301518482036020860152616d7482826164a8565b91505060408301518482036040860152616d8e82826164a8565b91505060608301518482036060860152616da882826164a8565b91505060808301518482036080860152616dc282826164a8565b91505060a0830151616dd760a0860182616444565b5060c083015184820360c0860152616def82826164a8565b9150508091505092915050565b60006020820190508181036000830152616e168184616d44565b905092915050565b600060a083016000830151616e366000860182616453565b5060208301518482036020860152616e4e82826164a8565b91505060408301518482036040860152616e6882826164a8565b91505060608301518482036060860152616e8282826164a8565b91505060808301518482036080860152616e9c82826164a8565b9150508091505092915050565b60006020820190508181036000830152616ec38184616e1e565b905092915050565b6000608083016000830151616ee36000860182616453565b5060208301518482036020860152616efb82826164a8565b91505060408301518482036040860152616f1582826164a8565b91505060608301518482036060860152616f2f82826164a8565b9150508091505092915050565b60006020820190508181036000830152616f568184616ecb565b905092915050565b600081519050919050565b600082825260208201905092915050565b6000819050602082019050919050565b600060e083016000830151616fa26000860182616453565b5060208301518482036020860152616fba82826164a8565b91505060408301518482036040860152616fd482826164a8565b91505060608301518482036060860152616fee82826164a8565b9150506080830151848203608086015261700882826164a8565b91505060a083015161701d60a0860182616444565b5060c083015184820360c086015261703582826164a8565b9150508091505092915050565b600061704e8383616f8a565b905092915050565b6000602082019050919050565b600061706e82616f5e565b6170788185616f69565b93508360208202850161708a85616f7a565b8060005b858110156170c657848403895281516170a78582617042565b94506170b283617056565b925060208a0199505060018101905061708e565b50829750879550505050505092915050565b600060208201905081810360008301526170f28184617063565b905092915050565b600080600080600060a0868803121561711657617115615fab565b5b600086013567ffffffffffffffff81111561713457617133615fb0565b5b6171408882890161612b565b955050602086013567ffffffffffffffff81111561716157617160615fb0565b5b61716d8882890161612b565b945050604086013567ffffffffffffffff81111561718e5761718d615fb0565b5b61719a8882890161612b565b935050606086013567ffffffffffffffff8111156171bb576171ba615fb0565b5b6171c78882890161612b565b92505060806171d8888289016162bd565b9150509295509295909350565b7f4e487b7100000000000000000000000000000000000000000000000000000000600052601160045260246000fd5b600061721f82616272565b91507fffffffffffffffffffffffffffffffffffffffffffffffffffffffffffffffff8203617251576172506171e5565b5b600182019050919050565b7f4e487b7100000000000000000000000000000000000000000000000000000000600052602260045260246000fd5b600060028204905060018216806172a357607f821691505b6020821081036172b6576172b561725c565b5b50919050565b60008190508160005260206000209050919050565b60006020601f8301049050919050565b600082821b905092915050565b60006008830261731e7fffffffffffffffffffffffffffffffffffffffffffffffffffffffffffffffff826172e1565b61732886836172e1565b95508019841693508086168417925050509392505050565b6000819050919050565b600061736561736061735b84616272565b617340565b616272565b9050919050565b6000819050919050565b61737f8361734a565b61739361738b8261736c565b8484546172ee565b825550505050565b600090565b6173a861739b565b6173b3818484617376565b505050565b5b818110156173d7576173cc6000826173a0565b6001810190506173b9565b5050565b601f82111561741c576173ed816172bc565b6173f6846172d1565b81016020851015617405578190505b617419617411856172d1565b8301826173b8565b50505b505050565b600082821c905092915050565b600061743f60001984600802617421565b1980831691505092915050565b6000617458838361742e565b9150826002028217905092915050565b61747182616462565b67ffffffffffffffff81111561748a5761748961602e565b5b617494825461728b565b61749f8282856173db565b600060209050601f8311600181146174d257600084156174c0578287015190505b6174ca858261744c565b865550617532565b601f1984166174e0866172bc565b60005b82811015617508578489015182556001820191506020850194506020810190506174e3565b868310156175255784890151617521601f89168261742e565b8355505b6001600288020188555050505b505050505050565b600061754582616272565b915061755083616272565b9250828203905081811115617568576175676171e5565b5b92915050565b7f4e487b7100000000000000000000000000000000000000000000000000000000600052603260045260246000fd5b60006175a882616272565b91506175b383616272565b92508282019050808211156175cb576175ca6171e5565b5b92915050565b7f4e487b7100000000000000000000000000000000000000000000000000000000600052603160045260246000fd5b600082825260208201905092915050565b7f446f6573206e6f7420686173207468652061636365737320746f20666574636860008201527f2074686520646f63756d656e7473000000000000000000000000000000000000602082015250565b600061766d602e83617600565b915061767882617611565b604082019050919050565b6000602082019050818103600083015261769c81617660565b9050919050565b60006176ae82616272565b91506176b983616272565b92508282026176c781616272565b915082820484148315176176de576176dd6171e5565b5b5092915050565b7f506c656173652070726f76696465207265717569726564206574686572730000600082015250565b600061771b601e83617600565b9150617726826176e5565b602082019050919050565b6000602082019050818103600083015261774a8161770e565b905091905056fea2646970667358221220f971d7468fa9ff8f55f34d0654d94bbf1b78d6138a52afe7678a6c685c15f62864736f6c63430008110033",
  "linkReferences": {},
  "deployedLinkReferences": {}
}