{
  "_format": "hh-sol-artifact-1",
  "contractName": "EHR",
  "sourceName": "contracts/EHR.sol",
  "abi": [
    {
      "inputs": [],
      "stateMutability": "nonpayable",
      "type": "constructor"
    },
    {
      "inputs": [],
      "name": "checkRole",
      "outputs": [
        {
          "internalType": "uint256",
          "name": "",
          "type": "uint256"
        }
      ],
      "stateMutability": "view",
      "type": "function"
    },
    {
      "inputs": [
        {
          "internalType": "address",
          "name": "userAdd",
          "type": "address"
        },
        {
          "internalType": "string",
          "name": "docName",
          "type": "string"
        },
        {
          "internalType": "string",
          "name": "recordHash",
          "type": "string"
        },
        {
          "internalType": "string",
          "name": "recordName",
          "type": "string"
        },
        {
          "internalType": "string",
          "name": "issueDate",
          "type": "string"
        },
        {
          "internalType": "string",
          "name": "testSuggested",
          "type": "string"
        }
      ],
      "name": "createNewRecord",
      "outputs": [],
      "stateMutability": "nonpayable",
      "type": "function"
    },
    {
      "inputs": [
        {
          "internalType": "string",
          "name": "name",
          "type": "string"
        },
        {
          "internalType": "string",
          "name": "description",
          "type": "string"
        },
        {
          "internalType": "string",
          "name": "cid",
          "type": "string"
        },
        {
          "internalType": "string",
          "name": "cidName",
          "type": "string"
        },
        {
          "internalType": "uint256",
          "name": "usersRequired",
          "type": "uint256"
        }
      ],
      "name": "createNewResearch",
      "outputs": [],
      "stateMutability": "payable",
      "type": "function"
    },
    {
      "inputs": [],
      "name": "fetchAllHospitals",
      "outputs": [
        {
          "components": [
            {
              "internalType": "address",
              "name": "hosAdd",
              "type": "address"
            },
            {
              "internalType": "string",
              "name": "name",
              "type": "string"
            },
            {
              "internalType": "string",
              "name": "personalAdd",
              "type": "string"
            },
            {
              "internalType": "string",
              "name": "emailId",
              "type": "string"
            },
            {
              "internalType": "string",
              "name": "contactNo",
              "type": "string"
            }
          ],
          "internalType": "struct EHR.Hospital[]",
          "name": "",
          "type": "tuple[]"
        }
      ],
      "stateMutability": "view",
      "type": "function"
    },
    {
      "inputs": [],
      "name": "fetchAllResearchs",
      "outputs": [
        {
          "components": [
            {
              "internalType": "uint256",
              "name": "id",
              "type": "uint256"
            },
            {
              "internalType": "address",
              "name": "orgAdd",
              "type": "address"
            },
            {
              "internalType": "string",
              "name": "name",
              "type": "string"
            },
            {
              "internalType": "string",
              "name": "description",
              "type": "string"
            },
            {
              "internalType": "string",
              "name": "cid",
              "type": "string"
            },
            {
              "internalType": "string",
              "name": "cidName",
              "type": "string"
            },
            {
              "internalType": "uint256",
              "name": "usersRequired",
              "type": "uint256"
            },
            {
              "internalType": "uint256",
              "name": "currentUsers",
              "type": "uint256"
            }
          ],
          "internalType": "struct EHR.Research[]",
          "name": "",
          "type": "tuple[]"
        }
      ],
      "stateMutability": "view",
      "type": "function"
    },
    {
      "inputs": [
        {
          "internalType": "uint256",
          "name": "researchId",
          "type": "uint256"
        }
      ],
      "name": "fetchAllUsersForResearch",
      "outputs": [
        {
          "components": [
            {
              "internalType": "address",
              "name": "userAdd",
              "type": "address"
            },
            {
              "internalType": "string",
              "name": "name",
              "type": "string"
            },
            {
              "internalType": "string",
              "name": "personalAdd",
              "type": "string"
            },
            {
              "internalType": "string",
              "name": "emailId",
              "type": "string"
            },
            {
              "internalType": "string",
              "name": "mobileNo",
              "type": "string"
            },
            {
              "internalType": "uint256",
              "name": "gender",
              "type": "uint256"
            },
            {
              "internalType": "string",
              "name": "dob",
              "type": "string"
            }
          ],
          "internalType": "struct EHR.User[]",
          "name": "",
          "type": "tuple[]"
        }
      ],
      "stateMutability": "view",
      "type": "function"
    },
    {
      "inputs": [
        {
          "internalType": "address",
          "name": "hospitalAddress",
          "type": "address"
        }
      ],
      "name": "fetchHospitalByAddress",
      "outputs": [
        {
          "components": [
            {
              "internalType": "address",
              "name": "hosAdd",
              "type": "address"
            },
            {
              "internalType": "string",
              "name": "name",
              "type": "string"
            },
            {
              "internalType": "string",
              "name": "personalAdd",
              "type": "string"
            },
            {
              "internalType": "string",
              "name": "emailId",
              "type": "string"
            },
            {
              "internalType": "string",
              "name": "contactNo",
              "type": "string"
            }
          ],
          "internalType": "struct EHR.Hospital",
          "name": "",
          "type": "tuple"
        }
      ],
      "stateMutability": "view",
      "type": "function"
    },
    {
      "inputs": [
        {
          "internalType": "address",
          "name": "insuranceCompAddress",
          "type": "address"
        }
      ],
      "name": "fetchInsuranceCompByAddress",
      "outputs": [
        {
          "components": [
            {
              "internalType": "address",
              "name": "compAddr",
              "type": "address"
            },
            {
              "internalType": "string",
              "name": "name",
              "type": "string"
            },
            {
              "internalType": "string",
              "name": "emailId",
              "type": "string"
            },
            {
              "internalType": "string",
              "name": "contactNo",
              "type": "string"
            }
          ],
          "internalType": "struct EHR.InsuranceComp",
          "name": "",
          "type": "tuple"
        }
      ],
      "stateMutability": "view",
      "type": "function"
    },
    {
      "inputs": [],
      "name": "fetchMyDocuments",
      "outputs": [
        {
          "components": [
            {
              "internalType": "address",
              "name": "userAdd",
              "type": "address"
            },
            {
              "internalType": "address",
              "name": "hosAdd",
              "type": "address"
            },
            {
              "internalType": "string",
              "name": "docName",
              "type": "string"
            },
            {
              "internalType": "string",
              "name": "recordHash",
              "type": "string"
            },
            {
              "internalType": "string",
              "name": "recordName",
              "type": "string"
            },
            {
              "internalType": "string",
              "name": "issueDate",
              "type": "string"
            },
            {
              "internalType": "string",
              "name": "testSuggested",
              "type": "string"
            }
          ],
          "internalType": "struct EHR.Record[]",
          "name": "",
          "type": "tuple[]"
        }
      ],
      "stateMutability": "view",
      "type": "function"
    },
    {
      "inputs": [],
      "name": "fetchMyHospitalAccessList",
      "outputs": [
        {
          "components": [
            {
              "internalType": "address",
              "name": "hosAdd",
              "type": "address"
            },
            {
              "internalType": "string",
              "name": "name",
              "type": "string"
            },
            {
              "internalType": "string",
              "name": "personalAdd",
              "type": "string"
            },
            {
              "internalType": "string",
              "name": "emailId",
              "type": "string"
            },
            {
              "internalType": "string",
              "name": "contactNo",
              "type": "string"
            }
          ],
          "internalType": "struct EHR.Hospital[]",
          "name": "",
          "type": "tuple[]"
        }
      ],
      "stateMutability": "view",
      "type": "function"
    },
    {
      "inputs": [],
      "name": "fetchMyResearchAccessList",
      "outputs": [
        {
          "components": [
            {
              "internalType": "uint256",
              "name": "id",
              "type": "uint256"
            },
            {
              "internalType": "address",
              "name": "orgAdd",
              "type": "address"
            },
            {
              "internalType": "string",
              "name": "name",
              "type": "string"
            },
            {
              "internalType": "string",
              "name": "description",
              "type": "string"
            },
            {
              "internalType": "string",
              "name": "cid",
              "type": "string"
            },
            {
              "internalType": "string",
              "name": "cidName",
              "type": "string"
            },
            {
              "internalType": "uint256",
              "name": "usersRequired",
              "type": "uint256"
            },
            {
              "internalType": "uint256",
              "name": "currentUsers",
              "type": "uint256"
            }
          ],
          "internalType": "struct EHR.Research[]",
          "name": "",
          "type": "tuple[]"
        }
      ],
      "stateMutability": "view",
      "type": "function"
    },
    {
      "inputs": [],
      "name": "fetchMyResearchs",
      "outputs": [
        {
          "components": [
            {
              "internalType": "uint256",
              "name": "id",
              "type": "uint256"
            },
            {
              "internalType": "address",
              "name": "orgAdd",
              "type": "address"
            },
            {
              "internalType": "string",
              "name": "name",
              "type": "string"
            },
            {
              "internalType": "string",
              "name": "description",
              "type": "string"
            },
            {
              "internalType": "string",
              "name": "cid",
              "type": "string"
            },
            {
              "internalType": "string",
              "name": "cidName",
              "type": "string"
            },
            {
              "internalType": "uint256",
              "name": "usersRequired",
              "type": "uint256"
            },
            {
              "internalType": "uint256",
              "name": "currentUsers",
              "type": "uint256"
            }
          ],
          "internalType": "struct EHR.Research[]",
          "name": "",
          "type": "tuple[]"
        }
      ],
      "stateMutability": "view",
      "type": "function"
    },
    {
      "inputs": [
        {
          "internalType": "address",
          "name": "orgAddress",
          "type": "address"
        }
      ],
      "name": "fetchOrganizationByAddress",
      "outputs": [
        {
          "components": [
            {
              "internalType": "address",
              "name": "orgAdd",
              "type": "address"
            },
            {
              "internalType": "string",
              "name": "name",
              "type": "string"
            },
            {
              "internalType": "string",
              "name": "emailId",
              "type": "string"
            },
            {
              "internalType": "string",
              "name": "contactNo",
              "type": "string"
            }
          ],
          "internalType": "struct EHR.ResearchOrg",
          "name": "",
          "type": "tuple"
        }
      ],
      "stateMutability": "view",
      "type": "function"
    },
    {
      "inputs": [
        {
          "internalType": "uint256",
          "name": "id",
          "type": "uint256"
        }
      ],
      "name": "fetchResearchById",
      "outputs": [
        {
          "components": [
            {
              "internalType": "uint256",
              "name": "id",
              "type": "uint256"
            },
            {
              "internalType": "address",
              "name": "orgAdd",
              "type": "address"
            },
            {
              "internalType": "string",
              "name": "name",
              "type": "string"
            },
            {
              "internalType": "string",
              "name": "description",
              "type": "string"
            },
            {
              "internalType": "string",
              "name": "cid",
              "type": "string"
            },
            {
              "internalType": "string",
              "name": "cidName",
              "type": "string"
            },
            {
              "internalType": "uint256",
              "name": "usersRequired",
              "type": "uint256"
            },
            {
              "internalType": "uint256",
              "name": "currentUsers",
              "type": "uint256"
            }
          ],
          "internalType": "struct EHR.Research",
          "name": "",
          "type": "tuple"
        }
      ],
      "stateMutability": "view",
      "type": "function"
    },
    {
      "inputs": [
        {
          "internalType": "address",
          "name": "userAddress",
          "type": "address"
        }
      ],
      "name": "fetchUserByAddress",
      "outputs": [
        {
          "components": [
            {
              "internalType": "address",
              "name": "userAdd",
              "type": "address"
            },
            {
              "internalType": "string",
              "name": "name",
              "type": "string"
            },
            {
              "internalType": "string",
              "name": "personalAdd",
              "type": "string"
            },
            {
              "internalType": "string",
              "name": "emailId",
              "type": "string"
            },
            {
              "internalType": "string",
              "name": "mobileNo",
              "type": "string"
            },
            {
              "internalType": "uint256",
              "name": "gender",
              "type": "uint256"
            },
            {
              "internalType": "string",
              "name": "dob",
              "type": "string"
            }
          ],
          "internalType": "struct EHR.User",
          "name": "",
          "type": "tuple"
        }
      ],
      "stateMutability": "view",
      "type": "function"
    },
    {
      "inputs": [
        {
          "internalType": "address",
          "name": "userAddress",
          "type": "address"
        }
      ],
      "name": "fetchUserDocumentsForHospital",
      "outputs": [
        {
          "components": [
            {
              "internalType": "address",
              "name": "userAdd",
              "type": "address"
            },
            {
              "internalType": "address",
              "name": "hosAdd",
              "type": "address"
            },
            {
              "internalType": "string",
              "name": "docName",
              "type": "string"
            },
            {
              "internalType": "string",
              "name": "recordHash",
              "type": "string"
            },
            {
              "internalType": "string",
              "name": "recordName",
              "type": "string"
            },
            {
              "internalType": "string",
              "name": "issueDate",
              "type": "string"
            },
            {
              "internalType": "string",
              "name": "testSuggested",
              "type": "string"
            }
          ],
          "internalType": "struct EHR.Record[]",
          "name": "",
          "type": "tuple[]"
        }
      ],
      "stateMutability": "view",
      "type": "function"
    },
    {
      "inputs": [
        {
          "internalType": "address",
          "name": "userAddress",
          "type": "address"
        },
        {
          "internalType": "uint256",
          "name": "researchId",
          "type": "uint256"
        }
      ],
      "name": "fetchUserDocumentsForResearch",
      "outputs": [
        {
          "components": [
            {
              "internalType": "address",
              "name": "userAdd",
              "type": "address"
            },
            {
              "internalType": "address",
              "name": "hosAdd",
              "type": "address"
            },
            {
              "internalType": "string",
              "name": "docName",
              "type": "string"
            },
            {
              "internalType": "string",
              "name": "recordHash",
              "type": "string"
            },
            {
              "internalType": "string",
              "name": "recordName",
              "type": "string"
            },
            {
              "internalType": "string",
              "name": "issueDate",
              "type": "string"
            },
            {
              "internalType": "string",
              "name": "testSuggested",
              "type": "string"
            }
          ],
          "internalType": "struct EHR.Record[]",
          "name": "",
          "type": "tuple[]"
        }
      ],
      "stateMutability": "view",
      "type": "function"
    },
    {
      "inputs": [],
      "name": "getAllHospitalRecords",
      "outputs": [
        {
          "components": [
            {
              "internalType": "address",
              "name": "userAdd",
              "type": "address"
            },
            {
              "internalType": "address",
              "name": "hosAdd",
              "type": "address"
            },
            {
              "internalType": "string",
              "name": "docName",
              "type": "string"
            },
            {
              "internalType": "string",
              "name": "recordHash",
              "type": "string"
            },
            {
              "internalType": "string",
              "name": "recordName",
              "type": "string"
            },
            {
              "internalType": "string",
              "name": "issueDate",
              "type": "string"
            },
            {
              "internalType": "string",
              "name": "testSuggested",
              "type": "string"
            }
          ],
          "internalType": "struct EHR.Record[]",
          "name": "",
          "type": "tuple[]"
        }
      ],
      "stateMutability": "view",
      "type": "function"
    },
    {
      "inputs": [
        {
          "internalType": "address",
          "name": "hospitalAddress",
          "type": "address"
        }
      ],
      "name": "grantAccessToHospital",
      "outputs": [],
      "stateMutability": "nonpayable",
      "type": "function"
    },
    {
      "inputs": [
        {
          "internalType": "address",
          "name": "insuranceCompAddress",
          "type": "address"
        }
      ],
      "name": "grantAccessToInsuranceComp",
      "outputs": [],
      "stateMutability": "payable",
      "type": "function"
    },
    {
      "inputs": [
        {
          "internalType": "uint256",
          "name": "researchId",
          "type": "uint256"
        }
      ],
      "name": "grantAccessToResearch",
      "outputs": [],
      "stateMutability": "payable",
      "type": "function"
    },
    {
      "inputs": [
        {
          "internalType": "address",
          "name": "userAddress",
          "type": "address"
        },
        {
          "internalType": "address",
          "name": "hospitalAddress",
          "type": "address"
        }
      ],
      "name": "hasUserRecordAccessForHospital",
      "outputs": [
        {
          "internalType": "bool",
          "name": "",
          "type": "bool"
        }
      ],
      "stateMutability": "view",
      "type": "function"
    },
    {
      "inputs": [
        {
          "internalType": "address",
          "name": "userAddress",
          "type": "address"
        },
        {
          "internalType": "address",
          "name": "insuranceCompAddress",
          "type": "address"
        }
      ],
      "name": "hasUserRecordAccessForInsuranceComp",
      "outputs": [
        {
          "internalType": "bool",
          "name": "",
          "type": "bool"
        }
      ],
      "stateMutability": "view",
      "type": "function"
    },
    {
      "inputs": [
        {
          "internalType": "address",
          "name": "userAddress",
          "type": "address"
        },
        {
          "internalType": "uint256",
          "name": "researchId",
          "type": "uint256"
        }
      ],
      "name": "hasUserRecordAccessForResearch",
      "outputs": [
        {
          "internalType": "bool",
          "name": "",
          "type": "bool"
        }
      ],
      "stateMutability": "view",
      "type": "function"
    },
    {
      "inputs": [
        {
          "internalType": "string",
          "name": "name",
          "type": "string"
        },
        {
          "internalType": "string",
          "name": "personalAdd",
          "type": "string"
        },
        {
          "internalType": "string",
          "name": "emailId",
          "type": "string"
        },
        {
          "internalType": "string",
          "name": "mobileNo",
          "type": "string"
        }
      ],
      "name": "registerHospital",
      "outputs": [],
      "stateMutability": "nonpayable",
      "type": "function"
    },
    {
      "inputs": [
        {
          "internalType": "string",
          "name": "name",
          "type": "string"
        },
        {
          "internalType": "string",
          "name": "emailId",
          "type": "string"
        },
        {
          "internalType": "string",
          "name": "mobileNo",
          "type": "string"
        }
      ],
      "name": "registerInsuranceComp",
      "outputs": [],
      "stateMutability": "nonpayable",
      "type": "function"
    },
    {
      "inputs": [
        {
          "internalType": "string",
          "name": "name",
          "type": "string"
        },
        {
          "internalType": "string",
          "name": "emailId",
          "type": "string"
        },
        {
          "internalType": "string",
          "name": "mobileNo",
          "type": "string"
        }
      ],
      "name": "registerResearchOrg",
      "outputs": [],
      "stateMutability": "nonpayable",
      "type": "function"
    },
    {
      "inputs": [
        {
          "internalType": "string",
          "name": "name",
          "type": "string"
        },
        {
          "internalType": "string",
          "name": "personalAdd",
          "type": "string"
        },
        {
          "internalType": "string",
          "name": "emailId",
          "type": "string"
        },
        {
          "internalType": "string",
          "name": "mobileNo",
          "type": "string"
        },
        {
          "internalType": "uint256",
          "name": "gender",
          "type": "uint256"
        },
        {
          "internalType": "string",
          "name": "dob",
          "type": "string"
        }
      ],
      "name": "registerUser",
      "outputs": [],
      "stateMutability": "nonpayable",
      "type": "function"
    },
    {
      "inputs": [
        {
          "internalType": "address",
          "name": "hospitalAddress",
          "type": "address"
        }
      ],
      "name": "removeAccessFromHospital",
      "outputs": [],
      "stateMutability": "nonpayable",
      "type": "function"
    },
    {
      "inputs": [
        {
          "internalType": "address",
          "name": "insuranceCompAddress",
          "type": "address"
        }
      ],
      "name": "removeAccessFromInsuranceComp",
      "outputs": [],
      "stateMutability": "nonpayable",
      "type": "function"
    },
    {
      "inputs": [
        {
          "internalType": "uint256",
          "name": "researchId",
          "type": "uint256"
        }
      ],
      "name": "removeAccessFromResearch",
      "outputs": [],
      "stateMutability": "payable",
      "type": "function"
    }
  ],
  "bytecode": "0x608060405234801561001057600080fd5b50336000806101000a81548173ffffffffffffffffffffffffffffffffffffffff021916908373ffffffffffffffffffffffffffffffffffffffff16021790555061776d80620000616000396000f3fe6080604052600436106101d85760003560e01c8063849326f211610102578063baa719dc11610095578063edf9e00a11610064578063edf9e00a146106df578063f8f625e914610708578063f95ad8fd14610745578063fd265a2514610770576101d8565b8063baa719dc146105fd578063c444411d14610628578063c925075314610665578063da8da731146106a2576101d8565b80639ea271d5116100d15780639ea271d51461051d5780639f900a181461055a578063b415317614610597578063b6280060146105d4576101d8565b8063849326f21461044f5780638add45791461048c5780638aeab380146104b55780639d27643b146104e0576101d8565b8063272620b91161017a5780634c828df8116101495780634c828df8146103a25780634df6f28d146103df57806354053ea814610408578063684217a614610433576101d8565b8063272620b9146102f55780633c51fad51461033257806341bd117c1461035d5780634630d73b14610379576101d8565b806318779cb4116101b657806318779cb41461025a5780631be8530e14610276578063223a6d34146102a1578063245e7f95146102ca576101d8565b806302539bd8146101dd5780630482aa8214610206578063166fb61814610231575b600080fd5b3480156101e957600080fd5b5061020460048036038101906101ff919061613f565b61078c565b005b34801561021257600080fd5b5061021b61091b565b6040516102289190616271565b60405180910390f35b34801561023d57600080fd5b50610258600480360381019061025391906162b8565b610aa9565b005b610274600480360381019061026f91906163d1565b610c8e565b005b34801561028257600080fd5b5061028b610dc9565b6040516102989190616622565b60405180910390f35b3480156102ad57600080fd5b506102c860048036038101906102c39190616644565b611267565b005b3480156102d657600080fd5b506102df611402565b6040516102ec9190616865565b60405180910390f35b34801561030157600080fd5b5061031c60048036038101906103179190616887565b61196b565b6040516103299190616979565b60405180910390f35b34801561033e57600080fd5b50610347611c55565b6040516103549190616622565b60405180910390f35b61037760048036038101906103729190616887565b611fd8565b005b34801561038557600080fd5b506103a0600480360381019061039b91906163d1565b61217c565b005b3480156103ae57600080fd5b506103c960048036038101906103c4919061699b565b6122b7565b6040516103d691906169f6565b60405180910390f35b3480156103eb57600080fd5b5061040660048036038101906104019190616a11565b6123c4565b005b34801561041457600080fd5b5061041d61257c565b60405161042a9190616622565b60405180910390f35b61044d60048036038101906104489190616887565b61299b565b005b34801561045b57600080fd5b50610476600480360381019061047191906163d1565b612b4d565b6040516104839190616865565b60405180910390f35b34801561049857600080fd5b506104b360048036038101906104ae91906163d1565b613108565b005b3480156104c157600080fd5b506104ca6132bf565b6040516104d79190616c35565b60405180910390f35b3480156104ec57600080fd5b5061050760048036038101906105029190616c57565b6136bf565b60405161051491906169f6565b60405180910390f35b34801561052957600080fd5b50610544600480360381019061053f91906163d1565b613786565b6040516105519190616d08565b60405180910390f35b34801561056657600080fd5b50610581600480360381019061057c91906163d1565b6139fe565b60405161058e9190616de2565b60405180910390f35b3480156105a357600080fd5b506105be60048036038101906105b991906163d1565b613da4565b6040516105cb9190616e8f565b60405180910390f35b3480156105e057600080fd5b506105fb60048036038101906105f69190616644565b6140ae565b005b34801561060957600080fd5b50610612614249565b60405161061f9190616c35565b60405180910390f35b34801561063457600080fd5b5061064f600480360381019061064a9190616c57565b6145ad565b60405161065c9190616865565b60405180910390f35b34801561067157600080fd5b5061068c600480360381019061068791906163d1565b614b69565b6040516106999190616f22565b60405180910390f35b3480156106ae57600080fd5b506106c960048036038101906106c49190616887565b614de1565b6040516106d691906170be565b60405180910390f35b3480156106eb57600080fd5b50610706600480360381019061070191906163d1565b61530a565b005b34801561071457600080fd5b5061072f600480360381019061072a919061699b565b6154c1565b60405161073c91906169f6565b60405180910390f35b34801561075157600080fd5b5061075a6155ce565b6040516107679190616865565b60405180910390f35b61078a600480360381019061078591906170e0565b615b4b565b005b6040518060e001604052808773ffffffffffffffffffffffffffffffffffffffff1681526020013373ffffffffffffffffffffffffffffffffffffffff168152602001868152602001858152602001848152602001838152602001828152506009600060036000815480929190610802906171fa565b91905055815260200190815260200160002060008201518160000160006101000a81548173ffffffffffffffffffffffffffffffffffffffff021916908373ffffffffffffffffffffffffffffffffffffffff16021790555060208201518160010160006101000a81548173ffffffffffffffffffffffffffffffffffffffff021916908373ffffffffffffffffffffffffffffffffffffffff16021790555060408201518160020190816108b7919061744e565b5060608201518160030190816108cd919061744e565b5060808201518160040190816108e3919061744e565b5060a08201518160050190816108f9919061744e565b5060c082015181600601908161090f919061744e565b50905050505050505050565b600060011515601160003373ffffffffffffffffffffffffffffffffffffffff1673ffffffffffffffffffffffffffffffffffffffff16815260200190815260200160002060009054906101000a900460ff1615150361097e5760019050610aa6565b60011515601260003373ffffffffffffffffffffffffffffffffffffffff1673ffffffffffffffffffffffffffffffffffffffff16815260200190815260200160002060009054906101000a900460ff161515036109df5760029050610aa6565b60011515601360003373ffffffffffffffffffffffffffffffffffffffff1673ffffffffffffffffffffffffffffffffffffffff16815260200190815260200160002060009054906101000a900460ff16151503610a405760039050610aa6565b60011515601460003373ffffffffffffffffffffffffffffffffffffffff1673ffffffffffffffffffffffffffffffffffffffff16815260200190815260200160002060009054906101000a900460ff16151503610aa15760049050610aa6565b600090505b90565b6040518060e001604052803373ffffffffffffffffffffffffffffffffffffffff168152602001878152602001868152602001858152602001848152602001838152602001828152506007600060016000815480929190610b09906171fa565b91905055815260200190815260200160002060008201518160000160006101000a81548173ffffffffffffffffffffffffffffffffffffffff021916908373ffffffffffffffffffffffffffffffffffffffff1602179055506020820151816001019081610b77919061744e565b506040820151816002019081610b8d919061744e565b506060820151816003019081610ba3919061744e565b506080820151816004019081610bb9919061744e565b5060a0820151816005015560c0820151816006019081610bd9919061744e565b5090505060018054610beb9190617520565b600d60003373ffffffffffffffffffffffffffffffffffffffff1673ffffffffffffffffffffffffffffffffffffffff168152602001908152602001600020819055506001601160003373ffffffffffffffffffffffffffffffffffffffff1673ffffffffffffffffffffffffffffffffffffffff16815260200190815260200160002060006101000a81548160ff021916908315150217905550505050505050565b6000601060008373ffffffffffffffffffffffffffffffffffffffff1673ffffffffffffffffffffffffffffffffffffffff1681526020019081526020016000205490506000600d60003373ffffffffffffffffffffffffffffffffffffffff1673ffffffffffffffffffffffffffffffffffffffff16815260200190815260200160002054905060005b6017600083815260200190815260200160002080549050811015610d885782601760008481526020019081526020016000208281548110610d5d57610d5c617554565b5b906000526020600020015403610d7557505050610dc6565b8080610d80906171fa565b915050610d19565b506017600082815260200190815260200160002082908060018154018082558091505060019003906000526020600020016000909190919091505550505b50565b6060600080600090505b600654811015610e69573373ffffffffffffffffffffffffffffffffffffffff16600c600083815260200190815260200160002060010160009054906101000a900473ffffffffffffffffffffffffffffffffffffffff1673ffffffffffffffffffffffffffffffffffffffff1603610e5657600182610e539190617583565b91505b8080610e61906171fa565b915050610dd3565b5060008167ffffffffffffffff811115610e8657610e85616014565b5b604051908082528060200260200182016040528015610ebf57816020015b610eac615daf565b815260200190600190039081610ea45790505b5090506000915060005b60065481101561125e573373ffffffffffffffffffffffffffffffffffffffff16600c600083815260200190815260200160002060010160009054906101000a900473ffffffffffffffffffffffffffffffffffffffff1673ffffffffffffffffffffffffffffffffffffffff160361124b576000600c600083815260200190815260200160002090508060405180610100016040529081600082015481526020016001820160009054906101000a900473ffffffffffffffffffffffffffffffffffffffff1673ffffffffffffffffffffffffffffffffffffffff1673ffffffffffffffffffffffffffffffffffffffff168152602001600282018054610fd090617271565b80601f0160208091040260200160405190810160405280929190818152602001828054610ffc90617271565b80156110495780601f1061101e57610100808354040283529160200191611049565b820191906000526020600020905b81548152906001019060200180831161102c57829003601f168201915b5050505050815260200160038201805461106290617271565b80601f016020809104026020016040519081016040528092919081815260200182805461108e90617271565b80156110db5780601f106110b0576101008083540402835291602001916110db565b820191906000526020600020905b8154815290600101906020018083116110be57829003601f168201915b505050505081526020016004820180546110f490617271565b80601f016020809104026020016040519081016040528092919081815260200182805461112090617271565b801561116d5780601f106111425761010080835404028352916020019161116d565b820191906000526020600020905b81548152906001019060200180831161115057829003601f168201915b5050505050815260200160058201805461118690617271565b80601f01602080910402602001604051908101604052809291908181526020018280546111b290617271565b80156111ff5780601f106111d4576101008083540402835291602001916111ff565b820191906000526020600020905b8154815290600101906020018083116111e257829003601f168201915b505050505081526020016006820154815260200160078201548152505083858151811061122f5761122e617554565b5b60200260200101819052506001846112479190617583565b9350505b8080611256906171fa565b915050610ec9565b50809250505090565b60405180608001604052803373ffffffffffffffffffffffffffffffffffffffff16815260200184815260200183815260200182815250600a6000600460008154809291906112b5906171fa565b91905055815260200190815260200160002060008201518160000160006101000a81548173ffffffffffffffffffffffffffffffffffffffff021916908373ffffffffffffffffffffffffffffffffffffffff1602179055506020820151816001019081611323919061744e565b506040820151816002019081611339919061744e565b50606082015181600301908161134f919061744e565b5090505060016004546113629190617520565b600f60003373ffffffffffffffffffffffffffffffffffffffff1673ffffffffffffffffffffffffffffffffffffffff168152602001908152602001600020819055506001601360003373ffffffffffffffffffffffffffffffffffffffff1673ffffffffffffffffffffffffffffffffffffffff16815260200190815260200160002060006101000a81548160ff021916908315150217905550505050565b6060600080600090505b6003548110156114a2573373ffffffffffffffffffffffffffffffffffffffff166009600083815260200190815260200160002060010160009054906101000a900473ffffffffffffffffffffffffffffffffffffffff1673ffffffffffffffffffffffffffffffffffffffff160361148f5760018261148c9190617583565b91505b808061149a906171fa565b91505061140c565b5060008167ffffffffffffffff8111156114bf576114be616014565b5b6040519080825280602002602001820160405280156114f857816020015b6114e5615e0a565b8152602001906001900390816114dd5790505b50905060005b600354811015611962573373ffffffffffffffffffffffffffffffffffffffff166009600083815260200190815260200160002060010160009054906101000a900473ffffffffffffffffffffffffffffffffffffffff1673ffffffffffffffffffffffffffffffffffffffff160361194f5760008190506000600960008381526020019081526020016000209050806040518060e00160405290816000820160009054906101000a900473ffffffffffffffffffffffffffffffffffffffff1673ffffffffffffffffffffffffffffffffffffffff1673ffffffffffffffffffffffffffffffffffffffff1681526020016001820160009054906101000a900473ffffffffffffffffffffffffffffffffffffffff1673ffffffffffffffffffffffffffffffffffffffff1673ffffffffffffffffffffffffffffffffffffffff16815260200160028201805461165590617271565b80601f016020809104026020016040519081016040528092919081815260200182805461168190617271565b80156116ce5780601f106116a3576101008083540402835291602001916116ce565b820191906000526020600020905b8154815290600101906020018083116116b157829003601f168201915b505050505081526020016003820180546116e790617271565b80601f016020809104026020016040519081016040528092919081815260200182805461171390617271565b80156117605780601f1061173557610100808354040283529160200191611760565b820191906000526020600020905b81548152906001019060200180831161174357829003601f168201915b5050505050815260200160048201805461177990617271565b80601f01602080910402602001604051908101604052809291908181526020018280546117a590617271565b80156117f25780601f106117c7576101008083540402835291602001916117f2565b820191906000526020600020905b8154815290600101906020018083116117d557829003601f168201915b5050505050815260200160058201805461180b90617271565b80601f016020809104026020016040519081016040528092919081815260200182805461183790617271565b80156118845780601f1061185957610100808354040283529160200191611884565b820191906000526020600020905b81548152906001019060200180831161186757829003601f168201915b5050505050815260200160068201805461189d90617271565b80601f01602080910402602001604051908101604052809291908181526020018280546118c990617271565b80156119165780601f106118eb57610100808354040283529160200191611916565b820191906000526020600020905b8154815290600101906020018083116118f957829003601f168201915b50505050508152505084838151811061193257611931617554565b5b602002602001018190525060018261194a9190617583565b915050505b808061195a906171fa565b9150506114fe565b50809250505090565b611973615daf565b600c600083815260200190815260200160002060405180610100016040529081600082015481526020016001820160009054906101000a900473ffffffffffffffffffffffffffffffffffffffff1673ffffffffffffffffffffffffffffffffffffffff1673ffffffffffffffffffffffffffffffffffffffff168152602001600282018054611a0290617271565b80601f0160208091040260200160405190810160405280929190818152602001828054611a2e90617271565b8015611a7b5780601f10611a5057610100808354040283529160200191611a7b565b820191906000526020600020905b815481529060010190602001808311611a5e57829003601f168201915b50505050508152602001600382018054611a9490617271565b80601f0160208091040260200160405190810160405280929190818152602001828054611ac090617271565b8015611b0d5780601f10611ae257610100808354040283529160200191611b0d565b820191906000526020600020905b815481529060010190602001808311611af057829003601f168201915b50505050508152602001600482018054611b2690617271565b80601f0160208091040260200160405190810160405280929190818152602001828054611b5290617271565b8015611b9f5780601f10611b7457610100808354040283529160200191611b9f565b820191906000526020600020905b815481529060010190602001808311611b8257829003601f168201915b50505050508152602001600582018054611bb890617271565b80601f0160208091040260200160405190810160405280929190818152602001828054611be490617271565b8015611c315780601f10611c0657610100808354040283529160200191611c31565b820191906000526020600020905b815481529060010190602001808311611c1457829003601f168201915b50505050508152602001600682015481526020016007820154815250509050919050565b6060600060065467ffffffffffffffff811115611c7557611c74616014565b5b604051908082528060200260200182016040528015611cae57816020015b611c9b615daf565b815260200190600190039081611c935790505b50905060005b600654811015611fd0576000600c600083815260200190815260200160002090508060405180610100016040529081600082015481526020016001820160009054906101000a900473ffffffffffffffffffffffffffffffffffffffff1673ffffffffffffffffffffffffffffffffffffffff1673ffffffffffffffffffffffffffffffffffffffff168152602001600282018054611d5290617271565b80601f0160208091040260200160405190810160405280929190818152602001828054611d7e90617271565b8015611dcb5780601f10611da057610100808354040283529160200191611dcb565b820191906000526020600020905b815481529060010190602001808311611dae57829003601f168201915b50505050508152602001600382018054611de490617271565b80601f0160208091040260200160405190810160405280929190818152602001828054611e1090617271565b8015611e5d5780601f10611e3257610100808354040283529160200191611e5d565b820191906000526020600020905b815481529060010190602001808311611e4057829003601f168201915b50505050508152602001600482018054611e7690617271565b80601f0160208091040260200160405190810160405280929190818152602001828054611ea290617271565b8015611eef5780601f10611ec457610100808354040283529160200191611eef565b820191906000526020600020905b815481529060010190602001808311611ed257829003601f168201915b50505050508152602001600582018054611f0890617271565b80601f0160208091040260200160405190810160405280929190818152602001828054611f3490617271565b8015611f815780601f10611f5657610100808354040283529160200191611f81565b820191906000526020600020905b815481529060010190602001808311611f6457829003601f168201915b5050505050815260200160068201548152602001600782015481525050838381518110611fb157611fb0617554565b5b6020026020010181905250508080611fc8906171fa565b915050611cb4565b508091505090565b6000600d60003373ffffffffffffffffffffffffffffffffffffffff1673ffffffffffffffffffffffffffffffffffffffff16815260200190815260200160002054905060005b601660008381526020019081526020016000208054905081101561208d578260166000848152602001908152602001600020828154811061206357612062617554565b5b90600052602060002001540361207a575050612179565b8080612085906171fa565b91505061201f565b50601660008281526020019081526020016000208290806001815401808255809150506001900390600052602060002001600090919091909150556001600c600084815260200190815260200160002060070160008282546120ef9190617583565b92505081905550600c600083815260200190815260200160002060070154600c60008481526020019081526020016000206006015411612177573373ffffffffffffffffffffffffffffffffffffffff166108fc655af3107a40009081150290604051600060405180830381858888f19350505050158015612175573d6000803e3d6000fd5b505b505b50565b6000600e60008373ffffffffffffffffffffffffffffffffffffffff1673ffffffffffffffffffffffffffffffffffffffff1681526020019081526020016000205490506000600d60003373ffffffffffffffffffffffffffffffffffffffff1673ffffffffffffffffffffffffffffffffffffffff16815260200190815260200160002054905060005b6015600083815260200190815260200160002080549050811015612276578260156000848152602001908152602001600020828154811061224b5761224a617554565b5b906000526020600020015403612263575050506122b4565b808061226e906171fa565b915050612207565b506015600082815260200190815260200160002082908060018154018082558091505060019003906000526020600020016000909190919091505550505b50565b600080600d60008573ffffffffffffffffffffffffffffffffffffffff1673ffffffffffffffffffffffffffffffffffffffff1681526020019081526020016000205490506000600e60008573ffffffffffffffffffffffffffffffffffffffff1673ffffffffffffffffffffffffffffffffffffffff16815260200190815260200160002054905060005b60156000848152602001908152602001600020805490508110156123b6578160156000858152602001908152602001600020828154811061238757612386617554565b5b9060005260206000200154036123a357600193505050506123be565b80806123ae906171fa565b915050612343565b506000925050505b92915050565b6040518060a001604052803373ffffffffffffffffffffffffffffffffffffffff168152602001858152602001848152602001838152602001828152506008600060026000815480929190612418906171fa565b91905055815260200190815260200160002060008201518160000160006101000a81548173ffffffffffffffffffffffffffffffffffffffff021916908373ffffffffffffffffffffffffffffffffffffffff1602179055506020820151816001019081612486919061744e565b50604082015181600201908161249c919061744e565b5060608201518160030190816124b2919061744e565b5060808201518160040190816124c8919061744e565b5090505060016002546124db9190617520565b600e60003373ffffffffffffffffffffffffffffffffffffffff1673ffffffffffffffffffffffffffffffffffffffff168152602001908152602001600020819055506001601260003373ffffffffffffffffffffffffffffffffffffffff1673ffffffffffffffffffffffffffffffffffffffff16815260200190815260200160002060006101000a81548160ff02191690831515021790555050505050565b60606000600d60003373ffffffffffffffffffffffffffffffffffffffff1673ffffffffffffffffffffffffffffffffffffffff1681526020019081526020016000205490506000601660008381526020019081526020016000208054905067ffffffffffffffff8111156125f4576125f3616014565b5b60405190808252806020026020018201604052801561262d57816020015b61261a615daf565b8152602001906001900390816126125790505b50905060005b6016600084815260200190815260200160002080549050811015612992576000600c600060166000878152602001908152602001600020848154811061267c5761267b617554565b5b9060005260206000200154815260200190815260200160002090508060405180610100016040529081600082015481526020016001820160009054906101000a900473ffffffffffffffffffffffffffffffffffffffff1673ffffffffffffffffffffffffffffffffffffffff1673ffffffffffffffffffffffffffffffffffffffff16815260200160028201805461271490617271565b80601f016020809104026020016040519081016040528092919081815260200182805461274090617271565b801561278d5780601f106127625761010080835404028352916020019161278d565b820191906000526020600020905b81548152906001019060200180831161277057829003601f168201915b505050505081526020016003820180546127a690617271565b80601f01602080910402602001604051908101604052809291908181526020018280546127d290617271565b801561281f5780601f106127f45761010080835404028352916020019161281f565b820191906000526020600020905b81548152906001019060200180831161280257829003601f168201915b5050505050815260200160048201805461283890617271565b80601f016020809104026020016040519081016040528092919081815260200182805461286490617271565b80156128b15780601f10612886576101008083540402835291602001916128b1565b820191906000526020600020905b81548152906001019060200180831161289457829003601f168201915b505050505081526020016005820180546128ca90617271565b80601f01602080910402602001604051908101604052809291908181526020018280546128f690617271565b80156129435780601f1061291857610100808354040283529160200191612943565b820191906000526020600020905b81548152906001019060200180831161292657829003601f168201915b505050505081526020016006820154815260200160078201548152505083838151811061297357612972617554565b5b602002602001018190525050808061298a906171fa565b915050612633565b50809250505090565b655af3107a400034146129ad57600080fd5b6000600d60003373ffffffffffffffffffffffffffffffffffffffff1673ffffffffffffffffffffffffffffffffffffffff16815260200190815260200160002054905060005b6016600083815260200190815260200160002080549050811015612b485782601660008481526020019081526020016000208281548110612a3857612a37617554565b5b906000526020600020015403612b35576016600083815260200190815260200160002060016016600085815260200190815260200160002080549050612a7e9190617520565b81548110612a8f57612a8e617554565b5b9060005260206000200154601660008481526020019081526020016000208281548110612abf57612abe617554565b5b906000526020600020018190555060166000838152602001908152602001600020805480612af057612aef6175b7565b5b600190038181906000526020600020016000905590556001600c60008581526020019081526020016000206007016000828254612b2d9190617520565b925050819055505b8080612b40906171fa565b9150506129f4565b505050565b606060011515612b5d83336122b7565b151514612b9f576040517f08c379a0000000000000000000000000000000000000000000000000000000008152600401612b9690617669565b60405180910390fd5b600080600090505b600354811015612c3d578373ffffffffffffffffffffffffffffffffffffffff166009600083815260200190815260200160002060000160009054906101000a900473ffffffffffffffffffffffffffffffffffffffff1673ffffffffffffffffffffffffffffffffffffffff1603612c2a57600182612c279190617583565b91505b8080612c35906171fa565b915050612ba7565b5060008167ffffffffffffffff811115612c5a57612c59616014565b5b604051908082528060200260200182016040528015612c9357816020015b612c80615e0a565b815260200190600190039081612c785790505b50905060005b6003548110156130fd578473ffffffffffffffffffffffffffffffffffffffff166009600083815260200190815260200160002060000160009054906101000a900473ffffffffffffffffffffffffffffffffffffffff1673ffffffffffffffffffffffffffffffffffffffff16036130ea5760008190506000600960008381526020019081526020016000209050806040518060e00160405290816000820160009054906101000a900473ffffffffffffffffffffffffffffffffffffffff1673ffffffffffffffffffffffffffffffffffffffff1673ffffffffffffffffffffffffffffffffffffffff1681526020016001820160009054906101000a900473ffffffffffffffffffffffffffffffffffffffff1673ffffffffffffffffffffffffffffffffffffffff1673ffffffffffffffffffffffffffffffffffffffff168152602001600282018054612df090617271565b80601f0160208091040260200160405190810160405280929190818152602001828054612e1c90617271565b8015612e695780601f10612e3e57610100808354040283529160200191612e69565b820191906000526020600020905b815481529060010190602001808311612e4c57829003601f168201915b50505050508152602001600382018054612e8290617271565b80601f0160208091040260200160405190810160405280929190818152602001828054612eae90617271565b8015612efb5780601f10612ed057610100808354040283529160200191612efb565b820191906000526020600020905b815481529060010190602001808311612ede57829003601f168201915b50505050508152602001600482018054612f1490617271565b80601f0160208091040260200160405190810160405280929190818152602001828054612f4090617271565b8015612f8d5780601f10612f6257610100808354040283529160200191612f8d565b820191906000526020600020905b815481529060010190602001808311612f7057829003601f168201915b50505050508152602001600582018054612fa690617271565b80601f0160208091040260200160405190810160405280929190818152602001828054612fd290617271565b801561301f5780601f10612ff45761010080835404028352916020019161301f565b820191906000526020600020905b81548152906001019060200180831161300257829003601f168201915b5050505050815260200160068201805461303890617271565b80601f016020809104026020016040519081016040528092919081815260200182805461306490617271565b80156130b15780601f10613086576101008083540402835291602001916130b1565b820191906000526020600020905b81548152906001019060200180831161309457829003601f168201915b5050505050815250508483815181106130cd576130cc617554565b5b60200260200101819052506001826130e59190617583565b915050505b80806130f5906171fa565b915050612c99565b508092505050919050565b6000601060008373ffffffffffffffffffffffffffffffffffffffff1673ffffffffffffffffffffffffffffffffffffffff1681526020019081526020016000205490506000600d60003373ffffffffffffffffffffffffffffffffffffffff1673ffffffffffffffffffffffffffffffffffffffff16815260200190815260200160002054905060005b60176000838152602001908152602001600020805490508110156132b957826017600084815260200190815260200160002082815481106131d7576131d6617554565b5b9060005260206000200154036132a657601760008381526020019081526020016000206001601760008581526020019081526020016000208054905061321d9190617520565b8154811061322e5761322d617554565b5b906000526020600020015460176000848152602001908152602001600020828154811061325e5761325d617554565b5b90600052602060002001819055506017600083815260200190815260200160002080548061328f5761328e6175b7565b5b600190038181906000526020600020016000905590555b80806132b1906171fa565b915050613193565b50505050565b60606000600d60003373ffffffffffffffffffffffffffffffffffffffff1673ffffffffffffffffffffffffffffffffffffffff1681526020019081526020016000205490506000601560008381526020019081526020016000208054905067ffffffffffffffff81111561333757613336616014565b5b60405190808252806020026020018201604052801561337057816020015b61335d615e73565b8152602001906001900390816133555790505b50905060005b60156000848152602001908152602001600020805490508110156136b6576000600860006015600087815260200190815260200160002084815481106133bf576133be617554565b5b906000526020600020015481526020019081526020016000209050806040518060a00160405290816000820160009054906101000a900473ffffffffffffffffffffffffffffffffffffffff1673ffffffffffffffffffffffffffffffffffffffff1673ffffffffffffffffffffffffffffffffffffffff16815260200160018201805461344c90617271565b80601f016020809104026020016040519081016040528092919081815260200182805461347890617271565b80156134c55780601f1061349a576101008083540402835291602001916134c5565b820191906000526020600020905b8154815290600101906020018083116134a857829003601f168201915b505050505081526020016002820180546134de90617271565b80601f016020809104026020016040519081016040528092919081815260200182805461350a90617271565b80156135575780601f1061352c57610100808354040283529160200191613557565b820191906000526020600020905b81548152906001019060200180831161353a57829003601f168201915b5050505050815260200160038201805461357090617271565b80601f016020809104026020016040519081016040528092919081815260200182805461359c90617271565b80156135e95780601f106135be576101008083540402835291602001916135e9565b820191906000526020600020905b8154815290600101906020018083116135cc57829003601f168201915b5050505050815260200160048201805461360290617271565b80601f016020809104026020016040519081016040528092919081815260200182805461362e90617271565b801561367b5780601f106136505761010080835404028352916020019161367b565b820191906000526020600020905b81548152906001019060200180831161365e57829003601f168201915b50505050508152505083838151811061369757613696617554565b5b60200260200101819052505080806136ae906171fa565b915050613376565b50809250505090565b600080600d60008573ffffffffffffffffffffffffffffffffffffffff1673ffffffffffffffffffffffffffffffffffffffff16815260200190815260200160002054905060005b6016600083815260200190815260200160002080549050811015613779578360166000848152602001908152602001600020828154811061374b5761374a617554565b5b90600052602060002001540361376657600192505050613780565b8080613771906171fa565b915050613707565b5060009150505b92915050565b61378e615eb8565b600a6000600f60008573ffffffffffffffffffffffffffffffffffffffff1673ffffffffffffffffffffffffffffffffffffffff1681526020019081526020016000205481526020019081526020016000206040518060800160405290816000820160009054906101000a900473ffffffffffffffffffffffffffffffffffffffff1673ffffffffffffffffffffffffffffffffffffffff1673ffffffffffffffffffffffffffffffffffffffff16815260200160018201805461385190617271565b80601f016020809104026020016040519081016040528092919081815260200182805461387d90617271565b80156138ca5780601f1061389f576101008083540402835291602001916138ca565b820191906000526020600020905b8154815290600101906020018083116138ad57829003601f168201915b505050505081526020016002820180546138e390617271565b80601f016020809104026020016040519081016040528092919081815260200182805461390f90617271565b801561395c5780601f106139315761010080835404028352916020019161395c565b820191906000526020600020905b81548152906001019060200180831161393f57829003601f168201915b5050505050815260200160038201805461397590617271565b80601f01602080910402602001604051908101604052809291908181526020018280546139a190617271565b80156139ee5780601f106139c3576101008083540402835291602001916139ee565b820191906000526020600020905b8154815290600101906020018083116139d157829003601f168201915b5050505050815250509050919050565b613a06615ef6565b60076000600d60008573ffffffffffffffffffffffffffffffffffffffff1673ffffffffffffffffffffffffffffffffffffffff1681526020019081526020016000205481526020019081526020016000206040518060e00160405290816000820160009054906101000a900473ffffffffffffffffffffffffffffffffffffffff1673ffffffffffffffffffffffffffffffffffffffff1673ffffffffffffffffffffffffffffffffffffffff168152602001600182018054613ac990617271565b80601f0160208091040260200160405190810160405280929190818152602001828054613af590617271565b8015613b425780601f10613b1757610100808354040283529160200191613b42565b820191906000526020600020905b815481529060010190602001808311613b2557829003601f168201915b50505050508152602001600282018054613b5b90617271565b80601f0160208091040260200160405190810160405280929190818152602001828054613b8790617271565b8015613bd45780601f10613ba957610100808354040283529160200191613bd4565b820191906000526020600020905b815481529060010190602001808311613bb757829003601f168201915b50505050508152602001600382018054613bed90617271565b80601f0160208091040260200160405190810160405280929190818152602001828054613c1990617271565b8015613c665780601f10613c3b57610100808354040283529160200191613c66565b820191906000526020600020905b815481529060010190602001808311613c4957829003601f168201915b50505050508152602001600482018054613c7f90617271565b80601f0160208091040260200160405190810160405280929190818152602001828054613cab90617271565b8015613cf85780601f10613ccd57610100808354040283529160200191613cf8565b820191906000526020600020905b815481529060010190602001808311613cdb57829003601f168201915b5050505050815260200160058201548152602001600682018054613d1b90617271565b80601f0160208091040260200160405190810160405280929190818152602001828054613d4790617271565b8015613d945780601f10613d6957610100808354040283529160200191613d94565b820191906000526020600020905b815481529060010190602001808311613d7757829003601f168201915b5050505050815250509050919050565b613dac615e73565b60086000600e60008573ffffffffffffffffffffffffffffffffffffffff1673ffffffffffffffffffffffffffffffffffffffff1681526020019081526020016000205481526020019081526020016000206040518060a00160405290816000820160009054906101000a900473ffffffffffffffffffffffffffffffffffffffff1673ffffffffffffffffffffffffffffffffffffffff1673ffffffffffffffffffffffffffffffffffffffff168152602001600182018054613e6f90617271565b80601f0160208091040260200160405190810160405280929190818152602001828054613e9b90617271565b8015613ee85780601f10613ebd57610100808354040283529160200191613ee8565b820191906000526020600020905b815481529060010190602001808311613ecb57829003601f168201915b50505050508152602001600282018054613f0190617271565b80601f0160208091040260200160405190810160405280929190818152602001828054613f2d90617271565b8015613f7a5780601f10613f4f57610100808354040283529160200191613f7a565b820191906000526020600020905b815481529060010190602001808311613f5d57829003601f168201915b50505050508152602001600382018054613f9390617271565b80601f0160208091040260200160405190810160405280929190818152602001828054613fbf90617271565b801561400c5780601f10613fe15761010080835404028352916020019161400c565b820191906000526020600020905b815481529060010190602001808311613fef57829003601f168201915b5050505050815260200160048201805461402590617271565b80601f016020809104026020016040519081016040528092919081815260200182805461405190617271565b801561409e5780601f106140735761010080835404028352916020019161409e565b820191906000526020600020905b81548152906001019060200180831161408157829003601f168201915b5050505050815250509050919050565b60405180608001604052803373ffffffffffffffffffffffffffffffffffffffff16815260200184815260200183815260200182815250600b6000600560008154809291906140fc906171fa565b91905055815260200190815260200160002060008201518160000160006101000a81548173ffffffffffffffffffffffffffffffffffffffff021916908373ffffffffffffffffffffffffffffffffffffffff160217905550602082015181600101908161416a919061744e565b506040820151816002019081614180919061744e565b506060820151816003019081614196919061744e565b5090505060016005546141a99190617520565b601060003373ffffffffffffffffffffffffffffffffffffffff1673ffffffffffffffffffffffffffffffffffffffff168152602001908152602001600020819055506001601360003373ffffffffffffffffffffffffffffffffffffffff1673ffffffffffffffffffffffffffffffffffffffff16815260200190815260200160002060006101000a81548160ff021916908315150217905550505050565b6060600060025467ffffffffffffffff81111561426957614268616014565b5b6040519080825280602002602001820160405280156142a257816020015b61428f615e73565b8152602001906001900390816142875790505b50905060005b6002548110156145a5576000600860008381526020019081526020016000209050806040518060a00160405290816000820160009054906101000a900473ffffffffffffffffffffffffffffffffffffffff1673ffffffffffffffffffffffffffffffffffffffff1673ffffffffffffffffffffffffffffffffffffffff16815260200160018201805461433b90617271565b80601f016020809104026020016040519081016040528092919081815260200182805461436790617271565b80156143b45780601f10614389576101008083540402835291602001916143b4565b820191906000526020600020905b81548152906001019060200180831161439757829003601f168201915b505050505081526020016002820180546143cd90617271565b80601f01602080910402602001604051908101604052809291908181526020018280546143f990617271565b80156144465780601f1061441b57610100808354040283529160200191614446565b820191906000526020600020905b81548152906001019060200180831161442957829003601f168201915b5050505050815260200160038201805461445f90617271565b80601f016020809104026020016040519081016040528092919081815260200182805461448b90617271565b80156144d85780601f106144ad576101008083540402835291602001916144d8565b820191906000526020600020905b8154815290600101906020018083116144bb57829003601f168201915b505050505081526020016004820180546144f190617271565b80601f016020809104026020016040519081016040528092919081815260200182805461451d90617271565b801561456a5780601f1061453f5761010080835404028352916020019161456a565b820191906000526020600020905b81548152906001019060200180831161454d57829003601f168201915b50505050508152505083838151811061458657614585617554565b5b602002602001018190525050808061459d906171fa565b9150506142a8565b508091505090565b6060600115156145bd84846136bf565b1515146145ff576040517f08c379a00000000000000000000000000000000000000000000000000000000081526004016145f690617669565b60405180910390fd5b600080600090505b60035481101561469d578473ffffffffffffffffffffffffffffffffffffffff166009600083815260200190815260200160002060000160009054906101000a900473ffffffffffffffffffffffffffffffffffffffff1673ffffffffffffffffffffffffffffffffffffffff160361468a576001826146879190617583565b91505b8080614695906171fa565b915050614607565b5060008167ffffffffffffffff8111156146ba576146b9616014565b5b6040519080825280602002602001820160405280156146f357816020015b6146e0615e0a565b8152602001906001900390816146d85790505b50905060005b600354811015614b5d578573ffffffffffffffffffffffffffffffffffffffff166009600083815260200190815260200160002060000160009054906101000a900473ffffffffffffffffffffffffffffffffffffffff1673ffffffffffffffffffffffffffffffffffffffff1603614b4a5760008190506000600960008381526020019081526020016000209050806040518060e00160405290816000820160009054906101000a900473ffffffffffffffffffffffffffffffffffffffff1673ffffffffffffffffffffffffffffffffffffffff1673ffffffffffffffffffffffffffffffffffffffff1681526020016001820160009054906101000a900473ffffffffffffffffffffffffffffffffffffffff1673ffffffffffffffffffffffffffffffffffffffff1673ffffffffffffffffffffffffffffffffffffffff16815260200160028201805461485090617271565b80601f016020809104026020016040519081016040528092919081815260200182805461487c90617271565b80156148c95780601f1061489e576101008083540402835291602001916148c9565b820191906000526020600020905b8154815290600101906020018083116148ac57829003601f168201915b505050505081526020016003820180546148e290617271565b80601f016020809104026020016040519081016040528092919081815260200182805461490e90617271565b801561495b5780601f106149305761010080835404028352916020019161495b565b820191906000526020600020905b81548152906001019060200180831161493e57829003601f168201915b5050505050815260200160048201805461497490617271565b80601f01602080910402602001604051908101604052809291908181526020018280546149a090617271565b80156149ed5780601f106149c2576101008083540402835291602001916149ed565b820191906000526020600020905b8154815290600101906020018083116149d057829003601f168201915b50505050508152602001600582018054614a0690617271565b80601f0160208091040260200160405190810160405280929190818152602001828054614a3290617271565b8015614a7f5780601f10614a5457610100808354040283529160200191614a7f565b820191906000526020600020905b815481529060010190602001808311614a6257829003601f168201915b50505050508152602001600682018054614a9890617271565b80601f0160208091040260200160405190810160405280929190818152602001828054614ac490617271565b8015614b115780601f10614ae657610100808354040283529160200191614b11565b820191906000526020600020905b815481529060010190602001808311614af457829003601f168201915b505050505081525050848381518110614b2d57614b2c617554565b5b6020026020010181905250600182614b459190617583565b915050505b8080614b55906171fa565b9150506146f9565b50809250505092915050565b614b71615f49565b600b6000601060008573ffffffffffffffffffffffffffffffffffffffff1673ffffffffffffffffffffffffffffffffffffffff1681526020019081526020016000205481526020019081526020016000206040518060800160405290816000820160009054906101000a900473ffffffffffffffffffffffffffffffffffffffff1673ffffffffffffffffffffffffffffffffffffffff1673ffffffffffffffffffffffffffffffffffffffff168152602001600182018054614c3490617271565b80601f0160208091040260200160405190810160405280929190818152602001828054614c6090617271565b8015614cad5780601f10614c8257610100808354040283529160200191614cad565b820191906000526020600020905b815481529060010190602001808311614c9057829003601f168201915b50505050508152602001600282018054614cc690617271565b80601f0160208091040260200160405190810160405280929190818152602001828054614cf290617271565b8015614d3f5780601f10614d1457610100808354040283529160200191614d3f565b820191906000526020600020905b815481529060010190602001808311614d2257829003601f168201915b50505050508152602001600382018054614d5890617271565b80601f0160208091040260200160405190810160405280929190818152602001828054614d8490617271565b8015614dd15780601f10614da657610100808354040283529160200191614dd1565b820191906000526020600020905b815481529060010190602001808311614db457829003601f168201915b5050505050815250509050919050565b6060600080600090505b600154811015614e875760005b6016600083815260200190815260200160002080549050811015614e735784601660008481526020019081526020016000208281548110614e3c57614e3b617554565b5b906000526020600020015403614e6057600183614e599190617583565b9250614e73565b8080614e6b906171fa565b915050614df8565b508080614e7f906171fa565b915050614deb565b5060008167ffffffffffffffff811115614ea457614ea3616014565b5b604051908082528060200260200182016040528015614edd57816020015b614eca615ef6565b815260200190600190039081614ec25790505b5090506000915060005b6001548110156152ff5760005b60166000838152602001908152602001600020805490508110156152eb5785601660008481526020019081526020016000208281548110614f3857614f37617554565b5b9060005260206000200154036152d8576000600760008481526020019081526020016000209050806040518060e00160405290816000820160009054906101000a900473ffffffffffffffffffffffffffffffffffffffff1673ffffffffffffffffffffffffffffffffffffffff1673ffffffffffffffffffffffffffffffffffffffff168152602001600182018054614fd190617271565b80601f0160208091040260200160405190810160405280929190818152602001828054614ffd90617271565b801561504a5780601f1061501f5761010080835404028352916020019161504a565b820191906000526020600020905b81548152906001019060200180831161502d57829003601f168201915b5050505050815260200160028201805461506390617271565b80601f016020809104026020016040519081016040528092919081815260200182805461508f90617271565b80156150dc5780601f106150b1576101008083540402835291602001916150dc565b820191906000526020600020905b8154815290600101906020018083116150bf57829003601f168201915b505050505081526020016003820180546150f590617271565b80601f016020809104026020016040519081016040528092919081815260200182805461512190617271565b801561516e5780601f106151435761010080835404028352916020019161516e565b820191906000526020600020905b81548152906001019060200180831161515157829003601f168201915b5050505050815260200160048201805461518790617271565b80601f01602080910402602001604051908101604052809291908181526020018280546151b390617271565b80156152005780601f106151d557610100808354040283529160200191615200565b820191906000526020600020905b8154815290600101906020018083116151e357829003601f168201915b505050505081526020016005820154815260200160068201805461522390617271565b80601f016020809104026020016040519081016040528092919081815260200182805461524f90617271565b801561529c5780601f106152715761010080835404028352916020019161529c565b820191906000526020600020905b81548152906001019060200180831161527f57829003601f168201915b5050505050815250508486815181106152b8576152b7617554565b5b60200260200101819052506001856152d09190617583565b9450506152eb565b80806152e3906171fa565b915050614ef4565b5080806152f7906171fa565b915050614ee7565b508092505050919050565b6000600e60008373ffffffffffffffffffffffffffffffffffffffff1673ffffffffffffffffffffffffffffffffffffffff1681526020019081526020016000205490506000600d60003373ffffffffffffffffffffffffffffffffffffffff1673ffffffffffffffffffffffffffffffffffffffff16815260200190815260200160002054905060005b60156000838152602001908152602001600020805490508110156154bb57826015600084815260200190815260200160002082815481106153d9576153d8617554565b5b9060005260206000200154036154a857601560008381526020019081526020016000206001601560008581526020019081526020016000208054905061541f9190617520565b815481106154305761542f617554565b5b90600052602060002001546015600084815260200190815260200160002082815481106154605761545f617554565b5b906000526020600020018190555060156000838152602001908152602001600020805480615491576154906175b7565b5b600190038181906000526020600020016000905590555b80806154b3906171fa565b915050615395565b50505050565b600080600d60008573ffffffffffffffffffffffffffffffffffffffff1673ffffffffffffffffffffffffffffffffffffffff1681526020019081526020016000205490506000601060008573ffffffffffffffffffffffffffffffffffffffff1673ffffffffffffffffffffffffffffffffffffffff16815260200190815260200160002054905060005b60176000848152602001908152602001600020805490508110156155c0578160176000858152602001908152602001600020828154811061559157615590617554565b5b9060005260206000200154036155ad57600193505050506155c8565b80806155b8906171fa565b91505061554d565b506000925050505b92915050565b6060600080600090505b60035481101561566e573373ffffffffffffffffffffffffffffffffffffffff166009600083815260200190815260200160002060000160009054906101000a900473ffffffffffffffffffffffffffffffffffffffff1673ffffffffffffffffffffffffffffffffffffffff160361565b576001826156589190617583565b91505b8080615666906171fa565b9150506155d8565b5061567881615ced565b615683600354615ced565b60008167ffffffffffffffff81111561569f5761569e616014565b5b6040519080825280602002602001820160405280156156d857816020015b6156c5615e0a565b8152602001906001900390816156bd5790505b50905060005b600354811015615b42573373ffffffffffffffffffffffffffffffffffffffff166009600083815260200190815260200160002060000160009054906101000a900473ffffffffffffffffffffffffffffffffffffffff1673ffffffffffffffffffffffffffffffffffffffff1603615b2f5760008190506000600960008381526020019081526020016000209050806040518060e00160405290816000820160009054906101000a900473ffffffffffffffffffffffffffffffffffffffff1673ffffffffffffffffffffffffffffffffffffffff1673ffffffffffffffffffffffffffffffffffffffff1681526020016001820160009054906101000a900473ffffffffffffffffffffffffffffffffffffffff1673ffffffffffffffffffffffffffffffffffffffff1673ffffffffffffffffffffffffffffffffffffffff16815260200160028201805461583590617271565b80601f016020809104026020016040519081016040528092919081815260200182805461586190617271565b80156158ae5780601f10615883576101008083540402835291602001916158ae565b820191906000526020600020905b81548152906001019060200180831161589157829003601f168201915b505050505081526020016003820180546158c790617271565b80601f01602080910402602001604051908101604052809291908181526020018280546158f390617271565b80156159405780601f1061591557610100808354040283529160200191615940565b820191906000526020600020905b81548152906001019060200180831161592357829003601f168201915b5050505050815260200160048201805461595990617271565b80601f016020809104026020016040519081016040528092919081815260200182805461598590617271565b80156159d25780601f106159a7576101008083540402835291602001916159d2565b820191906000526020600020905b8154815290600101906020018083116159b557829003601f168201915b505050505081526020016005820180546159eb90617271565b80601f0160208091040260200160405190810160405280929190818152602001828054615a1790617271565b8015615a645780601f10615a3957610100808354040283529160200191615a64565b820191906000526020600020905b815481529060010190602001808311615a4757829003601f168201915b50505050508152602001600682018054615a7d90617271565b80601f0160208091040260200160405190810160405280929190818152602001828054615aa990617271565b8015615af65780601f10615acb57610100808354040283529160200191615af6565b820191906000526020600020905b815481529060010190602001808311615ad957829003601f168201915b505050505081525050848381518110615b1257615b11617554565b5b6020026020010181905250600182615b2a9190617583565b915050505b8080615b3a906171fa565b9150506156de565b50809250505090565b6000655af3107a400082615b5f9190617689565b9050348114615ba3576040517f08c379a0000000000000000000000000000000000000000000000000000000008152600401615b9a90617717565b60405180910390fd5b60405180610100016040528060065481526020013373ffffffffffffffffffffffffffffffffffffffff1681526020018781526020018681526020018581526020018481526020018381526020016000815250600c600060065481526020019081526020016000206000820151816000015560208201518160010160006101000a81548173ffffffffffffffffffffffffffffffffffffffff021916908373ffffffffffffffffffffffffffffffffffffffff1602179055506040820151816002019081615c71919061744e565b506060820151816003019081615c87919061744e565b506080820151816004019081615c9d919061744e565b5060a0820151816005019081615cb3919061744e565b5060c0820151816006015560e08201518160070155905050600160066000828254615cde9190617583565b92505081905550505050505050565b615d8381604051602401615d019190616271565b6040516020818303038152906040527ff82c50f1000000000000000000000000000000000000000000000000000000007bffffffffffffffffffffffffffffffffffffffffffffffffffffffff19166020820180517bffffffffffffffffffffffffffffffffffffffffffffffffffffffff8381831617835250505050615d86565b50565b60008151905060006a636f6e736f6c652e6c6f679050602083016000808483855afa5050505050565b60405180610100016040528060008152602001600073ffffffffffffffffffffffffffffffffffffffff1681526020016060815260200160608152602001606081526020016060815260200160008152602001600081525090565b6040518060e00160405280600073ffffffffffffffffffffffffffffffffffffffff168152602001600073ffffffffffffffffffffffffffffffffffffffff16815260200160608152602001606081526020016060815260200160608152602001606081525090565b6040518060a00160405280600073ffffffffffffffffffffffffffffffffffffffff168152602001606081526020016060815260200160608152602001606081525090565b6040518060800160405280600073ffffffffffffffffffffffffffffffffffffffff1681526020016060815260200160608152602001606081525090565b6040518060e00160405280600073ffffffffffffffffffffffffffffffffffffffff1681526020016060815260200160608152602001606081526020016060815260200160008152602001606081525090565b6040518060800160405280600073ffffffffffffffffffffffffffffffffffffffff1681526020016060815260200160608152602001606081525090565b6000604051905090565b600080fd5b600080fd5b600073ffffffffffffffffffffffffffffffffffffffff82169050919050565b6000615fc682615f9b565b9050919050565b615fd681615fbb565b8114615fe157600080fd5b50565b600081359050615ff381615fcd565b92915050565b600080fd5b600080fd5b6000601f19601f8301169050919050565b7f4e487b7100000000000000000000000000000000000000000000000000000000600052604160045260246000fd5b61604c82616003565b810181811067ffffffffffffffff8211171561606b5761606a616014565b5b80604052505050565b600061607e615f87565b905061608a8282616043565b919050565b600067ffffffffffffffff8211156160aa576160a9616014565b5b6160b382616003565b9050602081019050919050565b82818337600083830152505050565b60006160e26160dd8461608f565b616074565b9050828152602081018484840111156160fe576160fd615ffe565b5b6161098482856160c0565b509392505050565b600082601f83011261612657616125615ff9565b5b81356161368482602086016160cf565b91505092915050565b60008060008060008060c0878903121561615c5761615b615f91565b5b600061616a89828a01615fe4565b965050602087013567ffffffffffffffff81111561618b5761618a615f96565b5b61619789828a01616111565b955050604087013567ffffffffffffffff8111156161b8576161b7615f96565b5b6161c489828a01616111565b945050606087013567ffffffffffffffff8111156161e5576161e4615f96565b5b6161f189828a01616111565b935050608087013567ffffffffffffffff81111561621257616211615f96565b5b61621e89828a01616111565b92505060a087013567ffffffffffffffff81111561623f5761623e615f96565b5b61624b89828a01616111565b9150509295509295509295565b6000819050919050565b61626b81616258565b82525050565b60006020820190506162866000830184616262565b92915050565b61629581616258565b81146162a057600080fd5b50565b6000813590506162b28161628c565b92915050565b60008060008060008060c087890312156162d5576162d4615f91565b5b600087013567ffffffffffffffff8111156162f3576162f2615f96565b5b6162ff89828a01616111565b965050602087013567ffffffffffffffff8111156163205761631f615f96565b5b61632c89828a01616111565b955050604087013567ffffffffffffffff81111561634d5761634c615f96565b5b61635989828a01616111565b945050606087013567ffffffffffffffff81111561637a57616379615f96565b5b61638689828a01616111565b935050608061639789828a016162a3565b92505060a087013567ffffffffffffffff8111156163b8576163b7615f96565b5b6163c489828a01616111565b9150509295509295509295565b6000602082840312156163e7576163e6615f91565b5b60006163f584828501615fe4565b91505092915050565b600081519050919050565b600082825260208201905092915050565b6000819050602082019050919050565b61643381616258565b82525050565b61644281615fbb565b82525050565b600081519050919050565b600082825260208201905092915050565b60005b83811015616482578082015181840152602081019050616467565b60008484015250505050565b600061649982616448565b6164a38185616453565b93506164b3818560208601616464565b6164bc81616003565b840191505092915050565b6000610100830160008301516164e0600086018261642a565b5060208301516164f36020860182616439565b506040830151848203604086015261650b828261648e565b91505060608301518482036060860152616525828261648e565b9150506080830151848203608086015261653f828261648e565b91505060a083015184820360a0860152616559828261648e565b91505060c083015161656e60c086018261642a565b5060e083015161658160e086018261642a565b508091505092915050565b600061659883836164c7565b905092915050565b6000602082019050919050565b60006165b8826163fe565b6165c28185616409565b9350836020820285016165d48561641a565b8060005b8581101561661057848403895281516165f1858261658c565b94506165fc836165a0565b925060208a019950506001810190506165d8565b50829750879550505050505092915050565b6000602082019050818103600083015261663c81846165ad565b905092915050565b60008060006060848603121561665d5761665c615f91565b5b600084013567ffffffffffffffff81111561667b5761667a615f96565b5b61668786828701616111565b935050602084013567ffffffffffffffff8111156166a8576166a7615f96565b5b6166b486828701616111565b925050604084013567ffffffffffffffff8111156166d5576166d4615f96565b5b6166e186828701616111565b9150509250925092565b600081519050919050565b600082825260208201905092915050565b6000819050602082019050919050565b600060e08301600083015161672f6000860182616439565b5060208301516167426020860182616439565b506040830151848203604086015261675a828261648e565b91505060608301518482036060860152616774828261648e565b9150506080830151848203608086015261678e828261648e565b91505060a083015184820360a08601526167a8828261648e565b91505060c083015184820360c08601526167c2828261648e565b9150508091505092915050565b60006167db8383616717565b905092915050565b6000602082019050919050565b60006167fb826166eb565b61680581856166f6565b93508360208202850161681785616707565b8060005b85811015616853578484038952815161683485826167cf565b945061683f836167e3565b925060208a0199505060018101905061681b565b50829750879550505050505092915050565b6000602082019050818103600083015261687f81846167f0565b905092915050565b60006020828403121561689d5761689c615f91565b5b60006168ab848285016162a3565b91505092915050565b6000610100830160008301516168cd600086018261642a565b5060208301516168e06020860182616439565b50604083015184820360408601526168f8828261648e565b91505060608301518482036060860152616912828261648e565b9150506080830151848203608086015261692c828261648e565b91505060a083015184820360a0860152616946828261648e565b91505060c083015161695b60c086018261642a565b5060e083015161696e60e086018261642a565b508091505092915050565b6000602082019050818103600083015261699381846168b4565b905092915050565b600080604083850312156169b2576169b1615f91565b5b60006169c085828601615fe4565b92505060206169d185828601615fe4565b9150509250929050565b60008115159050919050565b6169f0816169db565b82525050565b6000602082019050616a0b60008301846169e7565b92915050565b60008060008060808587031215616a2b57616a2a615f91565b5b600085013567ffffffffffffffff811115616a4957616a48615f96565b5b616a5587828801616111565b945050602085013567ffffffffffffffff811115616a7657616a75615f96565b5b616a8287828801616111565b935050604085013567ffffffffffffffff811115616aa357616aa2615f96565b5b616aaf87828801616111565b925050606085013567ffffffffffffffff811115616ad057616acf615f96565b5b616adc87828801616111565b91505092959194509250565b600081519050919050565b600082825260208201905092915050565b6000819050602082019050919050565b600060a083016000830151616b2c6000860182616439565b5060208301518482036020860152616b44828261648e565b91505060408301518482036040860152616b5e828261648e565b91505060608301518482036060860152616b78828261648e565b91505060808301518482036080860152616b92828261648e565b9150508091505092915050565b6000616bab8383616b14565b905092915050565b6000602082019050919050565b6000616bcb82616ae8565b616bd58185616af3565b935083602082028501616be785616b04565b8060005b85811015616c235784840389528151616c048582616b9f565b9450616c0f83616bb3565b925060208a01995050600181019050616beb565b50829750879550505050505092915050565b60006020820190508181036000830152616c4f8184616bc0565b905092915050565b60008060408385031215616c6e57616c6d615f91565b5b6000616c7c85828601615fe4565b9250506020616c8d858286016162a3565b9150509250929050565b6000608083016000830151616caf6000860182616439565b5060208301518482036020860152616cc7828261648e565b91505060408301518482036040860152616ce1828261648e565b91505060608301518482036060860152616cfb828261648e565b9150508091505092915050565b60006020820190508181036000830152616d228184616c97565b905092915050565b600060e083016000830151616d426000860182616439565b5060208301518482036020860152616d5a828261648e565b91505060408301518482036040860152616d74828261648e565b91505060608301518482036060860152616d8e828261648e565b91505060808301518482036080860152616da8828261648e565b91505060a0830151616dbd60a086018261642a565b5060c083015184820360c0860152616dd5828261648e565b9150508091505092915050565b60006020820190508181036000830152616dfc8184616d2a565b905092915050565b600060a083016000830151616e1c6000860182616439565b5060208301518482036020860152616e34828261648e565b91505060408301518482036040860152616e4e828261648e565b91505060608301518482036060860152616e68828261648e565b91505060808301518482036080860152616e82828261648e565b9150508091505092915050565b60006020820190508181036000830152616ea98184616e04565b905092915050565b6000608083016000830151616ec96000860182616439565b5060208301518482036020860152616ee1828261648e565b91505060408301518482036040860152616efb828261648e565b91505060608301518482036060860152616f15828261648e565b9150508091505092915050565b60006020820190508181036000830152616f3c8184616eb1565b905092915050565b600081519050919050565b600082825260208201905092915050565b6000819050602082019050919050565b600060e083016000830151616f886000860182616439565b5060208301518482036020860152616fa0828261648e565b91505060408301518482036040860152616fba828261648e565b91505060608301518482036060860152616fd4828261648e565b91505060808301518482036080860152616fee828261648e565b91505060a083015161700360a086018261642a565b5060c083015184820360c086015261701b828261648e565b9150508091505092915050565b60006170348383616f70565b905092915050565b6000602082019050919050565b600061705482616f44565b61705e8185616f4f565b93508360208202850161707085616f60565b8060005b858110156170ac578484038952815161708d8582617028565b94506170988361703c565b925060208a01995050600181019050617074565b50829750879550505050505092915050565b600060208201905081810360008301526170d88184617049565b905092915050565b600080600080600060a086880312156170fc576170fb615f91565b5b600086013567ffffffffffffffff81111561711a57617119615f96565b5b61712688828901616111565b955050602086013567ffffffffffffffff81111561714757617146615f96565b5b61715388828901616111565b945050604086013567ffffffffffffffff81111561717457617173615f96565b5b61718088828901616111565b935050606086013567ffffffffffffffff8111156171a1576171a0615f96565b5b6171ad88828901616111565b92505060806171be888289016162a3565b9150509295509295909350565b7f4e487b7100000000000000000000000000000000000000000000000000000000600052601160045260246000fd5b600061720582616258565b91507fffffffffffffffffffffffffffffffffffffffffffffffffffffffffffffffff8203617237576172366171cb565b5b600182019050919050565b7f4e487b7100000000000000000000000000000000000000000000000000000000600052602260045260246000fd5b6000600282049050600182168061728957607f821691505b60208210810361729c5761729b617242565b5b50919050565b60008190508160005260206000209050919050565b60006020601f8301049050919050565b600082821b905092915050565b6000600883026173047fffffffffffffffffffffffffffffffffffffffffffffffffffffffffffffffff826172c7565b61730e86836172c7565b95508019841693508086168417925050509392505050565b6000819050919050565b600061734b61734661734184616258565b617326565b616258565b9050919050565b6000819050919050565b61736583617330565b61737961737182617352565b8484546172d4565b825550505050565b600090565b61738e617381565b61739981848461735c565b505050565b5b818110156173bd576173b2600082617386565b60018101905061739f565b5050565b601f821115617402576173d3816172a2565b6173dc846172b7565b810160208510156173eb578190505b6173ff6173f7856172b7565b83018261739e565b50505b505050565b600082821c905092915050565b600061742560001984600802617407565b1980831691505092915050565b600061743e8383617414565b9150826002028217905092915050565b61745782616448565b67ffffffffffffffff8111156174705761746f616014565b5b61747a8254617271565b6174858282856173c1565b600060209050601f8311600181146174b857600084156174a6578287015190505b6174b08582617432565b865550617518565b601f1984166174c6866172a2565b60005b828110156174ee578489015182556001820191506020850194506020810190506174c9565b8683101561750b5784890151617507601f891682617414565b8355505b6001600288020188555050505b505050505050565b600061752b82616258565b915061753683616258565b925082820390508181111561754e5761754d6171cb565b5b92915050565b7f4e487b7100000000000000000000000000000000000000000000000000000000600052603260045260246000fd5b600061758e82616258565b915061759983616258565b92508282019050808211156175b1576175b06171cb565b5b92915050565b7f4e487b7100000000000000000000000000000000000000000000000000000000600052603160045260246000fd5b600082825260208201905092915050565b7f446f6573206e6f7420686173207468652061636365737320746f20666574636860008201527f2074686520646f63756d656e7473000000000000000000000000000000000000602082015250565b6000617653602e836175e6565b915061765e826175f7565b604082019050919050565b6000602082019050818103600083015261768281617646565b9050919050565b600061769482616258565b915061769f83616258565b92508282026176ad81616258565b915082820484148315176176c4576176c36171cb565b5b5092915050565b7f506c656173652070726f76696465207265717569726564206574686572730000600082015250565b6000617701601e836175e6565b915061770c826176cb565b602082019050919050565b60006020820190508181036000830152617730816176f4565b905091905056fea264697066735822122026ca30a9e29486b5b01c7ae46e84ab524d3e07fa969a9338788f20c9c1e77ee064736f6c63430008110033",
  "linkReferences": {},
  "deployedLinkReferences": {}
}