{
  "_format": "hh-sol-artifact-1",
  "contractName": "EHR",
  "sourceName": "contracts/EHR.sol",
  "abi": [
    {
      "inputs": [],
      "stateMutability": "nonpayable",
      "type": "constructor"
    },
    {
      "inputs": [],
      "name": "checkRole",
      "outputs": [
        {
          "internalType": "uint256",
          "name": "",
          "type": "uint256"
        }
      ],
      "stateMutability": "view",
      "type": "function"
    },
    {
      "inputs": [
        {
          "internalType": "address",
          "name": "userAdd",
          "type": "address"
        },
        {
          "internalType": "string",
          "name": "docName",
          "type": "string"
        },
        {
          "internalType": "string",
          "name": "recordHash",
          "type": "string"
        },
        {
          "internalType": "string",
          "name": "recordName",
          "type": "string"
        },
        {
          "internalType": "string",
          "name": "issueDate",
          "type": "string"
        },
        {
          "internalType": "string",
          "name": "testSuggested",
          "type": "string"
        }
      ],
      "name": "createNewRecord",
      "outputs": [],
      "stateMutability": "nonpayable",
      "type": "function"
    },
    {
      "inputs": [
        {
          "internalType": "string",
          "name": "name",
          "type": "string"
        },
        {
          "internalType": "string",
          "name": "description",
          "type": "string"
        },
        {
          "internalType": "string",
          "name": "cid",
          "type": "string"
        },
        {
          "internalType": "string",
          "name": "cidName",
          "type": "string"
        },
        {
          "internalType": "uint256",
          "name": "usersRequired",
          "type": "uint256"
        }
      ],
      "name": "createNewResearch",
      "outputs": [],
      "stateMutability": "payable",
      "type": "function"
    },
    {
      "inputs": [],
      "name": "fetchAllHospitals",
      "outputs": [
        {
          "components": [
            {
              "internalType": "address",
              "name": "hosAdd",
              "type": "address"
            },
            {
              "internalType": "string",
              "name": "name",
              "type": "string"
            },
            {
              "internalType": "string",
              "name": "personalAdd",
              "type": "string"
            },
            {
              "internalType": "string",
              "name": "emailId",
              "type": "string"
            },
            {
              "internalType": "string",
              "name": "contactNo",
              "type": "string"
            }
          ],
          "internalType": "struct EHR.Hospital[]",
          "name": "",
          "type": "tuple[]"
        }
      ],
      "stateMutability": "view",
      "type": "function"
    },
    {
      "inputs": [],
      "name": "fetchAllInsuranceComps",
      "outputs": [
        {
          "components": [
            {
              "internalType": "address",
              "name": "compAddr",
              "type": "address"
            },
            {
              "internalType": "string",
              "name": "name",
              "type": "string"
            },
            {
              "internalType": "string",
              "name": "emailId",
              "type": "string"
            },
            {
              "internalType": "string",
              "name": "contactNo",
              "type": "string"
            }
          ],
          "internalType": "struct EHR.InsuranceComp[]",
          "name": "",
          "type": "tuple[]"
        }
      ],
      "stateMutability": "view",
      "type": "function"
    },
    {
      "inputs": [],
      "name": "fetchAllResearchs",
      "outputs": [
        {
          "components": [
            {
              "internalType": "uint256",
              "name": "id",
              "type": "uint256"
            },
            {
              "internalType": "address",
              "name": "orgAdd",
              "type": "address"
            },
            {
              "internalType": "string",
              "name": "name",
              "type": "string"
            },
            {
              "internalType": "string",
              "name": "description",
              "type": "string"
            },
            {
              "internalType": "string",
              "name": "cid",
              "type": "string"
            },
            {
              "internalType": "string",
              "name": "cidName",
              "type": "string"
            },
            {
              "internalType": "uint256",
              "name": "usersRequired",
              "type": "uint256"
            },
            {
              "internalType": "uint256",
              "name": "currentUsers",
              "type": "uint256"
            }
          ],
          "internalType": "struct EHR.Research[]",
          "name": "",
          "type": "tuple[]"
        }
      ],
      "stateMutability": "view",
      "type": "function"
    },
    {
      "inputs": [
        {
          "internalType": "uint256",
          "name": "researchId",
          "type": "uint256"
        }
      ],
      "name": "fetchAllUsersForResearch",
      "outputs": [
        {
          "components": [
            {
              "internalType": "address",
              "name": "userAdd",
              "type": "address"
            },
            {
              "internalType": "string",
              "name": "name",
              "type": "string"
            },
            {
              "internalType": "string",
              "name": "personalAdd",
              "type": "string"
            },
            {
              "internalType": "string",
              "name": "emailId",
              "type": "string"
            },
            {
              "internalType": "string",
              "name": "mobileNo",
              "type": "string"
            },
            {
              "internalType": "uint256",
              "name": "gender",
              "type": "uint256"
            },
            {
              "internalType": "string",
              "name": "dob",
              "type": "string"
            }
          ],
          "internalType": "struct EHR.User[]",
          "name": "",
          "type": "tuple[]"
        }
      ],
      "stateMutability": "view",
      "type": "function"
    },
    {
      "inputs": [],
      "name": "fetchAllUsersOfInsuranceComp",
      "outputs": [
        {
          "components": [
            {
              "internalType": "address",
              "name": "userAdd",
              "type": "address"
            },
            {
              "internalType": "string",
              "name": "name",
              "type": "string"
            },
            {
              "internalType": "string",
              "name": "personalAdd",
              "type": "string"
            },
            {
              "internalType": "string",
              "name": "emailId",
              "type": "string"
            },
            {
              "internalType": "string",
              "name": "mobileNo",
              "type": "string"
            },
            {
              "internalType": "uint256",
              "name": "gender",
              "type": "uint256"
            },
            {
              "internalType": "string",
              "name": "dob",
              "type": "string"
            }
          ],
          "internalType": "struct EHR.User[]",
          "name": "",
          "type": "tuple[]"
        }
      ],
      "stateMutability": "view",
      "type": "function"
    },
    {
      "inputs": [
        {
          "internalType": "address",
          "name": "hospitalAddress",
          "type": "address"
        }
      ],
      "name": "fetchHospitalByAddress",
      "outputs": [
        {
          "components": [
            {
              "internalType": "address",
              "name": "hosAdd",
              "type": "address"
            },
            {
              "internalType": "string",
              "name": "name",
              "type": "string"
            },
            {
              "internalType": "string",
              "name": "personalAdd",
              "type": "string"
            },
            {
              "internalType": "string",
              "name": "emailId",
              "type": "string"
            },
            {
              "internalType": "string",
              "name": "contactNo",
              "type": "string"
            }
          ],
          "internalType": "struct EHR.Hospital",
          "name": "",
          "type": "tuple"
        }
      ],
      "stateMutability": "view",
      "type": "function"
    },
    {
      "inputs": [
        {
          "internalType": "address",
          "name": "insuranceCompAddress",
          "type": "address"
        }
      ],
      "name": "fetchInsuranceCompByAddress",
      "outputs": [
        {
          "components": [
            {
              "internalType": "address",
              "name": "compAddr",
              "type": "address"
            },
            {
              "internalType": "string",
              "name": "name",
              "type": "string"
            },
            {
              "internalType": "string",
              "name": "emailId",
              "type": "string"
            },
            {
              "internalType": "string",
              "name": "contactNo",
              "type": "string"
            }
          ],
          "internalType": "struct EHR.InsuranceComp",
          "name": "",
          "type": "tuple"
        }
      ],
      "stateMutability": "view",
      "type": "function"
    },
    {
      "inputs": [],
      "name": "fetchMyDocuments",
      "outputs": [
        {
          "components": [
            {
              "internalType": "address",
              "name": "userAdd",
              "type": "address"
            },
            {
              "internalType": "address",
              "name": "hosAdd",
              "type": "address"
            },
            {
              "internalType": "string",
              "name": "docName",
              "type": "string"
            },
            {
              "internalType": "string",
              "name": "recordHash",
              "type": "string"
            },
            {
              "internalType": "string",
              "name": "recordName",
              "type": "string"
            },
            {
              "internalType": "string",
              "name": "issueDate",
              "type": "string"
            },
            {
              "internalType": "string",
              "name": "testSuggested",
              "type": "string"
            }
          ],
          "internalType": "struct EHR.Record[]",
          "name": "",
          "type": "tuple[]"
        }
      ],
      "stateMutability": "view",
      "type": "function"
    },
    {
      "inputs": [],
      "name": "fetchMyHospitalAccessList",
      "outputs": [
        {
          "components": [
            {
              "internalType": "address",
              "name": "hosAdd",
              "type": "address"
            },
            {
              "internalType": "string",
              "name": "name",
              "type": "string"
            },
            {
              "internalType": "string",
              "name": "personalAdd",
              "type": "string"
            },
            {
              "internalType": "string",
              "name": "emailId",
              "type": "string"
            },
            {
              "internalType": "string",
              "name": "contactNo",
              "type": "string"
            }
          ],
          "internalType": "struct EHR.Hospital[]",
          "name": "",
          "type": "tuple[]"
        }
      ],
      "stateMutability": "view",
      "type": "function"
    },
    {
      "inputs": [],
      "name": "fetchMyResearchAccessList",
      "outputs": [
        {
          "components": [
            {
              "internalType": "uint256",
              "name": "id",
              "type": "uint256"
            },
            {
              "internalType": "address",
              "name": "orgAdd",
              "type": "address"
            },
            {
              "internalType": "string",
              "name": "name",
              "type": "string"
            },
            {
              "internalType": "string",
              "name": "description",
              "type": "string"
            },
            {
              "internalType": "string",
              "name": "cid",
              "type": "string"
            },
            {
              "internalType": "string",
              "name": "cidName",
              "type": "string"
            },
            {
              "internalType": "uint256",
              "name": "usersRequired",
              "type": "uint256"
            },
            {
              "internalType": "uint256",
              "name": "currentUsers",
              "type": "uint256"
            }
          ],
          "internalType": "struct EHR.Research[]",
          "name": "",
          "type": "tuple[]"
        }
      ],
      "stateMutability": "view",
      "type": "function"
    },
    {
      "inputs": [],
      "name": "fetchMyResearchs",
      "outputs": [
        {
          "components": [
            {
              "internalType": "uint256",
              "name": "id",
              "type": "uint256"
            },
            {
              "internalType": "address",
              "name": "orgAdd",
              "type": "address"
            },
            {
              "internalType": "string",
              "name": "name",
              "type": "string"
            },
            {
              "internalType": "string",
              "name": "description",
              "type": "string"
            },
            {
              "internalType": "string",
              "name": "cid",
              "type": "string"
            },
            {
              "internalType": "string",
              "name": "cidName",
              "type": "string"
            },
            {
              "internalType": "uint256",
              "name": "usersRequired",
              "type": "uint256"
            },
            {
              "internalType": "uint256",
              "name": "currentUsers",
              "type": "uint256"
            }
          ],
          "internalType": "struct EHR.Research[]",
          "name": "",
          "type": "tuple[]"
        }
      ],
      "stateMutability": "view",
      "type": "function"
    },
    {
      "inputs": [
        {
          "internalType": "address",
          "name": "orgAddress",
          "type": "address"
        }
      ],
      "name": "fetchOrganizationByAddress",
      "outputs": [
        {
          "components": [
            {
              "internalType": "address",
              "name": "orgAdd",
              "type": "address"
            },
            {
              "internalType": "string",
              "name": "name",
              "type": "string"
            },
            {
              "internalType": "string",
              "name": "emailId",
              "type": "string"
            },
            {
              "internalType": "string",
              "name": "contactNo",
              "type": "string"
            }
          ],
          "internalType": "struct EHR.ResearchOrg",
          "name": "",
          "type": "tuple"
        }
      ],
      "stateMutability": "view",
      "type": "function"
    },
    {
      "inputs": [
        {
          "internalType": "uint256",
          "name": "id",
          "type": "uint256"
        }
      ],
      "name": "fetchResearchById",
      "outputs": [
        {
          "components": [
            {
              "internalType": "uint256",
              "name": "id",
              "type": "uint256"
            },
            {
              "internalType": "address",
              "name": "orgAdd",
              "type": "address"
            },
            {
              "internalType": "string",
              "name": "name",
              "type": "string"
            },
            {
              "internalType": "string",
              "name": "description",
              "type": "string"
            },
            {
              "internalType": "string",
              "name": "cid",
              "type": "string"
            },
            {
              "internalType": "string",
              "name": "cidName",
              "type": "string"
            },
            {
              "internalType": "uint256",
              "name": "usersRequired",
              "type": "uint256"
            },
            {
              "internalType": "uint256",
              "name": "currentUsers",
              "type": "uint256"
            }
          ],
          "internalType": "struct EHR.Research",
          "name": "",
          "type": "tuple"
        }
      ],
      "stateMutability": "view",
      "type": "function"
    },
    {
      "inputs": [
        {
          "internalType": "address",
          "name": "userAddress",
          "type": "address"
        }
      ],
      "name": "fetchUserByAddress",
      "outputs": [
        {
          "components": [
            {
              "internalType": "address",
              "name": "userAdd",
              "type": "address"
            },
            {
              "internalType": "string",
              "name": "name",
              "type": "string"
            },
            {
              "internalType": "string",
              "name": "personalAdd",
              "type": "string"
            },
            {
              "internalType": "string",
              "name": "emailId",
              "type": "string"
            },
            {
              "internalType": "string",
              "name": "mobileNo",
              "type": "string"
            },
            {
              "internalType": "uint256",
              "name": "gender",
              "type": "uint256"
            },
            {
              "internalType": "string",
              "name": "dob",
              "type": "string"
            }
          ],
          "internalType": "struct EHR.User",
          "name": "",
          "type": "tuple"
        }
      ],
      "stateMutability": "view",
      "type": "function"
    },
    {
      "inputs": [
        {
          "internalType": "address",
          "name": "userAddress",
          "type": "address"
        }
      ],
      "name": "fetchUserDocumentsForHospital",
      "outputs": [
        {
          "components": [
            {
              "internalType": "address",
              "name": "userAdd",
              "type": "address"
            },
            {
              "internalType": "address",
              "name": "hosAdd",
              "type": "address"
            },
            {
              "internalType": "string",
              "name": "docName",
              "type": "string"
            },
            {
              "internalType": "string",
              "name": "recordHash",
              "type": "string"
            },
            {
              "internalType": "string",
              "name": "recordName",
              "type": "string"
            },
            {
              "internalType": "string",
              "name": "issueDate",
              "type": "string"
            },
            {
              "internalType": "string",
              "name": "testSuggested",
              "type": "string"
            }
          ],
          "internalType": "struct EHR.Record[]",
          "name": "",
          "type": "tuple[]"
        }
      ],
      "stateMutability": "view",
      "type": "function"
    },
    {
      "inputs": [
        {
          "internalType": "address",
          "name": "userAddress",
          "type": "address"
        }
      ],
      "name": "fetchUserDocumentsForInsuranceComp",
      "outputs": [
        {
          "components": [
            {
              "internalType": "address",
              "name": "userAdd",
              "type": "address"
            },
            {
              "internalType": "address",
              "name": "hosAdd",
              "type": "address"
            },
            {
              "internalType": "string",
              "name": "docName",
              "type": "string"
            },
            {
              "internalType": "string",
              "name": "recordHash",
              "type": "string"
            },
            {
              "internalType": "string",
              "name": "recordName",
              "type": "string"
            },
            {
              "internalType": "string",
              "name": "issueDate",
              "type": "string"
            },
            {
              "internalType": "string",
              "name": "testSuggested",
              "type": "string"
            }
          ],
          "internalType": "struct EHR.Record[]",
          "name": "",
          "type": "tuple[]"
        }
      ],
      "stateMutability": "view",
      "type": "function"
    },
    {
      "inputs": [
        {
          "internalType": "address",
          "name": "userAddress",
          "type": "address"
        },
        {
          "internalType": "uint256",
          "name": "researchId",
          "type": "uint256"
        }
      ],
      "name": "fetchUserDocumentsForResearch",
      "outputs": [
        {
          "components": [
            {
              "internalType": "address",
              "name": "userAdd",
              "type": "address"
            },
            {
              "internalType": "address",
              "name": "hosAdd",
              "type": "address"
            },
            {
              "internalType": "string",
              "name": "docName",
              "type": "string"
            },
            {
              "internalType": "string",
              "name": "recordHash",
              "type": "string"
            },
            {
              "internalType": "string",
              "name": "recordName",
              "type": "string"
            },
            {
              "internalType": "string",
              "name": "issueDate",
              "type": "string"
            },
            {
              "internalType": "string",
              "name": "testSuggested",
              "type": "string"
            }
          ],
          "internalType": "struct EHR.Record[]",
          "name": "",
          "type": "tuple[]"
        }
      ],
      "stateMutability": "view",
      "type": "function"
    },
    {
      "inputs": [],
      "name": "getAllHospitalRecords",
      "outputs": [
        {
          "components": [
            {
              "internalType": "address",
              "name": "userAdd",
              "type": "address"
            },
            {
              "internalType": "address",
              "name": "hosAdd",
              "type": "address"
            },
            {
              "internalType": "string",
              "name": "docName",
              "type": "string"
            },
            {
              "internalType": "string",
              "name": "recordHash",
              "type": "string"
            },
            {
              "internalType": "string",
              "name": "recordName",
              "type": "string"
            },
            {
              "internalType": "string",
              "name": "issueDate",
              "type": "string"
            },
            {
              "internalType": "string",
              "name": "testSuggested",
              "type": "string"
            }
          ],
          "internalType": "struct EHR.Record[]",
          "name": "",
          "type": "tuple[]"
        }
      ],
      "stateMutability": "view",
      "type": "function"
    },
    {
      "inputs": [
        {
          "internalType": "address",
          "name": "hospitalAddress",
          "type": "address"
        }
      ],
      "name": "grantAccessToHospital",
      "outputs": [],
      "stateMutability": "nonpayable",
      "type": "function"
    },
    {
      "inputs": [
        {
          "internalType": "address",
          "name": "insuranceCompAddress",
          "type": "address"
        }
      ],
      "name": "grantAccessToInsuranceComp",
      "outputs": [],
      "stateMutability": "payable",
      "type": "function"
    },
    {
      "inputs": [
        {
          "internalType": "uint256",
          "name": "researchId",
          "type": "uint256"
        }
      ],
      "name": "grantAccessToResearch",
      "outputs": [],
      "stateMutability": "payable",
      "type": "function"
    },
    {
      "inputs": [
        {
          "internalType": "address",
          "name": "userAddress",
          "type": "address"
        },
        {
          "internalType": "address",
          "name": "hospitalAddress",
          "type": "address"
        }
      ],
      "name": "hasUserRecordAccessForHospital",
      "outputs": [
        {
          "internalType": "bool",
          "name": "",
          "type": "bool"
        }
      ],
      "stateMutability": "view",
      "type": "function"
    },
    {
      "inputs": [
        {
          "internalType": "address",
          "name": "userAddress",
          "type": "address"
        },
        {
          "internalType": "address",
          "name": "insuranceCompAddress",
          "type": "address"
        }
      ],
      "name": "hasUserRecordAccessForInsuranceComp",
      "outputs": [
        {
          "internalType": "bool",
          "name": "",
          "type": "bool"
        }
      ],
      "stateMutability": "view",
      "type": "function"
    },
    {
      "inputs": [
        {
          "internalType": "address",
          "name": "userAddress",
          "type": "address"
        },
        {
          "internalType": "uint256",
          "name": "researchId",
          "type": "uint256"
        }
      ],
      "name": "hasUserRecordAccessForResearch",
      "outputs": [
        {
          "internalType": "bool",
          "name": "",
          "type": "bool"
        }
      ],
      "stateMutability": "view",
      "type": "function"
    },
    {
      "inputs": [
        {
          "internalType": "string",
          "name": "name",
          "type": "string"
        },
        {
          "internalType": "string",
          "name": "personalAdd",
          "type": "string"
        },
        {
          "internalType": "string",
          "name": "emailId",
          "type": "string"
        },
        {
          "internalType": "string",
          "name": "mobileNo",
          "type": "string"
        }
      ],
      "name": "registerHospital",
      "outputs": [],
      "stateMutability": "nonpayable",
      "type": "function"
    },
    {
      "inputs": [
        {
          "internalType": "string",
          "name": "name",
          "type": "string"
        },
        {
          "internalType": "string",
          "name": "emailId",
          "type": "string"
        },
        {
          "internalType": "string",
          "name": "mobileNo",
          "type": "string"
        }
      ],
      "name": "registerInsuranceComp",
      "outputs": [],
      "stateMutability": "nonpayable",
      "type": "function"
    },
    {
      "inputs": [
        {
          "internalType": "string",
          "name": "name",
          "type": "string"
        },
        {
          "internalType": "string",
          "name": "emailId",
          "type": "string"
        },
        {
          "internalType": "string",
          "name": "mobileNo",
          "type": "string"
        }
      ],
      "name": "registerResearchOrg",
      "outputs": [],
      "stateMutability": "nonpayable",
      "type": "function"
    },
    {
      "inputs": [
        {
          "internalType": "string",
          "name": "name",
          "type": "string"
        },
        {
          "internalType": "string",
          "name": "personalAdd",
          "type": "string"
        },
        {
          "internalType": "string",
          "name": "emailId",
          "type": "string"
        },
        {
          "internalType": "string",
          "name": "mobileNo",
          "type": "string"
        },
        {
          "internalType": "uint256",
          "name": "gender",
          "type": "uint256"
        },
        {
          "internalType": "string",
          "name": "dob",
          "type": "string"
        }
      ],
      "name": "registerUser",
      "outputs": [],
      "stateMutability": "nonpayable",
      "type": "function"
    },
    {
      "inputs": [
        {
          "internalType": "address",
          "name": "hospitalAddress",
          "type": "address"
        }
      ],
      "name": "removeAccessFromHospital",
      "outputs": [],
      "stateMutability": "nonpayable",
      "type": "function"
    },
    {
      "inputs": [
        {
          "internalType": "address",
          "name": "insuranceCompAddress",
          "type": "address"
        }
      ],
      "name": "removeAccessFromInsuranceComp",
      "outputs": [],
      "stateMutability": "nonpayable",
      "type": "function"
    },
    {
      "inputs": [
        {
          "internalType": "uint256",
          "name": "researchId",
          "type": "uint256"
        }
      ],
      "name": "removeAccessFromResearch",
      "outputs": [],
      "stateMutability": "payable",
      "type": "function"
    }
  ],
  "bytecode": "0x608060405234801561001057600080fd5b50600080546001600160a01b03191633179055615f5080620000336000396000f3fe6080604052600436106101895760003560e01c806302539bd81461018e5780630482aa82146101b0578063166fb618146101d857806318779cb4146101f85780631be8530e1461020b578063223a6d341461022d578063245e7f951461024d578063272620b91461026f5780632e6379871461029c5780633b24a952146102be5780633c51fad5146102e057806341bd117c146102f55780634630d73b146103085780634c828df8146103285780634df6f28d1461035857806354053ea814610378578063684217a61461038d578063849326f2146103a05780638a77987e146103c05780638add4579146103e05780638aeab380146104005780639d27643b146104225780639ea271d5146104425780639f900a181461046f578063b41531761461049c578063b6280060146104c9578063baa719dc146104e9578063c444411d146104fe578063c92507531461051e578063da8da7311461053e578063edf9e00a1461055e578063f8f625e91461057e578063f95ad8fd1461059e578063fd265a25146105b3575b600080fd5b34801561019a57600080fd5b506101ae6101a93660046153c3565b6105c6565b005b3480156101bc57600080fd5b506101c56106db565b6040519081526020015b60405180910390f35b3480156101e457600080fd5b506101ae6101f33660046154a3565b610769565b6101ae610206366004615562565b61089c565b34801561021757600080fd5b5061022061094a565b6040516101cf9190615679565b34801561023957600080fd5b506101ae6102483660046156db565b610d05565b34801561025957600080fd5b50610262610de6565b6040516101cf9190615762565b34801561027b57600080fd5b5061028f61028a366004615862565b611218565b6040516101cf919061587b565b3480156102a857600080fd5b506102b16114be565b6040516101cf91906158f1565b3480156102ca57600080fd5b506102d3611743565b6040516101cf91906159de565b3480156102ec57600080fd5b50610220611c0c565b6101ae610303366004615862565b611f3c565b34801561031457600080fd5b506101ae610323366004615562565b612048565b34801561033457600080fd5b50610348610343366004615a33565b6120f6565b60405190151581526020016101cf565b34801561036457600080fd5b506101ae610373366004615a66565b61219a565b34801561038457600080fd5b506102206122a2565b6101ae61039b366004615862565b612629565b3480156103ac57600080fd5b506102626103bb366004615562565b612776565b3480156103cc57600080fd5b506102626103db366004615562565b612bd8565b3480156103ec57600080fd5b506101ae6103fb366004615562565b613031565b34801561040c57600080fd5b5061041561315e565b6040516101cf9190615b86565b34801561042e57600080fd5b5061034861043d366004615bdb565b6134e0565b34801561044e57600080fd5b5061046261045d366004615562565b61356c565b6040516101cf9190615c05565b34801561047b57600080fd5b5061048f61048a366004615562565b61379a565b6040516101cf9190615c18565b3480156104a857600080fd5b506104bc6104b7366004615562565b613a41565b6040516101cf9190615c2b565b3480156104d557600080fd5b506101ae6104e43660046156db565b613c4c565b3480156104f557600080fd5b50610415613d2d565b34801561050a57600080fd5b50610262610519366004615bdb565b61403e565b34801561052a57600080fd5b50610462610539366004615562565b6144e7565b34801561054a57600080fd5b506102d3610559366004615862565b61453c565b34801561056a57600080fd5b506101ae610579366004615562565b6149ed565b34801561058a57600080fd5b50610348610599366004615a33565b614b14565b3480156105aa57600080fd5b50610262614baa565b6101ae6105c1366004615c3e565b614fea565b6040518060e00160405280876001600160a01b03168152602001336001600160a01b0316815260200186815260200185815260200184815260200183815260200182815250600960006003600081548092919061062290615d08565b9091555081526020808201929092526040908101600020835181546001600160a01b03199081166001600160a01b0392831617835593850151600183018054909516911617909255820151600282019061067c9082615da3565b50606082015160038201906106919082615da3565b50608082015160048201906106a69082615da3565b5060a082015160058201906106bb9082615da3565b5060c082015160068201906106d09082615da3565b505050505050505050565b3360009081526011602052604081205460ff1615156001036106fd5750600190565b3360009081526012602052604090205460ff16151560010361071f5750600290565b3360009081526013602052604090205460ff1615156001036107415750600390565b3360009081526014602052604090205460ff1615156001036107635750600490565b50600090565b6040518060e00160405280336001600160a01b031681526020018781526020018681526020018581526020018481526020018381526020018281525060076000600160008154809291906107bc90615d08565b909155508152602080820192909252604001600020825181546001600160a01b0319166001600160a01b039091161781559082015160018201906108009082615da3565b50604082015160028201906108159082615da3565b506060820151600382019061082a9082615da3565b506080820151600482019061083f9082615da3565b5060a0820151600582015560c0820151600682019061085e9082615da3565b50506001805461086e9250615e62565b336000908152600d60209081526040808320939093556011905220805460ff19166001179055505050505050565b6001600160a01b038116600090815260106020908152604080832054338452600d90925282205490915b6000828152601760205260409020548110156109275760008281526017602052604090208054849190839081106108ff576108ff615e75565b9060005260206000200154036109155750505050565b8061091f81615d08565b9150506108c6565b506000908152601760209081526040822080546001810182559083529120015550565b60606000805b60065481101561099d576000818152600c6020526040902060010154336001600160a01b039091160361098b57610988600183615e8b565b91505b8061099581615d08565b915050610950565b506000816001600160401b038111156109b8576109b8615321565b6040519080825280602002602001820160405280156109f157816020015b6109de6151b9565b8152602001906001900390816109d65790505b5090506000915060005b600654811015610cfe576000818152600c6020526040902060010154336001600160a01b0390911603610cec576000818152600c60209081526040918290208251610100810184528154815260018201546001600160a01b031692810192909252600281018054919384929084019190610a7490615d21565b80601f0160208091040260200160405190810160405280929190818152602001828054610aa090615d21565b8015610aed5780601f10610ac257610100808354040283529160200191610aed565b820191906000526020600020905b815481529060010190602001808311610ad057829003601f168201915b50505050508152602001600382018054610b0690615d21565b80601f0160208091040260200160405190810160405280929190818152602001828054610b3290615d21565b8015610b7f5780601f10610b5457610100808354040283529160200191610b7f565b820191906000526020600020905b815481529060010190602001808311610b6257829003601f168201915b50505050508152602001600482018054610b9890615d21565b80601f0160208091040260200160405190810160405280929190818152602001828054610bc490615d21565b8015610c115780601f10610be657610100808354040283529160200191610c11565b820191906000526020600020905b815481529060010190602001808311610bf457829003601f168201915b50505050508152602001600582018054610c2a90615d21565b80601f0160208091040260200160405190810160405280929190818152602001828054610c5690615d21565b8015610ca35780601f10610c7857610100808354040283529160200191610ca3565b820191906000526020600020905b815481529060010190602001808311610c8657829003601f168201915b5050505050815260200160068201548152602001600782015481525050838581518110610cd257610cd2615e75565b6020908102919091010152610ce8600185615e8b565b9350505b80610cf681615d08565b9150506109fb565b5092915050565b60408051608081018252338152602081018590529081018390526060810182905260048054600a916000919082610d3b83615d08565b909155508152602080820192909252604001600020825181546001600160a01b0319166001600160a01b03909116178155908201516001820190610d7f9082615da3565b5060408201516002820190610d949082615da3565b5060608201516003820190610da99082615da3565b5050600454610dbb9150600190615e62565b336000908152600f60209081526040808320939093556013905220805460ff19166001179055505050565b60606000805b600354811015610e3957600081815260096020526040902060010154336001600160a01b0390911603610e2757610e24600183615e8b565b91505b80610e3181615d08565b915050610dec565b506000816001600160401b03811115610e5457610e54615321565b604051908082528060200260200182016040528015610e8d57816020015b610e7a615207565b815260200190600190039081610e725790505b50905060005b600354811015610cfe57600081815260096020526040902060010154336001600160a01b039091160361120657600081815260096020908152604091829020825160e08101845281546001600160a01b039081168252600183015416928101929092526002810180548594929392849290840191610f1090615d21565b80601f0160208091040260200160405190810160405280929190818152602001828054610f3c90615d21565b8015610f895780601f10610f5e57610100808354040283529160200191610f89565b820191906000526020600020905b815481529060010190602001808311610f6c57829003601f168201915b50505050508152602001600382018054610fa290615d21565b80601f0160208091040260200160405190810160405280929190818152602001828054610fce90615d21565b801561101b5780601f10610ff05761010080835404028352916020019161101b565b820191906000526020600020905b815481529060010190602001808311610ffe57829003601f168201915b5050505050815260200160048201805461103490615d21565b80601f016020809104026020016040519081016040528092919081815260200182805461106090615d21565b80156110ad5780601f10611082576101008083540402835291602001916110ad565b820191906000526020600020905b81548152906001019060200180831161109057829003601f168201915b505050505081526020016005820180546110c690615d21565b80601f01602080910402602001604051908101604052809291908181526020018280546110f290615d21565b801561113f5780601f106111145761010080835404028352916020019161113f565b820191906000526020600020905b81548152906001019060200180831161112257829003601f168201915b5050505050815260200160068201805461115890615d21565b80601f016020809104026020016040519081016040528092919081815260200182805461118490615d21565b80156111d15780601f106111a6576101008083540402835291602001916111d1565b820191906000526020600020905b8154815290600101906020018083116111b457829003601f168201915b5050505050815250508483815181106111ec576111ec615e75565b6020908102919091010152611202600183615e8b565b5050505b8061121081615d08565b915050610e93565b6112206151b9565b6000828152600c60209081526040918290208251610100810184528154815260018201546001600160a01b031692810192909252600281018054929391929184019161126b90615d21565b80601f016020809104026020016040519081016040528092919081815260200182805461129790615d21565b80156112e45780601f106112b9576101008083540402835291602001916112e4565b820191906000526020600020905b8154815290600101906020018083116112c757829003601f168201915b505050505081526020016003820180546112fd90615d21565b80601f016020809104026020016040519081016040528092919081815260200182805461132990615d21565b80156113765780601f1061134b57610100808354040283529160200191611376565b820191906000526020600020905b81548152906001019060200180831161135957829003601f168201915b5050505050815260200160048201805461138f90615d21565b80601f01602080910402602001604051908101604052809291908181526020018280546113bb90615d21565b80156114085780601f106113dd57610100808354040283529160200191611408565b820191906000526020600020905b8154815290600101906020018083116113eb57829003601f168201915b5050505050815260200160058201805461142190615d21565b80601f016020809104026020016040519081016040528092919081815260200182805461144d90615d21565b801561149a5780601f1061146f5761010080835404028352916020019161149a565b820191906000526020600020905b81548152906001019060200180831161147d57829003601f168201915b50505050508152602001600682015481526020016007820154815250509050919050565b606060006005546001600160401b038111156114dc576114dc615321565b60405190808252806020026020018201604052801561151557816020015b611502615256565b8152602001906001900390816114fa5790505b50905060005b60055481101561173d576000818152600b602090815260409182902082516080810190935280546001600160a01b031683526001810180549193928492908401919061156690615d21565b80601f016020809104026020016040519081016040528092919081815260200182805461159290615d21565b80156115df5780601f106115b4576101008083540402835291602001916115df565b820191906000526020600020905b8154815290600101906020018083116115c257829003601f168201915b505050505081526020016002820180546115f890615d21565b80601f016020809104026020016040519081016040528092919081815260200182805461162490615d21565b80156116715780601f1061164657610100808354040283529160200191611671565b820191906000526020600020905b81548152906001019060200180831161165457829003601f168201915b5050505050815260200160038201805461168a90615d21565b80601f01602080910402602001604051908101604052809291908181526020018280546116b690615d21565b80156117035780601f106116d857610100808354040283529160200191611703565b820191906000526020600020905b8154815290600101906020018083116116e657829003601f168201915b50505050508152505083838151811061171e5761171e615e75565b602002602001018190525050808061173590615d08565b91505061151b565b50919050565b3360009081526010602052604081205460609190815b6001548110156117e65760005b6000828152601760205260409020548110156117d357600082815260176020526040902080548491908390811061179f5761179f615e75565b9060005260206000200154036117c1576117ba600185615e8b565b93506117d3565b806117cb81615d08565b915050611766565b50806117de81615d08565b915050611759565b506000826001600160401b0381111561180157611801615321565b60405190808252806020026020018201604052801561183a57816020015b611827615287565b81526020019060019003908161181f5790505b5090506000925060005b600154811015611c045760005b600082815260176020526040902054811015611bf157600082815260176020526040902080548591908390811061188a5761188a615e75565b906000526020600020015403611bdf57600082815260076020908152604091829020825160e0810190935280546001600160a01b03168352600181018054919392849290840191906118db90615d21565b80601f016020809104026020016040519081016040528092919081815260200182805461190790615d21565b80156119545780601f1061192957610100808354040283529160200191611954565b820191906000526020600020905b81548152906001019060200180831161193757829003601f168201915b5050505050815260200160028201805461196d90615d21565b80601f016020809104026020016040519081016040528092919081815260200182805461199990615d21565b80156119e65780601f106119bb576101008083540402835291602001916119e6565b820191906000526020600020905b8154815290600101906020018083116119c957829003601f168201915b505050505081526020016003820180546119ff90615d21565b80601f0160208091040260200160405190810160405280929190818152602001828054611a2b90615d21565b8015611a785780601f10611a4d57610100808354040283529160200191611a78565b820191906000526020600020905b815481529060010190602001808311611a5b57829003601f168201915b50505050508152602001600482018054611a9190615d21565b80601f0160208091040260200160405190810160405280929190818152602001828054611abd90615d21565b8015611b0a5780601f10611adf57610100808354040283529160200191611b0a565b820191906000526020600020905b815481529060010190602001808311611aed57829003601f168201915b5050505050815260200160058201548152602001600682018054611b2d90615d21565b80601f0160208091040260200160405190810160405280929190818152602001828054611b5990615d21565b8015611ba65780601f10611b7b57610100808354040283529160200191611ba6565b820191906000526020600020905b815481529060010190602001808311611b8957829003601f168201915b505050505081525050848781518110611bc157611bc1615e75565b6020908102919091010152611bd7600187615e8b565b955050611bf1565b80611be981615d08565b915050611851565b5080611bfc81615d08565b915050611844565b509392505050565b606060006006546001600160401b03811115611c2a57611c2a615321565b604051908082528060200260200182016040528015611c6357816020015b611c506151b9565b815260200190600190039081611c485790505b50905060005b60065481101561173d576000818152600c60209081526040918290208251610100810184528154815260018201546001600160a01b031692810192909252600281018054919384929084019190611cbf90615d21565b80601f0160208091040260200160405190810160405280929190818152602001828054611ceb90615d21565b8015611d385780601f10611d0d57610100808354040283529160200191611d38565b820191906000526020600020905b815481529060010190602001808311611d1b57829003601f168201915b50505050508152602001600382018054611d5190615d21565b80601f0160208091040260200160405190810160405280929190818152602001828054611d7d90615d21565b8015611dca5780601f10611d9f57610100808354040283529160200191611dca565b820191906000526020600020905b815481529060010190602001808311611dad57829003601f168201915b50505050508152602001600482018054611de390615d21565b80601f0160208091040260200160405190810160405280929190818152602001828054611e0f90615d21565b8015611e5c5780601f10611e3157610100808354040283529160200191611e5c565b820191906000526020600020905b815481529060010190602001808311611e3f57829003601f168201915b50505050508152602001600582018054611e7590615d21565b80601f0160208091040260200160405190810160405280929190818152602001828054611ea190615d21565b8015611eee5780601f10611ec357610100808354040283529160200191611eee565b820191906000526020600020905b815481529060010190602001808311611ed157829003601f168201915b5050505050815260200160068201548152602001600782015481525050838381518110611f1d57611f1d615e75565b6020026020010181905250508080611f3490615d08565b915050611c69565b336000908152600d6020526040812054905b600082815260166020526040902054811015611fae576000828152601660205260409020805484919083908110611f8757611f87615e75565b906000526020600020015403611f9c57505050565b80611fa681615d08565b915050611f4e565b50600081815260166020908152604080832080546001818101835591855283852001869055858452600c9092528220600701805491929091611ff1908490615e8b565b90915550506000828152600c60205260409020600781015460069091015411612044576040513390600090655af3107a40009082818181858883f19350505050158015612042573d6000803e3d6000fd5b505b5050565b6001600160a01b0381166000908152600e6020908152604080832054338452600d90925282205490915b6000828152601560205260409020548110156120d35760008281526015602052604090208054849190839081106120ab576120ab615e75565b9060005260206000200154036120c15750505050565b806120cb81615d08565b915050612072565b506000908152601560209081526040822080546001810182559083529120015550565b6001600160a01b038083166000908152600d60209081526040808320549385168352600e909152812054909190825b60008381526015602052604090205481101561218c57600083815260156020526040902080548391908390811061215e5761215e615e75565b90600052602060002001540361217a5760019350505050612194565b8061218481615d08565b915050612125565b506000925050505b92915050565b6040518060a00160405280336001600160a01b031681526020018581526020018481526020018381526020018281525060086000600260008154809291906121e190615d08565b909155508152602080820192909252604001600020825181546001600160a01b0319166001600160a01b039091161781559082015160018201906122259082615da3565b506040820151600282019061223a9082615da3565b506060820151600382019061224f9082615da3565b50608082015160048201906122649082615da3565b50506002546122769150600190615e62565b336000908152600e60209081526040808320939093556012905220805460ff1916600117905550505050565b336000908152600d60209081526040808320548084526016909252822054606092906001600160401b038111156122db576122db615321565b60405190808252806020026020018201604052801561231457816020015b6123016151b9565b8152602001906001900390816122f95790505b50905060005b600083815260166020526040902054811015610cfe5760008381526016602052604081208054600c9183918590811061235557612355615e75565b6000918252602080832090910154835282810193909352604091820190208151610100810183528154815260018201546001600160a01b03169381019390935260028101805491945084928401916123ac90615d21565b80601f01602080910402602001604051908101604052809291908181526020018280546123d890615d21565b80156124255780601f106123fa57610100808354040283529160200191612425565b820191906000526020600020905b81548152906001019060200180831161240857829003601f168201915b5050505050815260200160038201805461243e90615d21565b80601f016020809104026020016040519081016040528092919081815260200182805461246a90615d21565b80156124b75780601f1061248c576101008083540402835291602001916124b7565b820191906000526020600020905b81548152906001019060200180831161249a57829003601f168201915b505050505081526020016004820180546124d090615d21565b80601f01602080910402602001604051908101604052809291908181526020018280546124fc90615d21565b80156125495780601f1061251e57610100808354040283529160200191612549565b820191906000526020600020905b81548152906001019060200180831161252c57829003601f168201915b5050505050815260200160058201805461256290615d21565b80601f016020809104026020016040519081016040528092919081815260200182805461258e90615d21565b80156125db5780601f106125b0576101008083540402835291602001916125db565b820191906000526020600020905b8154815290600101906020018083116125be57829003601f168201915b505050505081526020016006820154815260200160078201548152505083838151811061260a5761260a615e75565b602002602001018190525050808061262190615d08565b91505061231a565b34655af3107a40001461263b57600080fd5b336000908152600d6020526040812054905b60008281526016602052604090205481101561204257600082815260166020526040902080548491908390811061268657612686615e75565b90600052602060002001540361276457600082815260166020526040902080546126b290600190615e62565b815481106126c2576126c2615e75565b90600052602060002001546016600084815260200190815260200160002082815481106126f1576126f1615e75565b90600052602060002001819055506016600083815260200190815260200160002080548061272157612721615e9e565b600190038181906000526020600020016000905590556001600c6000858152602001908152602001600020600701600082825461275e9190615e62565b90915550505b8061276e81615d08565b91505061264d565b606061278282336120f6565b15156001146127ac5760405162461bcd60e51b81526004016127a390615eb4565b60405180910390fd5b6000805b6003548110156127fb576000818152600960205260409020546001600160a01b038086169116036127e9576127e6600183615e8b565b91505b806127f381615d08565b9150506127b0565b506000816001600160401b0381111561281657612816615321565b60405190808252806020026020018201604052801561284f57816020015b61283c615207565b8152602001906001900390816128345790505b50905060005b600354811015611c04576000818152600960205260409020546001600160a01b03808716911603612bc657600081815260096020908152604091829020825160e08101845281546001600160a01b0390811682526001830154169281019290925260028101805485949293928492908401916128d090615d21565b80601f01602080910402602001604051908101604052809291908181526020018280546128fc90615d21565b80156129495780601f1061291e57610100808354040283529160200191612949565b820191906000526020600020905b81548152906001019060200180831161292c57829003601f168201915b5050505050815260200160038201805461296290615d21565b80601f016020809104026020016040519081016040528092919081815260200182805461298e90615d21565b80156129db5780601f106129b0576101008083540402835291602001916129db565b820191906000526020600020905b8154815290600101906020018083116129be57829003601f168201915b505050505081526020016004820180546129f490615d21565b80601f0160208091040260200160405190810160405280929190818152602001828054612a2090615d21565b8015612a6d5780601f10612a4257610100808354040283529160200191612a6d565b820191906000526020600020905b815481529060010190602001808311612a5057829003601f168201915b50505050508152602001600582018054612a8690615d21565b80601f0160208091040260200160405190810160405280929190818152602001828054612ab290615d21565b8015612aff5780601f10612ad457610100808354040283529160200191612aff565b820191906000526020600020905b815481529060010190602001808311612ae257829003601f168201915b50505050508152602001600682018054612b1890615d21565b80601f0160208091040260200160405190810160405280929190818152602001828054612b4490615d21565b8015612b915780601f10612b6657610100808354040283529160200191612b91565b820191906000526020600020905b815481529060010190602001808311612b7457829003601f168201915b505050505081525050848381518110612bac57612bac615e75565b6020908102919091010152612bc2600183615e8b565b5050505b80612bd081615d08565b915050612855565b6060612be48233614b14565b1515600114612c055760405162461bcd60e51b81526004016127a390615eb4565b6000805b600354811015612c54576000818152600960205260409020546001600160a01b03808616911603612c4257612c3f600183615e8b565b91505b80612c4c81615d08565b915050612c09565b506000816001600160401b03811115612c6f57612c6f615321565b604051908082528060200260200182016040528015612ca857816020015b612c95615207565b815260200190600190039081612c8d5790505b50905060005b600354811015611c04576000818152600960205260409020546001600160a01b0380871691160361301f57600081815260096020908152604091829020825160e08101845281546001600160a01b039081168252600183015416928101929092526002810180548594929392849290840191612d2990615d21565b80601f0160208091040260200160405190810160405280929190818152602001828054612d5590615d21565b8015612da25780601f10612d7757610100808354040283529160200191612da2565b820191906000526020600020905b815481529060010190602001808311612d8557829003601f168201915b50505050508152602001600382018054612dbb90615d21565b80601f0160208091040260200160405190810160405280929190818152602001828054612de790615d21565b8015612e345780601f10612e0957610100808354040283529160200191612e34565b820191906000526020600020905b815481529060010190602001808311612e1757829003601f168201915b50505050508152602001600482018054612e4d90615d21565b80601f0160208091040260200160405190810160405280929190818152602001828054612e7990615d21565b8015612ec65780601f10612e9b57610100808354040283529160200191612ec6565b820191906000526020600020905b815481529060010190602001808311612ea957829003601f168201915b50505050508152602001600582018054612edf90615d21565b80601f0160208091040260200160405190810160405280929190818152602001828054612f0b90615d21565b8015612f585780601f10612f2d57610100808354040283529160200191612f58565b820191906000526020600020905b815481529060010190602001808311612f3b57829003601f168201915b50505050508152602001600682018054612f7190615d21565b80601f0160208091040260200160405190810160405280929190818152602001828054612f9d90615d21565b8015612fea5780601f10612fbf57610100808354040283529160200191612fea565b820191906000526020600020905b815481529060010190602001808311612fcd57829003601f168201915b50505050508152505084838151811061300557613005615e75565b602090810291909101015261301b600183615e8b565b5050505b8061302981615d08565b915050612cae565b6001600160a01b038116600090815260106020908152604080832054338452600d90925282205490915b60008281526017602052604090205481101561315857600082815260176020526040902080548491908390811061309457613094615e75565b90600052602060002001540361314657600082815260176020526040902080546130c090600190615e62565b815481106130d0576130d0615e75565b90600052602060002001546017600084815260200190815260200160002082815481106130ff576130ff615e75565b90600052602060002001819055506017600083815260200190815260200160002080548061312f5761312f615e9e565b600190038181906000526020600020016000905590555b8061315081615d08565b91505061305b565b50505050565b336000908152600d60209081526040808320548084526015909252822054606092906001600160401b0381111561319757613197615321565b6040519080825280602002602001820160405280156131d057816020015b6131bd6152cd565b8152602001906001900390816131b55790505b50905060005b600083815260156020526040902054811015610cfe576000838152601560205260408120805460089183918590811061321157613211615e75565b906000526020600020015481526020019081526020016000209050806040518060a00160405290816000820160009054906101000a90046001600160a01b03166001600160a01b03166001600160a01b0316815260200160018201805461327790615d21565b80601f01602080910402602001604051908101604052809291908181526020018280546132a390615d21565b80156132f05780601f106132c5576101008083540402835291602001916132f0565b820191906000526020600020905b8154815290600101906020018083116132d357829003601f168201915b5050505050815260200160028201805461330990615d21565b80601f016020809104026020016040519081016040528092919081815260200182805461333590615d21565b80156133825780601f1061335757610100808354040283529160200191613382565b820191906000526020600020905b81548152906001019060200180831161336557829003601f168201915b5050505050815260200160038201805461339b90615d21565b80601f01602080910402602001604051908101604052809291908181526020018280546133c790615d21565b80156134145780601f106133e957610100808354040283529160200191613414565b820191906000526020600020905b8154815290600101906020018083116133f757829003601f168201915b5050505050815260200160048201805461342d90615d21565b80601f016020809104026020016040519081016040528092919081815260200182805461345990615d21565b80156134a65780601f1061347b576101008083540402835291602001916134a6565b820191906000526020600020905b81548152906001019060200180831161348957829003601f168201915b5050505050815250508383815181106134c1576134c1615e75565b60200260200101819052505080806134d890615d08565b9150506131d6565b6001600160a01b0382166000908152600d6020526040812054815b60008281526016602052604090205481101561356157600082815260166020526040902080548591908390811061353457613534615e75565b90600052602060002001540361354f57600192505050612194565b8061355981615d08565b9150506134fb565b506000949350505050565b6135a0604051806080016040528060006001600160a01b031681526020016060815260200160608152602001606081525090565b6001600160a01b038083166000908152600f60209081526040808320548352600a82529182902082516080810190935280549093168252600183018054929392918401916135ed90615d21565b80601f016020809104026020016040519081016040528092919081815260200182805461361990615d21565b80156136665780601f1061363b57610100808354040283529160200191613666565b820191906000526020600020905b81548152906001019060200180831161364957829003601f168201915b5050505050815260200160028201805461367f90615d21565b80601f01602080910402602001604051908101604052809291908181526020018280546136ab90615d21565b80156136f85780601f106136cd576101008083540402835291602001916136f8565b820191906000526020600020905b8154815290600101906020018083116136db57829003601f168201915b5050505050815260200160038201805461371190615d21565b80601f016020809104026020016040519081016040528092919081815260200182805461373d90615d21565b801561378a5780601f1061375f5761010080835404028352916020019161378a565b820191906000526020600020905b81548152906001019060200180831161376d57829003601f168201915b5050505050815250509050919050565b6137a2615287565b6001600160a01b038083166000908152600d602090815260408083205483526007825291829020825160e0810190935280549093168252600183018054929392918401916137ef90615d21565b80601f016020809104026020016040519081016040528092919081815260200182805461381b90615d21565b80156138685780601f1061383d57610100808354040283529160200191613868565b820191906000526020600020905b81548152906001019060200180831161384b57829003601f168201915b5050505050815260200160028201805461388190615d21565b80601f01602080910402602001604051908101604052809291908181526020018280546138ad90615d21565b80156138fa5780601f106138cf576101008083540402835291602001916138fa565b820191906000526020600020905b8154815290600101906020018083116138dd57829003601f168201915b5050505050815260200160038201805461391390615d21565b80601f016020809104026020016040519081016040528092919081815260200182805461393f90615d21565b801561398c5780601f106139615761010080835404028352916020019161398c565b820191906000526020600020905b81548152906001019060200180831161396f57829003601f168201915b505050505081526020016004820180546139a590615d21565b80601f01602080910402602001604051908101604052809291908181526020018280546139d190615d21565b8015613a1e5780601f106139f357610100808354040283529160200191613a1e565b820191906000526020600020905b815481529060010190602001808311613a0157829003601f168201915b505050505081526020016005820154815260200160068201805461371190615d21565b613a496152cd565b6001600160a01b038083166000908152600e602090815260408083205483526008825291829020825160a081019093528054909316825260018301805492939291840191613a9690615d21565b80601f0160208091040260200160405190810160405280929190818152602001828054613ac290615d21565b8015613b0f5780601f10613ae457610100808354040283529160200191613b0f565b820191906000526020600020905b815481529060010190602001808311613af257829003601f168201915b50505050508152602001600282018054613b2890615d21565b80601f0160208091040260200160405190810160405280929190818152602001828054613b5490615d21565b8015613ba15780601f10613b7657610100808354040283529160200191613ba1565b820191906000526020600020905b815481529060010190602001808311613b8457829003601f168201915b50505050508152602001600382018054613bba90615d21565b80601f0160208091040260200160405190810160405280929190818152602001828054613be690615d21565b8015613c335780601f10613c0857610100808354040283529160200191613c33565b820191906000526020600020905b815481529060010190602001808311613c1657829003601f168201915b5050505050815260200160048201805461371190615d21565b60408051608081018252338152602081018590529081018390526060810182905260058054600b916000919082613c8283615d08565b909155508152602080820192909252604001600020825181546001600160a01b0319166001600160a01b03909116178155908201516001820190613cc69082615da3565b5060408201516002820190613cdb9082615da3565b5060608201516003820190613cf09082615da3565b5050600554613d029150600190615e62565b336000908152601060209081526040808320939093556014905220805460ff19166001179055505050565b606060006002546001600160401b03811115613d4b57613d4b615321565b604051908082528060200260200182016040528015613d8457816020015b613d716152cd565b815260200190600190039081613d695790505b50905060005b60025481101561173d57600081815260086020908152604091829020825160a0810190935280546001600160a01b0316835260018101805491939284929084019190613dd590615d21565b80601f0160208091040260200160405190810160405280929190818152602001828054613e0190615d21565b8015613e4e5780601f10613e2357610100808354040283529160200191613e4e565b820191906000526020600020905b815481529060010190602001808311613e3157829003601f168201915b50505050508152602001600282018054613e6790615d21565b80601f0160208091040260200160405190810160405280929190818152602001828054613e9390615d21565b8015613ee05780601f10613eb557610100808354040283529160200191613ee0565b820191906000526020600020905b815481529060010190602001808311613ec357829003601f168201915b50505050508152602001600382018054613ef990615d21565b80601f0160208091040260200160405190810160405280929190818152602001828054613f2590615d21565b8015613f725780601f10613f4757610100808354040283529160200191613f72565b820191906000526020600020905b815481529060010190602001808311613f5557829003601f168201915b50505050508152602001600482018054613f8b90615d21565b80601f0160208091040260200160405190810160405280929190818152602001828054613fb790615d21565b80156140045780601f10613fd957610100808354040283529160200191614004565b820191906000526020600020905b815481529060010190602001808311613fe757829003601f168201915b50505050508152505083838151811061401f5761401f615e75565b602002602001018190525050808061403690615d08565b915050613d8a565b606061404a83836134e0565b15156001146140b25760405162461bcd60e51b815260206004820152602e60248201527f446f6573206e6f7420686173207468652061636365737320746f20666574636860448201526d2074686520646f63756d656e747360901b60648201526084016127a3565b6000805b600354811015614101576000818152600960205260409020546001600160a01b038087169116036140ef576140ec600183615e8b565b91505b806140f981615d08565b9150506140b6565b506000816001600160401b0381111561411c5761411c615321565b60405190808252806020026020018201604052801561415557816020015b614142615207565b81526020019060019003908161413a5790505b50905060005b6003548110156144de576000818152600960205260409020546001600160a01b038088169116036144cc57600081815260096020908152604091829020825160e08101845281546001600160a01b0390811682526001830154169281019290925260028101805485949293928492908401916141d690615d21565b80601f016020809104026020016040519081016040528092919081815260200182805461420290615d21565b801561424f5780601f106142245761010080835404028352916020019161424f565b820191906000526020600020905b81548152906001019060200180831161423257829003601f168201915b5050505050815260200160038201805461426890615d21565b80601f016020809104026020016040519081016040528092919081815260200182805461429490615d21565b80156142e15780601f106142b6576101008083540402835291602001916142e1565b820191906000526020600020905b8154815290600101906020018083116142c457829003601f168201915b505050505081526020016004820180546142fa90615d21565b80601f016020809104026020016040519081016040528092919081815260200182805461432690615d21565b80156143735780601f1061434857610100808354040283529160200191614373565b820191906000526020600020905b81548152906001019060200180831161435657829003601f168201915b5050505050815260200160058201805461438c90615d21565b80601f01602080910402602001604051908101604052809291908181526020018280546143b890615d21565b80156144055780601f106143da57610100808354040283529160200191614405565b820191906000526020600020905b8154815290600101906020018083116143e857829003601f168201915b5050505050815260200160068201805461441e90615d21565b80601f016020809104026020016040519081016040528092919081815260200182805461444a90615d21565b80156144975780601f1061446c57610100808354040283529160200191614497565b820191906000526020600020905b81548152906001019060200180831161447a57829003601f168201915b5050505050815250508483815181106144b2576144b2615e75565b60209081029190910101526144c8600183615e8b565b5050505b806144d681615d08565b91505061415b565b50949350505050565b6144ef615256565b6001600160a01b038083166000908152601060209081526040808320548352600b82529182902082516080810190935280549093168252600183018054929392918401916135ed90615d21565b60606000805b6001548110156145cf5760005b6000828152601660205260409020548110156145bc57600082815260166020526040902080548691908390811061458857614588615e75565b9060005260206000200154036145aa576145a3600184615e8b565b92506145bc565b806145b481615d08565b91505061454f565b50806145c781615d08565b915050614542565b506000816001600160401b038111156145ea576145ea615321565b60405190808252806020026020018201604052801561462357816020015b614610615287565b8152602001906001900390816146085790505b5090506000915060005b600154811015611c045760005b6000828152601660205260409020548110156149da57600082815260166020526040902080548791908390811061467357614673615e75565b9060005260206000200154036149c857600082815260076020908152604091829020825160e0810190935280546001600160a01b03168352600181018054919392849290840191906146c490615d21565b80601f01602080910402602001604051908101604052809291908181526020018280546146f090615d21565b801561473d5780601f106147125761010080835404028352916020019161473d565b820191906000526020600020905b81548152906001019060200180831161472057829003601f168201915b5050505050815260200160028201805461475690615d21565b80601f016020809104026020016040519081016040528092919081815260200182805461478290615d21565b80156147cf5780601f106147a4576101008083540402835291602001916147cf565b820191906000526020600020905b8154815290600101906020018083116147b257829003601f168201915b505050505081526020016003820180546147e890615d21565b80601f016020809104026020016040519081016040528092919081815260200182805461481490615d21565b80156148615780601f1061483657610100808354040283529160200191614861565b820191906000526020600020905b81548152906001019060200180831161484457829003601f168201915b5050505050815260200160048201805461487a90615d21565b80601f01602080910402602001604051908101604052809291908181526020018280546148a690615d21565b80156148f35780601f106148c8576101008083540402835291602001916148f3565b820191906000526020600020905b8154815290600101906020018083116148d657829003601f168201915b505050505081526020016005820154815260200160068201805461491690615d21565b80601f016020809104026020016040519081016040528092919081815260200182805461494290615d21565b801561498f5780601f106149645761010080835404028352916020019161498f565b820191906000526020600020905b81548152906001019060200180831161497257829003601f168201915b5050505050815250508486815181106149aa576149aa615e75565b60209081029190910101526149c0600186615e8b565b9450506149da565b806149d281615d08565b91505061463a565b50806149e581615d08565b91505061462d565b6001600160a01b0381166000908152600e6020908152604080832054338452600d90925282205490915b600082815260156020526040902054811015613158576000828152601560205260409020805484919083908110614a5057614a50615e75565b906000526020600020015403614b025760008281526015602052604090208054614a7c90600190615e62565b81548110614a8c57614a8c615e75565b9060005260206000200154601560008481526020019081526020016000208281548110614abb57614abb615e75565b906000526020600020018190555060156000838152602001908152602001600020805480614aeb57614aeb615e9e565b600190038181906000526020600020016000905590555b80614b0c81615d08565b915050614a17565b6001600160a01b038083166000908152600d602090815260408083205493851683526010909152812054909190825b60008381526017602052604090205481101561218c576000838152601760205260409020805483919083908110614b7c57614b7c615e75565b906000526020600020015403614b985760019350505050612194565b80614ba281615d08565b915050614b43565b60606000805b600354811015614bfa57600081815260096020526040902054336001600160a01b0390911603614be857614be5600183615e8b565b91505b80614bf281615d08565b915050614bb0565b50614c0481615150565b614c0f600354615150565b6000816001600160401b03811115614c2957614c29615321565b604051908082528060200260200182016040528015614c6257816020015b614c4f615207565b815260200190600190039081614c475790505b50905060005b600354811015610cfe57600081815260096020526040902054336001600160a01b0390911603614fd857600081815260096020908152604091829020825160e08101845281546001600160a01b039081168252600183015416928101929092526002810180548594929392849290840191614ce290615d21565b80601f0160208091040260200160405190810160405280929190818152602001828054614d0e90615d21565b8015614d5b5780601f10614d3057610100808354040283529160200191614d5b565b820191906000526020600020905b815481529060010190602001808311614d3e57829003601f168201915b50505050508152602001600382018054614d7490615d21565b80601f0160208091040260200160405190810160405280929190818152602001828054614da090615d21565b8015614ded5780601f10614dc257610100808354040283529160200191614ded565b820191906000526020600020905b815481529060010190602001808311614dd057829003601f168201915b50505050508152602001600482018054614e0690615d21565b80601f0160208091040260200160405190810160405280929190818152602001828054614e3290615d21565b8015614e7f5780601f10614e5457610100808354040283529160200191614e7f565b820191906000526020600020905b815481529060010190602001808311614e6257829003601f168201915b50505050508152602001600582018054614e9890615d21565b80601f0160208091040260200160405190810160405280929190818152602001828054614ec490615d21565b8015614f115780601f10614ee657610100808354040283529160200191614f11565b820191906000526020600020905b815481529060010190602001808311614ef457829003601f168201915b50505050508152602001600682018054614f2a90615d21565b80601f0160208091040260200160405190810160405280929190818152602001828054614f5690615d21565b8015614fa35780601f10614f7857610100808354040283529160200191614fa3565b820191906000526020600020905b815481529060010190602001808311614f8657829003601f168201915b505050505081525050848381518110614fbe57614fbe615e75565b6020908102919091010152614fd4600183615e8b565b5050505b80614fe281615d08565b915050614c68565b6000614ffc82655af3107a4000615f03565b905034811461504d5760405162461bcd60e51b815260206004820152601e60248201527f506c656173652070726f7669646520726571756972656420657468657273000060448201526064016127a3565b60408051610100810182526006548082523360208084019182528385018b8152606085018b9052608085018a905260a0850189905260c08501889052600060e08601819052938452600c909152939091208251815590516001820180546001600160a01b0319166001600160a01b03909216919091179055915190919060028201906150d99082615da3565b50606082015160038201906150ee9082615da3565b50608082015160048201906151039082615da3565b5060a082015160058201906151189082615da3565b5060c0820151816006015560e082015181600701559050506001600660008282546151439190615e8b565b9091555050505050505050565b6151958160405160240161516691815260200190565b60408051601f198184030181529190526020810180516001600160e01b031663f82c50f160e01b179052615198565b50565b80516a636f6e736f6c652e6c6f67602083016000808483855afa5050505050565b6040518061010001604052806000815260200160006001600160a01b031681526020016060815260200160608152602001606081526020016060815260200160008152602001600081525090565b6040518060e0016040528060006001600160a01b0316815260200160006001600160a01b0316815260200160608152602001606081526020016060815260200160608152602001606081525090565b604051806080016040528060006001600160a01b031681526020016060815260200160608152602001606081525090565b6040518060e0016040528060006001600160a01b031681526020016060815260200160608152602001606081526020016060815260200160008152602001606081525090565b6040518060a0016040528060006001600160a01b03168152602001606081526020016060815260200160608152602001606081525090565b80356001600160a01b038116811461531c57600080fd5b919050565b634e487b7160e01b600052604160045260246000fd5b600082601f83011261534857600080fd5b81356001600160401b038082111561536257615362615321565b604051601f8301601f19908116603f0116810190828211818310171561538a5761538a615321565b816040528381528660208588010111156153a357600080fd5b836020870160208301376000602085830101528094505050505092915050565b60008060008060008060c087890312156153dc57600080fd5b6153e587615305565b955060208701356001600160401b038082111561540157600080fd5b61540d8a838b01615337565b9650604089013591508082111561542357600080fd5b61542f8a838b01615337565b9550606089013591508082111561544557600080fd5b6154518a838b01615337565b9450608089013591508082111561546757600080fd5b6154738a838b01615337565b935060a089013591508082111561548957600080fd5b5061549689828a01615337565b9150509295509295509295565b60008060008060008060c087890312156154bc57600080fd5b86356001600160401b03808211156154d357600080fd5b6154df8a838b01615337565b975060208901359150808211156154f557600080fd5b6155018a838b01615337565b9650604089013591508082111561551757600080fd5b6155238a838b01615337565b9550606089013591508082111561553957600080fd5b6155458a838b01615337565b94506080890135935060a089013591508082111561548957600080fd5b60006020828403121561557457600080fd5b61557d82615305565b9392505050565b6001600160a01b03169052565b6000815180845260005b818110156155b75760208185018101518683018201520161559b565b506000602082860101526020601f19601f83011685010191505092915050565b60006101008251845260208301516155f26020860182615584565b50604083015181604086015261560a82860182615591565b915050606083015184820360608601526156248282615591565b9150506080830151848203608086015261563e8282615591565b91505060a083015184820360a08601526156588282615591565b91505060c083015160c085015260e083015160e08501528091505092915050565b6000602080830181845280855180835260408601915060408160051b870101925083870160005b828110156156ce57603f198886030184526156bc8583516155d7565b945092850192908501906001016156a0565b5092979650505050505050565b6000806000606084860312156156f057600080fd5b83356001600160401b038082111561570757600080fd5b61571387838801615337565b9450602086013591508082111561572957600080fd5b61573587838801615337565b9350604086013591508082111561574b57600080fd5b5061575886828701615337565b9150509250925092565b60006020808301818452808551808352604092508286019150828160051b87010184880160005b8381101561585457888303603f19018552815180516001600160a01b031684528781015160e0906157bc8a870182615584565b508782015181898701526157d282870182615591565b915050606080830151868303828801526157ec8382615591565b92505050608080830151868303828801526158078382615591565b9250505060a080830151868303828801526158228382615591565b9250505060c080830151925085820381870152506158408183615591565b968901969450505090860190600101615789565b509098975050505050505050565b60006020828403121561587457600080fd5b5035919050565b60208152600061557d60208301846155d7565b60018060a01b03815116825260006020820151608060208501526158b56080850182615591565b9050604083015184820360408601526158ce8282615591565b915050606083015184820360608601526158e88282615591565b95945050505050565b6000602080830181845280855180835260408601915060408160051b870101925083870160005b828110156156ce57603f1988860301845261593485835161588e565b94509285019290850190600101615918565b60018060a01b0381511682526000602082015160e0602085015261596d60e0850182615591565b9050604083015184820360408601526159868282615591565b915050606083015184820360608601526159a08282615591565b915050608083015184820360808601526159ba8282615591565b91505060a083015160a085015260c083015184820360c08601526158e88282615591565b6000602080830181845280855180835260408601915060408160051b870101925083870160005b828110156156ce57603f19888603018452615a21858351615946565b94509285019290850190600101615a05565b60008060408385031215615a4657600080fd5b615a4f83615305565b9150615a5d60208401615305565b90509250929050565b60008060008060808587031215615a7c57600080fd5b84356001600160401b0380821115615a9357600080fd5b615a9f88838901615337565b95506020870135915080821115615ab557600080fd5b615ac188838901615337565b94506040870135915080821115615ad757600080fd5b615ae388838901615337565b93506060870135915080821115615af957600080fd5b50615b0687828801615337565b91505092959194509250565b60018060a01b0381511682526000602082015160a06020850152615b3960a0850182615591565b905060408301518482036040860152615b528282615591565b91505060608301518482036060860152615b6c8282615591565b915050608083015184820360808601526158e88282615591565b6000602080830181845280855180835260408601915060408160051b870101925083870160005b828110156156ce57603f19888603018452615bc9858351615b12565b94509285019290850190600101615bad565b60008060408385031215615bee57600080fd5b615bf783615305565b946020939093013593505050565b60208152600061557d602083018461588e565b60208152600061557d6020830184615946565b60208152600061557d6020830184615b12565b600080600080600060a08688031215615c5657600080fd5b85356001600160401b0380821115615c6d57600080fd5b615c7989838a01615337565b96506020880135915080821115615c8f57600080fd5b615c9b89838a01615337565b95506040880135915080821115615cb157600080fd5b615cbd89838a01615337565b94506060880135915080821115615cd357600080fd5b50615ce088828901615337565b95989497509295608001359392505050565b634e487b7160e01b600052601160045260246000fd5b600060018201615d1a57615d1a615cf2565b5060010190565b600181811c90821680615d3557607f821691505b60208210810361173d57634e487b7160e01b600052602260045260246000fd5b601f82111561204257600081815260208120601f850160051c81016020861015615d7c5750805b601f850160051c820191505b81811015615d9b57828155600101615d88565b505050505050565b81516001600160401b03811115615dbc57615dbc615321565b615dd081615dca8454615d21565b84615d55565b602080601f831160018114615e055760008415615ded5750858301515b600019600386901b1c1916600185901b178555615d9b565b600085815260208120601f198616915b82811015615e3457888601518255948401946001909101908401615e15565b5085821015615e525787850151600019600388901b60f8161c191681555b5050505050600190811b01905550565b8181038181111561219457612194615cf2565b634e487b7160e01b600052603260045260246000fd5b8082018082111561219457612194615cf2565b634e487b7160e01b600052603160045260246000fd5b6020808252602f908201527f446f6573206e6f742068617665207468652061636365737320746f206665746360408201526e682074686520646f63756d656e747360881b606082015260800190565b808202811582820484141761219457612194615cf256fea2646970667358221220752d7aa4814c654e32f5f0402f07dde527ff6383d1d275604b074893b111366d64736f6c63430008110033",
  "linkReferences": {},
  "deployedLinkReferences": {}
}