{
  "_format": "hh-sol-artifact-1",
  "contractName": "EHR",
  "sourceName": "contracts/EHR.sol",
  "abi": [
    {
      "inputs": [],
      "stateMutability": "nonpayable",
      "type": "constructor"
    },
    {
      "inputs": [],
      "name": "checkRole",
      "outputs": [
        {
          "internalType": "uint256",
          "name": "",
          "type": "uint256"
        }
      ],
      "stateMutability": "view",
      "type": "function"
    },
    {
      "inputs": [
        {
          "internalType": "address",
          "name": "userAdd",
          "type": "address"
        },
        {
          "internalType": "string",
          "name": "docName",
          "type": "string"
        },
        {
          "internalType": "string",
          "name": "recordHash",
          "type": "string"
        },
        {
          "internalType": "string",
          "name": "recordName",
          "type": "string"
        },
        {
          "internalType": "string",
          "name": "issueDate",
          "type": "string"
        },
        {
          "internalType": "string",
          "name": "testSuggested",
          "type": "string"
        }
      ],
      "name": "createNewRecord",
      "outputs": [],
      "stateMutability": "nonpayable",
      "type": "function"
    },
    {
      "inputs": [
        {
          "internalType": "string",
          "name": "name",
          "type": "string"
        },
        {
          "internalType": "string",
          "name": "description",
          "type": "string"
        },
        {
          "internalType": "string",
          "name": "cid",
          "type": "string"
        },
        {
          "internalType": "string",
          "name": "cidName",
          "type": "string"
        },
        {
          "internalType": "uint256",
          "name": "usersRequired",
          "type": "uint256"
        }
      ],
      "name": "createNewResearch",
      "outputs": [],
      "stateMutability": "payable",
      "type": "function"
    },
    {
      "inputs": [],
      "name": "fetchAllHospitals",
      "outputs": [
        {
          "components": [
            {
              "internalType": "address",
              "name": "hosAdd",
              "type": "address"
            },
            {
              "internalType": "string",
              "name": "name",
              "type": "string"
            },
            {
              "internalType": "string",
              "name": "personalAdd",
              "type": "string"
            },
            {
              "internalType": "string",
              "name": "emailId",
              "type": "string"
            },
            {
              "internalType": "string",
              "name": "contactNo",
              "type": "string"
            }
          ],
          "internalType": "struct EHR.Hospital[]",
          "name": "",
          "type": "tuple[]"
        }
      ],
      "stateMutability": "view",
      "type": "function"
    },
    {
      "inputs": [],
      "name": "fetchAllInsuranceComps",
      "outputs": [
        {
          "components": [
            {
              "internalType": "address",
              "name": "compAddr",
              "type": "address"
            },
            {
              "internalType": "string",
              "name": "name",
              "type": "string"
            },
            {
              "internalType": "string",
              "name": "emailId",
              "type": "string"
            },
            {
              "internalType": "string",
              "name": "contactNo",
              "type": "string"
            }
          ],
          "internalType": "struct EHR.InsuranceComp[]",
          "name": "",
          "type": "tuple[]"
        }
      ],
      "stateMutability": "view",
      "type": "function"
    },
    {
      "inputs": [],
      "name": "fetchAllResearchs",
      "outputs": [
        {
          "components": [
            {
              "internalType": "uint256",
              "name": "id",
              "type": "uint256"
            },
            {
              "internalType": "address",
              "name": "orgAdd",
              "type": "address"
            },
            {
              "internalType": "string",
              "name": "name",
              "type": "string"
            },
            {
              "internalType": "string",
              "name": "description",
              "type": "string"
            },
            {
              "internalType": "string",
              "name": "cid",
              "type": "string"
            },
            {
              "internalType": "string",
              "name": "cidName",
              "type": "string"
            },
            {
              "internalType": "uint256",
              "name": "usersRequired",
              "type": "uint256"
            },
            {
              "internalType": "uint256",
              "name": "currentUsers",
              "type": "uint256"
            }
          ],
          "internalType": "struct EHR.Research[]",
          "name": "",
          "type": "tuple[]"
        }
      ],
      "stateMutability": "view",
      "type": "function"
    },
    {
      "inputs": [
        {
          "internalType": "uint256",
          "name": "researchId",
          "type": "uint256"
        }
      ],
      "name": "fetchAllUsersForResearch",
      "outputs": [
        {
          "components": [
            {
              "internalType": "address",
              "name": "userAdd",
              "type": "address"
            },
            {
              "internalType": "string",
              "name": "name",
              "type": "string"
            },
            {
              "internalType": "string",
              "name": "personalAdd",
              "type": "string"
            },
            {
              "internalType": "string",
              "name": "emailId",
              "type": "string"
            },
            {
              "internalType": "string",
              "name": "mobileNo",
              "type": "string"
            },
            {
              "internalType": "uint256",
              "name": "gender",
              "type": "uint256"
            },
            {
              "internalType": "string",
              "name": "dob",
              "type": "string"
            }
          ],
          "internalType": "struct EHR.User[]",
          "name": "",
          "type": "tuple[]"
        }
      ],
      "stateMutability": "view",
      "type": "function"
    },
    {
      "inputs": [],
      "name": "fetchAllUsersOfInsuranceComp",
      "outputs": [
        {
          "components": [
            {
              "internalType": "address",
              "name": "userAdd",
              "type": "address"
            },
            {
              "internalType": "string",
              "name": "name",
              "type": "string"
            },
            {
              "internalType": "string",
              "name": "personalAdd",
              "type": "string"
            },
            {
              "internalType": "string",
              "name": "emailId",
              "type": "string"
            },
            {
              "internalType": "string",
              "name": "mobileNo",
              "type": "string"
            },
            {
              "internalType": "uint256",
              "name": "gender",
              "type": "uint256"
            },
            {
              "internalType": "string",
              "name": "dob",
              "type": "string"
            }
          ],
          "internalType": "struct EHR.User[]",
          "name": "",
          "type": "tuple[]"
        }
      ],
      "stateMutability": "view",
      "type": "function"
    },
    {
      "inputs": [
        {
          "internalType": "address",
          "name": "hospitalAddress",
          "type": "address"
        }
      ],
      "name": "fetchHospitalByAddress",
      "outputs": [
        {
          "components": [
            {
              "internalType": "address",
              "name": "hosAdd",
              "type": "address"
            },
            {
              "internalType": "string",
              "name": "name",
              "type": "string"
            },
            {
              "internalType": "string",
              "name": "personalAdd",
              "type": "string"
            },
            {
              "internalType": "string",
              "name": "emailId",
              "type": "string"
            },
            {
              "internalType": "string",
              "name": "contactNo",
              "type": "string"
            }
          ],
          "internalType": "struct EHR.Hospital",
          "name": "",
          "type": "tuple"
        }
      ],
      "stateMutability": "view",
      "type": "function"
    },
    {
      "inputs": [
        {
          "internalType": "address",
          "name": "insuranceCompAddress",
          "type": "address"
        }
      ],
      "name": "fetchInsuranceCompByAddress",
      "outputs": [
        {
          "components": [
            {
              "internalType": "address",
              "name": "compAddr",
              "type": "address"
            },
            {
              "internalType": "string",
              "name": "name",
              "type": "string"
            },
            {
              "internalType": "string",
              "name": "emailId",
              "type": "string"
            },
            {
              "internalType": "string",
              "name": "contactNo",
              "type": "string"
            }
          ],
          "internalType": "struct EHR.InsuranceComp",
          "name": "",
          "type": "tuple"
        }
      ],
      "stateMutability": "view",
      "type": "function"
    },
    {
      "inputs": [],
      "name": "fetchMyDocuments",
      "outputs": [
        {
          "components": [
            {
              "internalType": "address",
              "name": "userAdd",
              "type": "address"
            },
            {
              "internalType": "address",
              "name": "hosAdd",
              "type": "address"
            },
            {
              "internalType": "string",
              "name": "docName",
              "type": "string"
            },
            {
              "internalType": "string",
              "name": "recordHash",
              "type": "string"
            },
            {
              "internalType": "string",
              "name": "recordName",
              "type": "string"
            },
            {
              "internalType": "string",
              "name": "issueDate",
              "type": "string"
            },
            {
              "internalType": "string",
              "name": "testSuggested",
              "type": "string"
            }
          ],
          "internalType": "struct EHR.Record[]",
          "name": "",
          "type": "tuple[]"
        }
      ],
      "stateMutability": "view",
      "type": "function"
    },
    {
      "inputs": [],
      "name": "fetchMyHospitalAccessList",
      "outputs": [
        {
          "components": [
            {
              "internalType": "address",
              "name": "hosAdd",
              "type": "address"
            },
            {
              "internalType": "string",
              "name": "name",
              "type": "string"
            },
            {
              "internalType": "string",
              "name": "personalAdd",
              "type": "string"
            },
            {
              "internalType": "string",
              "name": "emailId",
              "type": "string"
            },
            {
              "internalType": "string",
              "name": "contactNo",
              "type": "string"
            }
          ],
          "internalType": "struct EHR.Hospital[]",
          "name": "",
          "type": "tuple[]"
        }
      ],
      "stateMutability": "view",
      "type": "function"
    },
    {
      "inputs": [],
      "name": "fetchMyResearchAccessList",
      "outputs": [
        {
          "components": [
            {
              "internalType": "uint256",
              "name": "id",
              "type": "uint256"
            },
            {
              "internalType": "address",
              "name": "orgAdd",
              "type": "address"
            },
            {
              "internalType": "string",
              "name": "name",
              "type": "string"
            },
            {
              "internalType": "string",
              "name": "description",
              "type": "string"
            },
            {
              "internalType": "string",
              "name": "cid",
              "type": "string"
            },
            {
              "internalType": "string",
              "name": "cidName",
              "type": "string"
            },
            {
              "internalType": "uint256",
              "name": "usersRequired",
              "type": "uint256"
            },
            {
              "internalType": "uint256",
              "name": "currentUsers",
              "type": "uint256"
            }
          ],
          "internalType": "struct EHR.Research[]",
          "name": "",
          "type": "tuple[]"
        }
      ],
      "stateMutability": "view",
      "type": "function"
    },
    {
      "inputs": [],
      "name": "fetchMyResearchs",
      "outputs": [
        {
          "components": [
            {
              "internalType": "uint256",
              "name": "id",
              "type": "uint256"
            },
            {
              "internalType": "address",
              "name": "orgAdd",
              "type": "address"
            },
            {
              "internalType": "string",
              "name": "name",
              "type": "string"
            },
            {
              "internalType": "string",
              "name": "description",
              "type": "string"
            },
            {
              "internalType": "string",
              "name": "cid",
              "type": "string"
            },
            {
              "internalType": "string",
              "name": "cidName",
              "type": "string"
            },
            {
              "internalType": "uint256",
              "name": "usersRequired",
              "type": "uint256"
            },
            {
              "internalType": "uint256",
              "name": "currentUsers",
              "type": "uint256"
            }
          ],
          "internalType": "struct EHR.Research[]",
          "name": "",
          "type": "tuple[]"
        }
      ],
      "stateMutability": "view",
      "type": "function"
    },
    {
      "inputs": [
        {
          "internalType": "address",
          "name": "orgAddress",
          "type": "address"
        }
      ],
      "name": "fetchOrganizationByAddress",
      "outputs": [
        {
          "components": [
            {
              "internalType": "address",
              "name": "orgAdd",
              "type": "address"
            },
            {
              "internalType": "string",
              "name": "name",
              "type": "string"
            },
            {
              "internalType": "string",
              "name": "emailId",
              "type": "string"
            },
            {
              "internalType": "string",
              "name": "contactNo",
              "type": "string"
            }
          ],
          "internalType": "struct EHR.ResearchOrg",
          "name": "",
          "type": "tuple"
        }
      ],
      "stateMutability": "view",
      "type": "function"
    },
    {
      "inputs": [
        {
          "internalType": "uint256",
          "name": "id",
          "type": "uint256"
        }
      ],
      "name": "fetchResearchById",
      "outputs": [
        {
          "components": [
            {
              "internalType": "uint256",
              "name": "id",
              "type": "uint256"
            },
            {
              "internalType": "address",
              "name": "orgAdd",
              "type": "address"
            },
            {
              "internalType": "string",
              "name": "name",
              "type": "string"
            },
            {
              "internalType": "string",
              "name": "description",
              "type": "string"
            },
            {
              "internalType": "string",
              "name": "cid",
              "type": "string"
            },
            {
              "internalType": "string",
              "name": "cidName",
              "type": "string"
            },
            {
              "internalType": "uint256",
              "name": "usersRequired",
              "type": "uint256"
            },
            {
              "internalType": "uint256",
              "name": "currentUsers",
              "type": "uint256"
            }
          ],
          "internalType": "struct EHR.Research",
          "name": "",
          "type": "tuple"
        }
      ],
      "stateMutability": "view",
      "type": "function"
    },
    {
      "inputs": [
        {
          "internalType": "address",
          "name": "userAddress",
          "type": "address"
        }
      ],
      "name": "fetchUserByAddress",
      "outputs": [
        {
          "components": [
            {
              "internalType": "address",
              "name": "userAdd",
              "type": "address"
            },
            {
              "internalType": "string",
              "name": "name",
              "type": "string"
            },
            {
              "internalType": "string",
              "name": "personalAdd",
              "type": "string"
            },
            {
              "internalType": "string",
              "name": "emailId",
              "type": "string"
            },
            {
              "internalType": "string",
              "name": "mobileNo",
              "type": "string"
            },
            {
              "internalType": "uint256",
              "name": "gender",
              "type": "uint256"
            },
            {
              "internalType": "string",
              "name": "dob",
              "type": "string"
            }
          ],
          "internalType": "struct EHR.User",
          "name": "",
          "type": "tuple"
        }
      ],
      "stateMutability": "view",
      "type": "function"
    },
    {
      "inputs": [
        {
          "internalType": "address",
          "name": "userAddress",
          "type": "address"
        }
      ],
      "name": "fetchUserDocumentsForHospital",
      "outputs": [
        {
          "components": [
            {
              "internalType": "address",
              "name": "userAdd",
              "type": "address"
            },
            {
              "internalType": "address",
              "name": "hosAdd",
              "type": "address"
            },
            {
              "internalType": "string",
              "name": "docName",
              "type": "string"
            },
            {
              "internalType": "string",
              "name": "recordHash",
              "type": "string"
            },
            {
              "internalType": "string",
              "name": "recordName",
              "type": "string"
            },
            {
              "internalType": "string",
              "name": "issueDate",
              "type": "string"
            },
            {
              "internalType": "string",
              "name": "testSuggested",
              "type": "string"
            }
          ],
          "internalType": "struct EHR.Record[]",
          "name": "",
          "type": "tuple[]"
        }
      ],
      "stateMutability": "view",
      "type": "function"
    },
    {
      "inputs": [
        {
          "internalType": "address",
          "name": "userAddress",
          "type": "address"
        }
      ],
      "name": "fetchUserDocumentsForInsuranceComp",
      "outputs": [
        {
          "components": [
            {
              "internalType": "address",
              "name": "userAdd",
              "type": "address"
            },
            {
              "internalType": "address",
              "name": "hosAdd",
              "type": "address"
            },
            {
              "internalType": "string",
              "name": "docName",
              "type": "string"
            },
            {
              "internalType": "string",
              "name": "recordHash",
              "type": "string"
            },
            {
              "internalType": "string",
              "name": "recordName",
              "type": "string"
            },
            {
              "internalType": "string",
              "name": "issueDate",
              "type": "string"
            },
            {
              "internalType": "string",
              "name": "testSuggested",
              "type": "string"
            }
          ],
          "internalType": "struct EHR.Record[]",
          "name": "",
          "type": "tuple[]"
        }
      ],
      "stateMutability": "view",
      "type": "function"
    },
    {
      "inputs": [
        {
          "internalType": "address",
          "name": "userAddress",
          "type": "address"
        },
        {
          "internalType": "uint256",
          "name": "researchId",
          "type": "uint256"
        }
      ],
      "name": "fetchUserDocumentsForResearch",
      "outputs": [
        {
          "components": [
            {
              "internalType": "address",
              "name": "userAdd",
              "type": "address"
            },
            {
              "internalType": "address",
              "name": "hosAdd",
              "type": "address"
            },
            {
              "internalType": "string",
              "name": "docName",
              "type": "string"
            },
            {
              "internalType": "string",
              "name": "recordHash",
              "type": "string"
            },
            {
              "internalType": "string",
              "name": "recordName",
              "type": "string"
            },
            {
              "internalType": "string",
              "name": "issueDate",
              "type": "string"
            },
            {
              "internalType": "string",
              "name": "testSuggested",
              "type": "string"
            }
          ],
          "internalType": "struct EHR.Record[]",
          "name": "",
          "type": "tuple[]"
        }
      ],
      "stateMutability": "view",
      "type": "function"
    },
    {
      "inputs": [],
      "name": "getAllHospitalRecords",
      "outputs": [
        {
          "components": [
            {
              "internalType": "address",
              "name": "userAdd",
              "type": "address"
            },
            {
              "internalType": "address",
              "name": "hosAdd",
              "type": "address"
            },
            {
              "internalType": "string",
              "name": "docName",
              "type": "string"
            },
            {
              "internalType": "string",
              "name": "recordHash",
              "type": "string"
            },
            {
              "internalType": "string",
              "name": "recordName",
              "type": "string"
            },
            {
              "internalType": "string",
              "name": "issueDate",
              "type": "string"
            },
            {
              "internalType": "string",
              "name": "testSuggested",
              "type": "string"
            }
          ],
          "internalType": "struct EHR.Record[]",
          "name": "",
          "type": "tuple[]"
        }
      ],
      "stateMutability": "view",
      "type": "function"
    },
    {
      "inputs": [
        {
          "internalType": "address",
          "name": "hospitalAddress",
          "type": "address"
        }
      ],
      "name": "grantAccessToHospital",
      "outputs": [],
      "stateMutability": "nonpayable",
      "type": "function"
    },
    {
      "inputs": [
        {
          "internalType": "address",
          "name": "insuranceCompAddress",
          "type": "address"
        }
      ],
      "name": "grantAccessToInsuranceComp",
      "outputs": [],
      "stateMutability": "payable",
      "type": "function"
    },
    {
      "inputs": [
        {
          "internalType": "uint256",
          "name": "researchId",
          "type": "uint256"
        }
      ],
      "name": "grantAccessToResearch",
      "outputs": [],
      "stateMutability": "payable",
      "type": "function"
    },
    {
      "inputs": [
        {
          "internalType": "address",
          "name": "userAddress",
          "type": "address"
        },
        {
          "internalType": "address",
          "name": "hospitalAddress",
          "type": "address"
        }
      ],
      "name": "hasUserRecordAccessForHospital",
      "outputs": [
        {
          "internalType": "bool",
          "name": "",
          "type": "bool"
        }
      ],
      "stateMutability": "view",
      "type": "function"
    },
    {
      "inputs": [
        {
          "internalType": "address",
          "name": "userAddress",
          "type": "address"
        },
        {
          "internalType": "address",
          "name": "insuranceCompAddress",
          "type": "address"
        }
      ],
      "name": "hasUserRecordAccessForInsuranceComp",
      "outputs": [
        {
          "internalType": "bool",
          "name": "",
          "type": "bool"
        }
      ],
      "stateMutability": "view",
      "type": "function"
    },
    {
      "inputs": [
        {
          "internalType": "address",
          "name": "userAddress",
          "type": "address"
        },
        {
          "internalType": "uint256",
          "name": "researchId",
          "type": "uint256"
        }
      ],
      "name": "hasUserRecordAccessForResearch",
      "outputs": [
        {
          "internalType": "bool",
          "name": "",
          "type": "bool"
        }
      ],
      "stateMutability": "view",
      "type": "function"
    },
    {
      "inputs": [
        {
          "internalType": "string",
          "name": "name",
          "type": "string"
        },
        {
          "internalType": "string",
          "name": "personalAdd",
          "type": "string"
        },
        {
          "internalType": "string",
          "name": "emailId",
          "type": "string"
        },
        {
          "internalType": "string",
          "name": "mobileNo",
          "type": "string"
        }
      ],
      "name": "registerHospital",
      "outputs": [],
      "stateMutability": "nonpayable",
      "type": "function"
    },
    {
      "inputs": [
        {
          "internalType": "string",
          "name": "name",
          "type": "string"
        },
        {
          "internalType": "string",
          "name": "emailId",
          "type": "string"
        },
        {
          "internalType": "string",
          "name": "mobileNo",
          "type": "string"
        }
      ],
      "name": "registerInsuranceComp",
      "outputs": [],
      "stateMutability": "nonpayable",
      "type": "function"
    },
    {
      "inputs": [
        {
          "internalType": "string",
          "name": "name",
          "type": "string"
        },
        {
          "internalType": "string",
          "name": "emailId",
          "type": "string"
        },
        {
          "internalType": "string",
          "name": "mobileNo",
          "type": "string"
        }
      ],
      "name": "registerResearchOrg",
      "outputs": [],
      "stateMutability": "nonpayable",
      "type": "function"
    },
    {
      "inputs": [
        {
          "internalType": "string",
          "name": "name",
          "type": "string"
        },
        {
          "internalType": "string",
          "name": "personalAdd",
          "type": "string"
        },
        {
          "internalType": "string",
          "name": "emailId",
          "type": "string"
        },
        {
          "internalType": "string",
          "name": "mobileNo",
          "type": "string"
        },
        {
          "internalType": "uint256",
          "name": "gender",
          "type": "uint256"
        },
        {
          "internalType": "string",
          "name": "dob",
          "type": "string"
        }
      ],
      "name": "registerUser",
      "outputs": [],
      "stateMutability": "nonpayable",
      "type": "function"
    },
    {
      "inputs": [
        {
          "internalType": "address",
          "name": "hospitalAddress",
          "type": "address"
        }
      ],
      "name": "removeAccessFromHospital",
      "outputs": [],
      "stateMutability": "nonpayable",
      "type": "function"
    },
    {
      "inputs": [
        {
          "internalType": "address",
          "name": "insuranceCompAddress",
          "type": "address"
        }
      ],
      "name": "removeAccessFromInsuranceComp",
      "outputs": [],
      "stateMutability": "nonpayable",
      "type": "function"
    },
    {
      "inputs": [
        {
          "internalType": "uint256",
          "name": "researchId",
          "type": "uint256"
        }
      ],
      "name": "removeAccessFromResearch",
      "outputs": [],
      "stateMutability": "payable",
      "type": "function"
    }
  ],
  "bytecode": "0x60806040523480156200001157600080fd5b50336000806101000a81548173ffffffffffffffffffffffffffffffffffffffff021916908373ffffffffffffffffffffffffffffffffffffffff1602179055506187fd80620000626000396000f3fe6080604052600436106101f95760003560e01c8063849326f21161010d578063b6280060116100a0578063da8da7311161006f578063da8da73114610756578063edf9e00a14610793578063f8f625e9146107bc578063f95ad8fd146107f9578063fd265a2514610824576101f9565b8063b628006014610688578063baa719dc146106b1578063c444411d146106dc578063c925075314610719576101f9565b80639d27643b116100dc5780639d27643b146105945780639ea271d5146105d15780639f900a181461060e578063b41531761461064b576101f9565b8063849326f2146104c65780638a77987e146105035780638add4579146105405780638aeab38014610569576101f9565b80632e637987116101905780634630d73b1161015f5780634630d73b146103f05780634c828df8146104195780634df6f28d1461045657806354053ea81461047f578063684217a6146104aa576101f9565b80632e637987146103535780633b24a9521461037e5780633c51fad5146103a957806341bd117c146103d4576101f9565b80631be8530e116101cc5780631be8530e14610297578063223a6d34146102c2578063245e7f95146102eb578063272620b914610316576101f9565b806302539bd8146101fe5780630482aa8214610227578063166fb6181461025257806318779cb41461027b575b600080fd5b34801561020a57600080fd5b5061022560048036038101906102209190616fe8565b610840565b005b34801561023357600080fd5b5061023c6109cf565b604051610249919061711a565b60405180910390f35b34801561025e57600080fd5b5061027960048036038101906102749190617161565b610b5d565b005b6102956004803603810190610290919061727a565b610d42565b005b3480156102a357600080fd5b506102ac610e7d565b6040516102b991906174cb565b60405180910390f35b3480156102ce57600080fd5b506102e960048036038101906102e491906174ed565b61131b565b005b3480156102f757600080fd5b506103006114b6565b60405161030d919061770e565b60405180910390f35b34801561032257600080fd5b5061033d60048036038101906103389190617730565b611a1f565b60405161034a9190617822565b60405180910390f35b34801561035f57600080fd5b50610368611d09565b6040516103759190617977565b60405180910390f35b34801561038a57600080fd5b50610393611fdb565b6040516103a09190617b13565b60405180910390f35b3480156103b557600080fd5b506103be612543565b6040516103cb91906174cb565b60405180910390f35b6103ee60048036038101906103e99190617730565b6128c6565b005b3480156103fc57600080fd5b506104176004803603810190610412919061727a565b612a6a565b005b34801561042557600080fd5b50610440600480360381019061043b9190617b35565b612ba5565b60405161044d9190617b90565b60405180910390f35b34801561046257600080fd5b5061047d60048036038101906104789190617bab565b612cb2565b005b34801561048b57600080fd5b50610494612e6a565b6040516104a191906174cb565b60405180910390f35b6104c460048036038101906104bf9190617730565b613289565b005b3480156104d257600080fd5b506104ed60048036038101906104e8919061727a565b61343b565b6040516104fa919061770e565b60405180910390f35b34801561050f57600080fd5b5061052a6004803603810190610525919061727a565b6139f6565b604051610537919061770e565b60405180910390f35b34801561054c57600080fd5b506105676004803603810190610562919061727a565b613fb1565b005b34801561057557600080fd5b5061057e614168565b60405161058b9190617dcf565b60405180910390f35b3480156105a057600080fd5b506105bb60048036038101906105b69190617df1565b614568565b6040516105c89190617b90565b60405180910390f35b3480156105dd57600080fd5b506105f860048036038101906105f3919061727a565b61462f565b6040516106059190617ea2565b60405180910390f35b34801561061a57600080fd5b506106356004803603810190610630919061727a565b6148a7565b6040516106429190617f7c565b60405180910390f35b34801561065757600080fd5b50610672600480360381019061066d919061727a565b614c4d565b60405161067f9190618029565b60405180910390f35b34801561069457600080fd5b506106af60048036038101906106aa91906174ed565b614f57565b005b3480156106bd57600080fd5b506106c66150f2565b6040516106d39190617dcf565b60405180910390f35b3480156106e857600080fd5b5061070360048036038101906106fe9190617df1565b615456565b604051610710919061770e565b60405180910390f35b34801561072557600080fd5b50610740600480360381019061073b919061727a565b615a12565b60405161074d91906180bc565b60405180910390f35b34801561076257600080fd5b5061077d60048036038101906107789190617730565b615c8a565b60405161078a9190617b13565b60405180910390f35b34801561079f57600080fd5b506107ba60048036038101906107b5919061727a565b6161b3565b005b3480156107c857600080fd5b506107e360048036038101906107de9190617b35565b61636a565b6040516107f09190617b90565b60405180910390f35b34801561080557600080fd5b5061080e616477565b60405161081b919061770e565b60405180910390f35b61083e600480360381019061083991906180de565b6169f4565b005b6040518060e001604052808773ffffffffffffffffffffffffffffffffffffffff1681526020013373ffffffffffffffffffffffffffffffffffffffff1681526020018681526020018581526020018481526020018381526020018281525060096000600360008154809291906108b6906181f8565b91905055815260200190815260200160002060008201518160000160006101000a81548173ffffffffffffffffffffffffffffffffffffffff021916908373ffffffffffffffffffffffffffffffffffffffff16021790555060208201518160010160006101000a81548173ffffffffffffffffffffffffffffffffffffffff021916908373ffffffffffffffffffffffffffffffffffffffff160217905550604082015181600201908161096b919061844c565b506060820151816003019081610981919061844c565b506080820151816004019081610997919061844c565b5060a08201518160050190816109ad919061844c565b5060c08201518160060190816109c3919061844c565b50905050505050505050565b600060011515601160003373ffffffffffffffffffffffffffffffffffffffff1673ffffffffffffffffffffffffffffffffffffffff16815260200190815260200160002060009054906101000a900460ff16151503610a325760019050610b5a565b60011515601260003373ffffffffffffffffffffffffffffffffffffffff1673ffffffffffffffffffffffffffffffffffffffff16815260200190815260200160002060009054906101000a900460ff16151503610a935760029050610b5a565b60011515601360003373ffffffffffffffffffffffffffffffffffffffff1673ffffffffffffffffffffffffffffffffffffffff16815260200190815260200160002060009054906101000a900460ff16151503610af45760039050610b5a565b60011515601460003373ffffffffffffffffffffffffffffffffffffffff1673ffffffffffffffffffffffffffffffffffffffff16815260200190815260200160002060009054906101000a900460ff16151503610b555760049050610b5a565b600090505b90565b6040518060e001604052803373ffffffffffffffffffffffffffffffffffffffff168152602001878152602001868152602001858152602001848152602001838152602001828152506007600060016000815480929190610bbd906181f8565b91905055815260200190815260200160002060008201518160000160006101000a81548173ffffffffffffffffffffffffffffffffffffffff021916908373ffffffffffffffffffffffffffffffffffffffff1602179055506020820151816001019081610c2b919061844c565b506040820151816002019081610c41919061844c565b506060820151816003019081610c57919061844c565b506080820151816004019081610c6d919061844c565b5060a0820151816005015560c0820151816006019081610c8d919061844c565b5090505060018054610c9f919061851e565b600d60003373ffffffffffffffffffffffffffffffffffffffff1673ffffffffffffffffffffffffffffffffffffffff168152602001908152602001600020819055506001601160003373ffffffffffffffffffffffffffffffffffffffff1673ffffffffffffffffffffffffffffffffffffffff16815260200190815260200160002060006101000a81548160ff021916908315150217905550505050505050565b6000601060008373ffffffffffffffffffffffffffffffffffffffff1673ffffffffffffffffffffffffffffffffffffffff1681526020019081526020016000205490506000600d60003373ffffffffffffffffffffffffffffffffffffffff1673ffffffffffffffffffffffffffffffffffffffff16815260200190815260200160002054905060005b6017600083815260200190815260200160002080549050811015610e3c5782601760008481526020019081526020016000208281548110610e1157610e10618552565b5b906000526020600020015403610e2957505050610e7a565b8080610e34906181f8565b915050610dcd565b506017600082815260200190815260200160002082908060018154018082558091505060019003906000526020600020016000909190919091505550505b50565b6060600080600090505b600654811015610f1d573373ffffffffffffffffffffffffffffffffffffffff16600c600083815260200190815260200160002060010160009054906101000a900473ffffffffffffffffffffffffffffffffffffffff1673ffffffffffffffffffffffffffffffffffffffff1603610f0a57600182610f079190618581565b91505b8080610f15906181f8565b915050610e87565b5060008167ffffffffffffffff811115610f3a57610f39616ebd565b5b604051908082528060200260200182016040528015610f7357816020015b610f60616c58565b815260200190600190039081610f585790505b5090506000915060005b600654811015611312573373ffffffffffffffffffffffffffffffffffffffff16600c600083815260200190815260200160002060010160009054906101000a900473ffffffffffffffffffffffffffffffffffffffff1673ffffffffffffffffffffffffffffffffffffffff16036112ff576000600c600083815260200190815260200160002090508060405180610100016040529081600082015481526020016001820160009054906101000a900473ffffffffffffffffffffffffffffffffffffffff1673ffffffffffffffffffffffffffffffffffffffff1673ffffffffffffffffffffffffffffffffffffffff1681526020016002820180546110849061826f565b80601f01602080910402602001604051908101604052809291908181526020018280546110b09061826f565b80156110fd5780601f106110d2576101008083540402835291602001916110fd565b820191906000526020600020905b8154815290600101906020018083116110e057829003601f168201915b505050505081526020016003820180546111169061826f565b80601f01602080910402602001604051908101604052809291908181526020018280546111429061826f565b801561118f5780601f106111645761010080835404028352916020019161118f565b820191906000526020600020905b81548152906001019060200180831161117257829003601f168201915b505050505081526020016004820180546111a89061826f565b80601f01602080910402602001604051908101604052809291908181526020018280546111d49061826f565b80156112215780601f106111f657610100808354040283529160200191611221565b820191906000526020600020905b81548152906001019060200180831161120457829003601f168201915b5050505050815260200160058201805461123a9061826f565b80601f01602080910402602001604051908101604052809291908181526020018280546112669061826f565b80156112b35780601f10611288576101008083540402835291602001916112b3565b820191906000526020600020905b81548152906001019060200180831161129657829003601f168201915b50505050508152602001600682015481526020016007820154815250508385815181106112e3576112e2618552565b5b60200260200101819052506001846112fb9190618581565b9350505b808061130a906181f8565b915050610f7d565b50809250505090565b60405180608001604052803373ffffffffffffffffffffffffffffffffffffffff16815260200184815260200183815260200182815250600a600060046000815480929190611369906181f8565b91905055815260200190815260200160002060008201518160000160006101000a81548173ffffffffffffffffffffffffffffffffffffffff021916908373ffffffffffffffffffffffffffffffffffffffff16021790555060208201518160010190816113d7919061844c565b5060408201518160020190816113ed919061844c565b506060820151816003019081611403919061844c565b509050506001600454611416919061851e565b600f60003373ffffffffffffffffffffffffffffffffffffffff1673ffffffffffffffffffffffffffffffffffffffff168152602001908152602001600020819055506001601360003373ffffffffffffffffffffffffffffffffffffffff1673ffffffffffffffffffffffffffffffffffffffff16815260200190815260200160002060006101000a81548160ff021916908315150217905550505050565b6060600080600090505b600354811015611556573373ffffffffffffffffffffffffffffffffffffffff166009600083815260200190815260200160002060010160009054906101000a900473ffffffffffffffffffffffffffffffffffffffff1673ffffffffffffffffffffffffffffffffffffffff1603611543576001826115409190618581565b91505b808061154e906181f8565b9150506114c0565b5060008167ffffffffffffffff81111561157357611572616ebd565b5b6040519080825280602002602001820160405280156115ac57816020015b611599616cb3565b8152602001906001900390816115915790505b50905060005b600354811015611a16573373ffffffffffffffffffffffffffffffffffffffff166009600083815260200190815260200160002060010160009054906101000a900473ffffffffffffffffffffffffffffffffffffffff1673ffffffffffffffffffffffffffffffffffffffff1603611a035760008190506000600960008381526020019081526020016000209050806040518060e00160405290816000820160009054906101000a900473ffffffffffffffffffffffffffffffffffffffff1673ffffffffffffffffffffffffffffffffffffffff1673ffffffffffffffffffffffffffffffffffffffff1681526020016001820160009054906101000a900473ffffffffffffffffffffffffffffffffffffffff1673ffffffffffffffffffffffffffffffffffffffff1673ffffffffffffffffffffffffffffffffffffffff1681526020016002820180546117099061826f565b80601f01602080910402602001604051908101604052809291908181526020018280546117359061826f565b80156117825780601f1061175757610100808354040283529160200191611782565b820191906000526020600020905b81548152906001019060200180831161176557829003601f168201915b5050505050815260200160038201805461179b9061826f565b80601f01602080910402602001604051908101604052809291908181526020018280546117c79061826f565b80156118145780601f106117e957610100808354040283529160200191611814565b820191906000526020600020905b8154815290600101906020018083116117f757829003601f168201915b5050505050815260200160048201805461182d9061826f565b80601f01602080910402602001604051908101604052809291908181526020018280546118599061826f565b80156118a65780601f1061187b576101008083540402835291602001916118a6565b820191906000526020600020905b81548152906001019060200180831161188957829003601f168201915b505050505081526020016005820180546118bf9061826f565b80601f01602080910402602001604051908101604052809291908181526020018280546118eb9061826f565b80156119385780601f1061190d57610100808354040283529160200191611938565b820191906000526020600020905b81548152906001019060200180831161191b57829003601f168201915b505050505081526020016006820180546119519061826f565b80601f016020809104026020016040519081016040528092919081815260200182805461197d9061826f565b80156119ca5780601f1061199f576101008083540402835291602001916119ca565b820191906000526020600020905b8154815290600101906020018083116119ad57829003601f168201915b5050505050815250508483815181106119e6576119e5618552565b5b60200260200101819052506001826119fe9190618581565b915050505b8080611a0e906181f8565b9150506115b2565b50809250505090565b611a27616c58565b600c600083815260200190815260200160002060405180610100016040529081600082015481526020016001820160009054906101000a900473ffffffffffffffffffffffffffffffffffffffff1673ffffffffffffffffffffffffffffffffffffffff1673ffffffffffffffffffffffffffffffffffffffff168152602001600282018054611ab69061826f565b80601f0160208091040260200160405190810160405280929190818152602001828054611ae29061826f565b8015611b2f5780601f10611b0457610100808354040283529160200191611b2f565b820191906000526020600020905b815481529060010190602001808311611b1257829003601f168201915b50505050508152602001600382018054611b489061826f565b80601f0160208091040260200160405190810160405280929190818152602001828054611b749061826f565b8015611bc15780601f10611b9657610100808354040283529160200191611bc1565b820191906000526020600020905b815481529060010190602001808311611ba457829003601f168201915b50505050508152602001600482018054611bda9061826f565b80601f0160208091040260200160405190810160405280929190818152602001828054611c069061826f565b8015611c535780601f10611c2857610100808354040283529160200191611c53565b820191906000526020600020905b815481529060010190602001808311611c3657829003601f168201915b50505050508152602001600582018054611c6c9061826f565b80601f0160208091040260200160405190810160405280929190818152602001828054611c989061826f565b8015611ce55780601f10611cba57610100808354040283529160200191611ce5565b820191906000526020600020905b815481529060010190602001808311611cc857829003601f168201915b50505050508152602001600682015481526020016007820154815250509050919050565b6060600060055467ffffffffffffffff811115611d2957611d28616ebd565b5b604051908082528060200260200182016040528015611d6257816020015b611d4f616d1c565b815260200190600190039081611d475790505b50905060005b600554811015611fd3576000600b60008381526020019081526020016000209050806040518060800160405290816000820160009054906101000a900473ffffffffffffffffffffffffffffffffffffffff1673ffffffffffffffffffffffffffffffffffffffff1673ffffffffffffffffffffffffffffffffffffffff168152602001600182018054611dfb9061826f565b80601f0160208091040260200160405190810160405280929190818152602001828054611e279061826f565b8015611e745780601f10611e4957610100808354040283529160200191611e74565b820191906000526020600020905b815481529060010190602001808311611e5757829003601f168201915b50505050508152602001600282018054611e8d9061826f565b80601f0160208091040260200160405190810160405280929190818152602001828054611eb99061826f565b8015611f065780601f10611edb57610100808354040283529160200191611f06565b820191906000526020600020905b815481529060010190602001808311611ee957829003601f168201915b50505050508152602001600382018054611f1f9061826f565b80601f0160208091040260200160405190810160405280929190818152602001828054611f4b9061826f565b8015611f985780601f10611f6d57610100808354040283529160200191611f98565b820191906000526020600020905b815481529060010190602001808311611f7b57829003601f168201915b505050505081525050838381518110611fb457611fb3618552565b5b6020026020010181905250508080611fcb906181f8565b915050611d68565b508091505090565b6060600080601060003373ffffffffffffffffffffffffffffffffffffffff1673ffffffffffffffffffffffffffffffffffffffff16815260200190815260200160002054905060005b6001548110156120c15760005b60176000838152602001908152602001600020805490508110156120ad578260176000848152602001908152602001600020828154811061207657612075618552565b5b90600052602060002001540361209a576001846120939190618581565b93506120ad565b80806120a5906181f8565b915050612032565b5080806120b9906181f8565b915050612025565b5060008267ffffffffffffffff8111156120de576120dd616ebd565b5b60405190808252806020026020018201604052801561211757816020015b612104616d5a565b8152602001906001900390816120fc5790505b5090506000925060005b6001548110156125395760005b6017600083815260200190815260200160002080549050811015612525578360176000848152602001908152602001600020828154811061217257612171618552565b5b906000526020600020015403612512576000600760008481526020019081526020016000209050806040518060e00160405290816000820160009054906101000a900473ffffffffffffffffffffffffffffffffffffffff1673ffffffffffffffffffffffffffffffffffffffff1673ffffffffffffffffffffffffffffffffffffffff16815260200160018201805461220b9061826f565b80601f01602080910402602001604051908101604052809291908181526020018280546122379061826f565b80156122845780601f1061225957610100808354040283529160200191612284565b820191906000526020600020905b81548152906001019060200180831161226757829003601f168201915b5050505050815260200160028201805461229d9061826f565b80601f01602080910402602001604051908101604052809291908181526020018280546122c99061826f565b80156123165780601f106122eb57610100808354040283529160200191612316565b820191906000526020600020905b8154815290600101906020018083116122f957829003601f168201915b5050505050815260200160038201805461232f9061826f565b80601f016020809104026020016040519081016040528092919081815260200182805461235b9061826f565b80156123a85780601f1061237d576101008083540402835291602001916123a8565b820191906000526020600020905b81548152906001019060200180831161238b57829003601f168201915b505050505081526020016004820180546123c19061826f565b80601f01602080910402602001604051908101604052809291908181526020018280546123ed9061826f565b801561243a5780601f1061240f5761010080835404028352916020019161243a565b820191906000526020600020905b81548152906001019060200180831161241d57829003601f168201915b505050505081526020016005820154815260200160068201805461245d9061826f565b80601f01602080910402602001604051908101604052809291908181526020018280546124899061826f565b80156124d65780601f106124ab576101008083540402835291602001916124d6565b820191906000526020600020905b8154815290600101906020018083116124b957829003601f168201915b5050505050815250508487815181106124f2576124f1618552565b5b602002602001018190525060018661250a9190618581565b955050612525565b808061251d906181f8565b91505061212e565b508080612531906181f8565b915050612121565b5080935050505090565b6060600060065467ffffffffffffffff81111561256357612562616ebd565b5b60405190808252806020026020018201604052801561259c57816020015b612589616c58565b8152602001906001900390816125815790505b50905060005b6006548110156128be576000600c600083815260200190815260200160002090508060405180610100016040529081600082015481526020016001820160009054906101000a900473ffffffffffffffffffffffffffffffffffffffff1673ffffffffffffffffffffffffffffffffffffffff1673ffffffffffffffffffffffffffffffffffffffff1681526020016002820180546126409061826f565b80601f016020809104026020016040519081016040528092919081815260200182805461266c9061826f565b80156126b95780601f1061268e576101008083540402835291602001916126b9565b820191906000526020600020905b81548152906001019060200180831161269c57829003601f168201915b505050505081526020016003820180546126d29061826f565b80601f01602080910402602001604051908101604052809291908181526020018280546126fe9061826f565b801561274b5780601f106127205761010080835404028352916020019161274b565b820191906000526020600020905b81548152906001019060200180831161272e57829003601f168201915b505050505081526020016004820180546127649061826f565b80601f01602080910402602001604051908101604052809291908181526020018280546127909061826f565b80156127dd5780601f106127b2576101008083540402835291602001916127dd565b820191906000526020600020905b8154815290600101906020018083116127c057829003601f168201915b505050505081526020016005820180546127f69061826f565b80601f01602080910402602001604051908101604052809291908181526020018280546128229061826f565b801561286f5780601f106128445761010080835404028352916020019161286f565b820191906000526020600020905b81548152906001019060200180831161285257829003601f168201915b505050505081526020016006820154815260200160078201548152505083838151811061289f5761289e618552565b5b60200260200101819052505080806128b6906181f8565b9150506125a2565b508091505090565b6000600d60003373ffffffffffffffffffffffffffffffffffffffff1673ffffffffffffffffffffffffffffffffffffffff16815260200190815260200160002054905060005b601660008381526020019081526020016000208054905081101561297b578260166000848152602001908152602001600020828154811061295157612950618552565b5b906000526020600020015403612968575050612a67565b8080612973906181f8565b91505061290d565b50601660008281526020019081526020016000208290806001815401808255809150506001900390600052602060002001600090919091909150556001600c600084815260200190815260200160002060070160008282546129dd9190618581565b92505081905550600c600083815260200190815260200160002060070154600c60008481526020019081526020016000206006015411612a65573373ffffffffffffffffffffffffffffffffffffffff166108fc655af3107a40009081150290604051600060405180830381858888f19350505050158015612a63573d6000803e3d6000fd5b505b505b50565b6000600e60008373ffffffffffffffffffffffffffffffffffffffff1673ffffffffffffffffffffffffffffffffffffffff1681526020019081526020016000205490506000600d60003373ffffffffffffffffffffffffffffffffffffffff1673ffffffffffffffffffffffffffffffffffffffff16815260200190815260200160002054905060005b6015600083815260200190815260200160002080549050811015612b645782601560008481526020019081526020016000208281548110612b3957612b38618552565b5b906000526020600020015403612b5157505050612ba2565b8080612b5c906181f8565b915050612af5565b506015600082815260200190815260200160002082908060018154018082558091505060019003906000526020600020016000909190919091505550505b50565b600080600d60008573ffffffffffffffffffffffffffffffffffffffff1673ffffffffffffffffffffffffffffffffffffffff1681526020019081526020016000205490506000600e60008573ffffffffffffffffffffffffffffffffffffffff1673ffffffffffffffffffffffffffffffffffffffff16815260200190815260200160002054905060005b6015600084815260200190815260200160002080549050811015612ca45781601560008581526020019081526020016000208281548110612c7557612c74618552565b5b906000526020600020015403612c915760019350505050612cac565b8080612c9c906181f8565b915050612c31565b506000925050505b92915050565b6040518060a001604052803373ffffffffffffffffffffffffffffffffffffffff168152602001858152602001848152602001838152602001828152506008600060026000815480929190612d06906181f8565b91905055815260200190815260200160002060008201518160000160006101000a81548173ffffffffffffffffffffffffffffffffffffffff021916908373ffffffffffffffffffffffffffffffffffffffff1602179055506020820151816001019081612d74919061844c565b506040820151816002019081612d8a919061844c565b506060820151816003019081612da0919061844c565b506080820151816004019081612db6919061844c565b509050506001600254612dc9919061851e565b600e60003373ffffffffffffffffffffffffffffffffffffffff1673ffffffffffffffffffffffffffffffffffffffff168152602001908152602001600020819055506001601260003373ffffffffffffffffffffffffffffffffffffffff1673ffffffffffffffffffffffffffffffffffffffff16815260200190815260200160002060006101000a81548160ff02191690831515021790555050505050565b60606000600d60003373ffffffffffffffffffffffffffffffffffffffff1673ffffffffffffffffffffffffffffffffffffffff1681526020019081526020016000205490506000601660008381526020019081526020016000208054905067ffffffffffffffff811115612ee257612ee1616ebd565b5b604051908082528060200260200182016040528015612f1b57816020015b612f08616c58565b815260200190600190039081612f005790505b50905060005b6016600084815260200190815260200160002080549050811015613280576000600c6000601660008781526020019081526020016000208481548110612f6a57612f69618552565b5b9060005260206000200154815260200190815260200160002090508060405180610100016040529081600082015481526020016001820160009054906101000a900473ffffffffffffffffffffffffffffffffffffffff1673ffffffffffffffffffffffffffffffffffffffff1673ffffffffffffffffffffffffffffffffffffffff1681526020016002820180546130029061826f565b80601f016020809104026020016040519081016040528092919081815260200182805461302e9061826f565b801561307b5780601f106130505761010080835404028352916020019161307b565b820191906000526020600020905b81548152906001019060200180831161305e57829003601f168201915b505050505081526020016003820180546130949061826f565b80601f01602080910402602001604051908101604052809291908181526020018280546130c09061826f565b801561310d5780601f106130e25761010080835404028352916020019161310d565b820191906000526020600020905b8154815290600101906020018083116130f057829003601f168201915b505050505081526020016004820180546131269061826f565b80601f01602080910402602001604051908101604052809291908181526020018280546131529061826f565b801561319f5780601f106131745761010080835404028352916020019161319f565b820191906000526020600020905b81548152906001019060200180831161318257829003601f168201915b505050505081526020016005820180546131b89061826f565b80601f01602080910402602001604051908101604052809291908181526020018280546131e49061826f565b80156132315780601f1061320657610100808354040283529160200191613231565b820191906000526020600020905b81548152906001019060200180831161321457829003601f168201915b505050505081526020016006820154815260200160078201548152505083838151811061326157613260618552565b5b6020026020010181905250508080613278906181f8565b915050612f21565b50809250505090565b655af3107a4000341461329b57600080fd5b6000600d60003373ffffffffffffffffffffffffffffffffffffffff1673ffffffffffffffffffffffffffffffffffffffff16815260200190815260200160002054905060005b6016600083815260200190815260200160002080549050811015613436578260166000848152602001908152602001600020828154811061332657613325618552565b5b90600052602060002001540361342357601660008381526020019081526020016000206001601660008581526020019081526020016000208054905061336c919061851e565b8154811061337d5761337c618552565b5b90600052602060002001546016600084815260200190815260200160002082815481106133ad576133ac618552565b5b9060005260206000200181905550601660008381526020019081526020016000208054806133de576133dd6185b5565b5b600190038181906000526020600020016000905590556001600c6000858152602001908152602001600020600701600082825461341b919061851e565b925050819055505b808061342e906181f8565b9150506132e2565b505050565b60606001151561344b8333612ba5565b15151461348d576040517f08c379a000000000000000000000000000000000000000000000000000000000815260040161348490618667565b60405180910390fd5b600080600090505b60035481101561352b578373ffffffffffffffffffffffffffffffffffffffff166009600083815260200190815260200160002060000160009054906101000a900473ffffffffffffffffffffffffffffffffffffffff1673ffffffffffffffffffffffffffffffffffffffff1603613518576001826135159190618581565b91505b8080613523906181f8565b915050613495565b5060008167ffffffffffffffff81111561354857613547616ebd565b5b60405190808252806020026020018201604052801561358157816020015b61356e616cb3565b8152602001906001900390816135665790505b50905060005b6003548110156139eb578473ffffffffffffffffffffffffffffffffffffffff166009600083815260200190815260200160002060000160009054906101000a900473ffffffffffffffffffffffffffffffffffffffff1673ffffffffffffffffffffffffffffffffffffffff16036139d85760008190506000600960008381526020019081526020016000209050806040518060e00160405290816000820160009054906101000a900473ffffffffffffffffffffffffffffffffffffffff1673ffffffffffffffffffffffffffffffffffffffff1673ffffffffffffffffffffffffffffffffffffffff1681526020016001820160009054906101000a900473ffffffffffffffffffffffffffffffffffffffff1673ffffffffffffffffffffffffffffffffffffffff1673ffffffffffffffffffffffffffffffffffffffff1681526020016002820180546136de9061826f565b80601f016020809104026020016040519081016040528092919081815260200182805461370a9061826f565b80156137575780601f1061372c57610100808354040283529160200191613757565b820191906000526020600020905b81548152906001019060200180831161373a57829003601f168201915b505050505081526020016003820180546137709061826f565b80601f016020809104026020016040519081016040528092919081815260200182805461379c9061826f565b80156137e95780601f106137be576101008083540402835291602001916137e9565b820191906000526020600020905b8154815290600101906020018083116137cc57829003601f168201915b505050505081526020016004820180546138029061826f565b80601f016020809104026020016040519081016040528092919081815260200182805461382e9061826f565b801561387b5780601f106138505761010080835404028352916020019161387b565b820191906000526020600020905b81548152906001019060200180831161385e57829003601f168201915b505050505081526020016005820180546138949061826f565b80601f01602080910402602001604051908101604052809291908181526020018280546138c09061826f565b801561390d5780601f106138e25761010080835404028352916020019161390d565b820191906000526020600020905b8154815290600101906020018083116138f057829003601f168201915b505050505081526020016006820180546139269061826f565b80601f01602080910402602001604051908101604052809291908181526020018280546139529061826f565b801561399f5780601f106139745761010080835404028352916020019161399f565b820191906000526020600020905b81548152906001019060200180831161398257829003601f168201915b5050505050815250508483815181106139bb576139ba618552565b5b60200260200101819052506001826139d39190618581565b915050505b80806139e3906181f8565b915050613587565b508092505050919050565b606060011515613a06833361636a565b151514613a48576040517f08c379a0000000000000000000000000000000000000000000000000000000008152600401613a3f90618667565b60405180910390fd5b600080600090505b600354811015613ae6578373ffffffffffffffffffffffffffffffffffffffff166009600083815260200190815260200160002060000160009054906101000a900473ffffffffffffffffffffffffffffffffffffffff1673ffffffffffffffffffffffffffffffffffffffff1603613ad357600182613ad09190618581565b91505b8080613ade906181f8565b915050613a50565b5060008167ffffffffffffffff811115613b0357613b02616ebd565b5b604051908082528060200260200182016040528015613b3c57816020015b613b29616cb3565b815260200190600190039081613b215790505b50905060005b600354811015613fa6578473ffffffffffffffffffffffffffffffffffffffff166009600083815260200190815260200160002060000160009054906101000a900473ffffffffffffffffffffffffffffffffffffffff1673ffffffffffffffffffffffffffffffffffffffff1603613f935760008190506000600960008381526020019081526020016000209050806040518060e00160405290816000820160009054906101000a900473ffffffffffffffffffffffffffffffffffffffff1673ffffffffffffffffffffffffffffffffffffffff1673ffffffffffffffffffffffffffffffffffffffff1681526020016001820160009054906101000a900473ffffffffffffffffffffffffffffffffffffffff1673ffffffffffffffffffffffffffffffffffffffff1673ffffffffffffffffffffffffffffffffffffffff168152602001600282018054613c999061826f565b80601f0160208091040260200160405190810160405280929190818152602001828054613cc59061826f565b8015613d125780601f10613ce757610100808354040283529160200191613d12565b820191906000526020600020905b815481529060010190602001808311613cf557829003601f168201915b50505050508152602001600382018054613d2b9061826f565b80601f0160208091040260200160405190810160405280929190818152602001828054613d579061826f565b8015613da45780601f10613d7957610100808354040283529160200191613da4565b820191906000526020600020905b815481529060010190602001808311613d8757829003601f168201915b50505050508152602001600482018054613dbd9061826f565b80601f0160208091040260200160405190810160405280929190818152602001828054613de99061826f565b8015613e365780601f10613e0b57610100808354040283529160200191613e36565b820191906000526020600020905b815481529060010190602001808311613e1957829003601f168201915b50505050508152602001600582018054613e4f9061826f565b80601f0160208091040260200160405190810160405280929190818152602001828054613e7b9061826f565b8015613ec85780601f10613e9d57610100808354040283529160200191613ec8565b820191906000526020600020905b815481529060010190602001808311613eab57829003601f168201915b50505050508152602001600682018054613ee19061826f565b80601f0160208091040260200160405190810160405280929190818152602001828054613f0d9061826f565b8015613f5a5780601f10613f2f57610100808354040283529160200191613f5a565b820191906000526020600020905b815481529060010190602001808311613f3d57829003601f168201915b505050505081525050848381518110613f7657613f75618552565b5b6020026020010181905250600182613f8e9190618581565b915050505b8080613f9e906181f8565b915050613b42565b508092505050919050565b6000601060008373ffffffffffffffffffffffffffffffffffffffff1673ffffffffffffffffffffffffffffffffffffffff1681526020019081526020016000205490506000600d60003373ffffffffffffffffffffffffffffffffffffffff1673ffffffffffffffffffffffffffffffffffffffff16815260200190815260200160002054905060005b601760008381526020019081526020016000208054905081101561416257826017600084815260200190815260200160002082815481106140805761407f618552565b5b90600052602060002001540361414f5760176000838152602001908152602001600020600160176000858152602001908152602001600020805490506140c6919061851e565b815481106140d7576140d6618552565b5b906000526020600020015460176000848152602001908152602001600020828154811061410757614106618552565b5b906000526020600020018190555060176000838152602001908152602001600020805480614138576141376185b5565b5b600190038181906000526020600020016000905590555b808061415a906181f8565b91505061403c565b50505050565b60606000600d60003373ffffffffffffffffffffffffffffffffffffffff1673ffffffffffffffffffffffffffffffffffffffff1681526020019081526020016000205490506000601560008381526020019081526020016000208054905067ffffffffffffffff8111156141e0576141df616ebd565b5b60405190808252806020026020018201604052801561421957816020015b614206616dad565b8152602001906001900390816141fe5790505b50905060005b601560008481526020019081526020016000208054905081101561455f5760006008600060156000878152602001908152602001600020848154811061426857614267618552565b5b906000526020600020015481526020019081526020016000209050806040518060a00160405290816000820160009054906101000a900473ffffffffffffffffffffffffffffffffffffffff1673ffffffffffffffffffffffffffffffffffffffff1673ffffffffffffffffffffffffffffffffffffffff1681526020016001820180546142f59061826f565b80601f01602080910402602001604051908101604052809291908181526020018280546143219061826f565b801561436e5780601f106143435761010080835404028352916020019161436e565b820191906000526020600020905b81548152906001019060200180831161435157829003601f168201915b505050505081526020016002820180546143879061826f565b80601f01602080910402602001604051908101604052809291908181526020018280546143b39061826f565b80156144005780601f106143d557610100808354040283529160200191614400565b820191906000526020600020905b8154815290600101906020018083116143e357829003601f168201915b505050505081526020016003820180546144199061826f565b80601f01602080910402602001604051908101604052809291908181526020018280546144459061826f565b80156144925780601f1061446757610100808354040283529160200191614492565b820191906000526020600020905b81548152906001019060200180831161447557829003601f168201915b505050505081526020016004820180546144ab9061826f565b80601f01602080910402602001604051908101604052809291908181526020018280546144d79061826f565b80156145245780601f106144f957610100808354040283529160200191614524565b820191906000526020600020905b81548152906001019060200180831161450757829003601f168201915b5050505050815250508383815181106145405761453f618552565b5b6020026020010181905250508080614557906181f8565b91505061421f565b50809250505090565b600080600d60008573ffffffffffffffffffffffffffffffffffffffff1673ffffffffffffffffffffffffffffffffffffffff16815260200190815260200160002054905060005b601660008381526020019081526020016000208054905081101561462257836016600084815260200190815260200160002082815481106145f4576145f3618552565b5b90600052602060002001540361460f57600192505050614629565b808061461a906181f8565b9150506145b0565b5060009150505b92915050565b614637616df2565b600a6000600f60008573ffffffffffffffffffffffffffffffffffffffff1673ffffffffffffffffffffffffffffffffffffffff1681526020019081526020016000205481526020019081526020016000206040518060800160405290816000820160009054906101000a900473ffffffffffffffffffffffffffffffffffffffff1673ffffffffffffffffffffffffffffffffffffffff1673ffffffffffffffffffffffffffffffffffffffff1681526020016001820180546146fa9061826f565b80601f01602080910402602001604051908101604052809291908181526020018280546147269061826f565b80156147735780601f1061474857610100808354040283529160200191614773565b820191906000526020600020905b81548152906001019060200180831161475657829003601f168201915b5050505050815260200160028201805461478c9061826f565b80601f01602080910402602001604051908101604052809291908181526020018280546147b89061826f565b80156148055780601f106147da57610100808354040283529160200191614805565b820191906000526020600020905b8154815290600101906020018083116147e857829003601f168201915b5050505050815260200160038201805461481e9061826f565b80601f016020809104026020016040519081016040528092919081815260200182805461484a9061826f565b80156148975780601f1061486c57610100808354040283529160200191614897565b820191906000526020600020905b81548152906001019060200180831161487a57829003601f168201915b5050505050815250509050919050565b6148af616d5a565b60076000600d60008573ffffffffffffffffffffffffffffffffffffffff1673ffffffffffffffffffffffffffffffffffffffff1681526020019081526020016000205481526020019081526020016000206040518060e00160405290816000820160009054906101000a900473ffffffffffffffffffffffffffffffffffffffff1673ffffffffffffffffffffffffffffffffffffffff1673ffffffffffffffffffffffffffffffffffffffff1681526020016001820180546149729061826f565b80601f016020809104026020016040519081016040528092919081815260200182805461499e9061826f565b80156149eb5780601f106149c0576101008083540402835291602001916149eb565b820191906000526020600020905b8154815290600101906020018083116149ce57829003601f168201915b50505050508152602001600282018054614a049061826f565b80601f0160208091040260200160405190810160405280929190818152602001828054614a309061826f565b8015614a7d5780601f10614a5257610100808354040283529160200191614a7d565b820191906000526020600020905b815481529060010190602001808311614a6057829003601f168201915b50505050508152602001600382018054614a969061826f565b80601f0160208091040260200160405190810160405280929190818152602001828054614ac29061826f565b8015614b0f5780601f10614ae457610100808354040283529160200191614b0f565b820191906000526020600020905b815481529060010190602001808311614af257829003601f168201915b50505050508152602001600482018054614b289061826f565b80601f0160208091040260200160405190810160405280929190818152602001828054614b549061826f565b8015614ba15780601f10614b7657610100808354040283529160200191614ba1565b820191906000526020600020905b815481529060010190602001808311614b8457829003601f168201915b5050505050815260200160058201548152602001600682018054614bc49061826f565b80601f0160208091040260200160405190810160405280929190818152602001828054614bf09061826f565b8015614c3d5780601f10614c1257610100808354040283529160200191614c3d565b820191906000526020600020905b815481529060010190602001808311614c2057829003601f168201915b5050505050815250509050919050565b614c55616dad565b60086000600e60008573ffffffffffffffffffffffffffffffffffffffff1673ffffffffffffffffffffffffffffffffffffffff1681526020019081526020016000205481526020019081526020016000206040518060a00160405290816000820160009054906101000a900473ffffffffffffffffffffffffffffffffffffffff1673ffffffffffffffffffffffffffffffffffffffff1673ffffffffffffffffffffffffffffffffffffffff168152602001600182018054614d189061826f565b80601f0160208091040260200160405190810160405280929190818152602001828054614d449061826f565b8015614d915780601f10614d6657610100808354040283529160200191614d91565b820191906000526020600020905b815481529060010190602001808311614d7457829003601f168201915b50505050508152602001600282018054614daa9061826f565b80601f0160208091040260200160405190810160405280929190818152602001828054614dd69061826f565b8015614e235780601f10614df857610100808354040283529160200191614e23565b820191906000526020600020905b815481529060010190602001808311614e0657829003601f168201915b50505050508152602001600382018054614e3c9061826f565b80601f0160208091040260200160405190810160405280929190818152602001828054614e689061826f565b8015614eb55780601f10614e8a57610100808354040283529160200191614eb5565b820191906000526020600020905b815481529060010190602001808311614e9857829003601f168201915b50505050508152602001600482018054614ece9061826f565b80601f0160208091040260200160405190810160405280929190818152602001828054614efa9061826f565b8015614f475780601f10614f1c57610100808354040283529160200191614f47565b820191906000526020600020905b815481529060010190602001808311614f2a57829003601f168201915b5050505050815250509050919050565b60405180608001604052803373ffffffffffffffffffffffffffffffffffffffff16815260200184815260200183815260200182815250600b600060056000815480929190614fa5906181f8565b91905055815260200190815260200160002060008201518160000160006101000a81548173ffffffffffffffffffffffffffffffffffffffff021916908373ffffffffffffffffffffffffffffffffffffffff1602179055506020820151816001019081615013919061844c565b506040820151816002019081615029919061844c565b50606082015181600301908161503f919061844c565b509050506001600554615052919061851e565b601060003373ffffffffffffffffffffffffffffffffffffffff1673ffffffffffffffffffffffffffffffffffffffff168152602001908152602001600020819055506001601460003373ffffffffffffffffffffffffffffffffffffffff1673ffffffffffffffffffffffffffffffffffffffff16815260200190815260200160002060006101000a81548160ff021916908315150217905550505050565b6060600060025467ffffffffffffffff81111561511257615111616ebd565b5b60405190808252806020026020018201604052801561514b57816020015b615138616dad565b8152602001906001900390816151305790505b50905060005b60025481101561544e576000600860008381526020019081526020016000209050806040518060a00160405290816000820160009054906101000a900473ffffffffffffffffffffffffffffffffffffffff1673ffffffffffffffffffffffffffffffffffffffff1673ffffffffffffffffffffffffffffffffffffffff1681526020016001820180546151e49061826f565b80601f01602080910402602001604051908101604052809291908181526020018280546152109061826f565b801561525d5780601f106152325761010080835404028352916020019161525d565b820191906000526020600020905b81548152906001019060200180831161524057829003601f168201915b505050505081526020016002820180546152769061826f565b80601f01602080910402602001604051908101604052809291908181526020018280546152a29061826f565b80156152ef5780601f106152c4576101008083540402835291602001916152ef565b820191906000526020600020905b8154815290600101906020018083116152d257829003601f168201915b505050505081526020016003820180546153089061826f565b80601f01602080910402602001604051908101604052809291908181526020018280546153349061826f565b80156153815780601f1061535657610100808354040283529160200191615381565b820191906000526020600020905b81548152906001019060200180831161536457829003601f168201915b5050505050815260200160048201805461539a9061826f565b80601f01602080910402602001604051908101604052809291908181526020018280546153c69061826f565b80156154135780601f106153e857610100808354040283529160200191615413565b820191906000526020600020905b8154815290600101906020018083116153f657829003601f168201915b50505050508152505083838151811061542f5761542e618552565b5b6020026020010181905250508080615446906181f8565b915050615151565b508091505090565b6060600115156154668484614568565b1515146154a8576040517f08c379a000000000000000000000000000000000000000000000000000000000815260040161549f906186f9565b60405180910390fd5b600080600090505b600354811015615546578473ffffffffffffffffffffffffffffffffffffffff166009600083815260200190815260200160002060000160009054906101000a900473ffffffffffffffffffffffffffffffffffffffff1673ffffffffffffffffffffffffffffffffffffffff1603615533576001826155309190618581565b91505b808061553e906181f8565b9150506154b0565b5060008167ffffffffffffffff81111561556357615562616ebd565b5b60405190808252806020026020018201604052801561559c57816020015b615589616cb3565b8152602001906001900390816155815790505b50905060005b600354811015615a06578573ffffffffffffffffffffffffffffffffffffffff166009600083815260200190815260200160002060000160009054906101000a900473ffffffffffffffffffffffffffffffffffffffff1673ffffffffffffffffffffffffffffffffffffffff16036159f35760008190506000600960008381526020019081526020016000209050806040518060e00160405290816000820160009054906101000a900473ffffffffffffffffffffffffffffffffffffffff1673ffffffffffffffffffffffffffffffffffffffff1673ffffffffffffffffffffffffffffffffffffffff1681526020016001820160009054906101000a900473ffffffffffffffffffffffffffffffffffffffff1673ffffffffffffffffffffffffffffffffffffffff1673ffffffffffffffffffffffffffffffffffffffff1681526020016002820180546156f99061826f565b80601f01602080910402602001604051908101604052809291908181526020018280546157259061826f565b80156157725780601f1061574757610100808354040283529160200191615772565b820191906000526020600020905b81548152906001019060200180831161575557829003601f168201915b5050505050815260200160038201805461578b9061826f565b80601f01602080910402602001604051908101604052809291908181526020018280546157b79061826f565b80156158045780601f106157d957610100808354040283529160200191615804565b820191906000526020600020905b8154815290600101906020018083116157e757829003601f168201915b5050505050815260200160048201805461581d9061826f565b80601f01602080910402602001604051908101604052809291908181526020018280546158499061826f565b80156158965780601f1061586b57610100808354040283529160200191615896565b820191906000526020600020905b81548152906001019060200180831161587957829003601f168201915b505050505081526020016005820180546158af9061826f565b80601f01602080910402602001604051908101604052809291908181526020018280546158db9061826f565b80156159285780601f106158fd57610100808354040283529160200191615928565b820191906000526020600020905b81548152906001019060200180831161590b57829003601f168201915b505050505081526020016006820180546159419061826f565b80601f016020809104026020016040519081016040528092919081815260200182805461596d9061826f565b80156159ba5780601f1061598f576101008083540402835291602001916159ba565b820191906000526020600020905b81548152906001019060200180831161599d57829003601f168201915b5050505050815250508483815181106159d6576159d5618552565b5b60200260200101819052506001826159ee9190618581565b915050505b80806159fe906181f8565b9150506155a2565b50809250505092915050565b615a1a616d1c565b600b6000601060008573ffffffffffffffffffffffffffffffffffffffff1673ffffffffffffffffffffffffffffffffffffffff1681526020019081526020016000205481526020019081526020016000206040518060800160405290816000820160009054906101000a900473ffffffffffffffffffffffffffffffffffffffff1673ffffffffffffffffffffffffffffffffffffffff1673ffffffffffffffffffffffffffffffffffffffff168152602001600182018054615add9061826f565b80601f0160208091040260200160405190810160405280929190818152602001828054615b099061826f565b8015615b565780601f10615b2b57610100808354040283529160200191615b56565b820191906000526020600020905b815481529060010190602001808311615b3957829003601f168201915b50505050508152602001600282018054615b6f9061826f565b80601f0160208091040260200160405190810160405280929190818152602001828054615b9b9061826f565b8015615be85780601f10615bbd57610100808354040283529160200191615be8565b820191906000526020600020905b815481529060010190602001808311615bcb57829003601f168201915b50505050508152602001600382018054615c019061826f565b80601f0160208091040260200160405190810160405280929190818152602001828054615c2d9061826f565b8015615c7a5780601f10615c4f57610100808354040283529160200191615c7a565b820191906000526020600020905b815481529060010190602001808311615c5d57829003601f168201915b5050505050815250509050919050565b6060600080600090505b600154811015615d305760005b6016600083815260200190815260200160002080549050811015615d1c5784601660008481526020019081526020016000208281548110615ce557615ce4618552565b5b906000526020600020015403615d0957600183615d029190618581565b9250615d1c565b8080615d14906181f8565b915050615ca1565b508080615d28906181f8565b915050615c94565b5060008167ffffffffffffffff811115615d4d57615d4c616ebd565b5b604051908082528060200260200182016040528015615d8657816020015b615d73616d5a565b815260200190600190039081615d6b5790505b5090506000915060005b6001548110156161a85760005b60166000838152602001908152602001600020805490508110156161945785601660008481526020019081526020016000208281548110615de157615de0618552565b5b906000526020600020015403616181576000600760008481526020019081526020016000209050806040518060e00160405290816000820160009054906101000a900473ffffffffffffffffffffffffffffffffffffffff1673ffffffffffffffffffffffffffffffffffffffff1673ffffffffffffffffffffffffffffffffffffffff168152602001600182018054615e7a9061826f565b80601f0160208091040260200160405190810160405280929190818152602001828054615ea69061826f565b8015615ef35780601f10615ec857610100808354040283529160200191615ef3565b820191906000526020600020905b815481529060010190602001808311615ed657829003601f168201915b50505050508152602001600282018054615f0c9061826f565b80601f0160208091040260200160405190810160405280929190818152602001828054615f389061826f565b8015615f855780601f10615f5a57610100808354040283529160200191615f85565b820191906000526020600020905b815481529060010190602001808311615f6857829003601f168201915b50505050508152602001600382018054615f9e9061826f565b80601f0160208091040260200160405190810160405280929190818152602001828054615fca9061826f565b80156160175780601f10615fec57610100808354040283529160200191616017565b820191906000526020600020905b815481529060010190602001808311615ffa57829003601f168201915b505050505081526020016004820180546160309061826f565b80601f016020809104026020016040519081016040528092919081815260200182805461605c9061826f565b80156160a95780601f1061607e576101008083540402835291602001916160a9565b820191906000526020600020905b81548152906001019060200180831161608c57829003601f168201915b50505050508152602001600582015481526020016006820180546160cc9061826f565b80601f01602080910402602001604051908101604052809291908181526020018280546160f89061826f565b80156161455780601f1061611a57610100808354040283529160200191616145565b820191906000526020600020905b81548152906001019060200180831161612857829003601f168201915b50505050508152505084868151811061616157616160618552565b5b60200260200101819052506001856161799190618581565b945050616194565b808061618c906181f8565b915050615d9d565b5080806161a0906181f8565b915050615d90565b508092505050919050565b6000600e60008373ffffffffffffffffffffffffffffffffffffffff1673ffffffffffffffffffffffffffffffffffffffff1681526020019081526020016000205490506000600d60003373ffffffffffffffffffffffffffffffffffffffff1673ffffffffffffffffffffffffffffffffffffffff16815260200190815260200160002054905060005b6015600083815260200190815260200160002080549050811015616364578260156000848152602001908152602001600020828154811061628257616281618552565b5b9060005260206000200154036163515760156000838152602001908152602001600020600160156000858152602001908152602001600020805490506162c8919061851e565b815481106162d9576162d8618552565b5b906000526020600020015460156000848152602001908152602001600020828154811061630957616308618552565b5b90600052602060002001819055506015600083815260200190815260200160002080548061633a576163396185b5565b5b600190038181906000526020600020016000905590555b808061635c906181f8565b91505061623e565b50505050565b600080600d60008573ffffffffffffffffffffffffffffffffffffffff1673ffffffffffffffffffffffffffffffffffffffff1681526020019081526020016000205490506000601060008573ffffffffffffffffffffffffffffffffffffffff1673ffffffffffffffffffffffffffffffffffffffff16815260200190815260200160002054905060005b6017600084815260200190815260200160002080549050811015616469578160176000858152602001908152602001600020828154811061643a57616439618552565b5b9060005260206000200154036164565760019350505050616471565b8080616461906181f8565b9150506163f6565b506000925050505b92915050565b6060600080600090505b600354811015616517573373ffffffffffffffffffffffffffffffffffffffff166009600083815260200190815260200160002060000160009054906101000a900473ffffffffffffffffffffffffffffffffffffffff1673ffffffffffffffffffffffffffffffffffffffff1603616504576001826165019190618581565b91505b808061650f906181f8565b915050616481565b5061652181616b96565b61652c600354616b96565b60008167ffffffffffffffff81111561654857616547616ebd565b5b60405190808252806020026020018201604052801561658157816020015b61656e616cb3565b8152602001906001900390816165665790505b50905060005b6003548110156169eb573373ffffffffffffffffffffffffffffffffffffffff166009600083815260200190815260200160002060000160009054906101000a900473ffffffffffffffffffffffffffffffffffffffff1673ffffffffffffffffffffffffffffffffffffffff16036169d85760008190506000600960008381526020019081526020016000209050806040518060e00160405290816000820160009054906101000a900473ffffffffffffffffffffffffffffffffffffffff1673ffffffffffffffffffffffffffffffffffffffff1673ffffffffffffffffffffffffffffffffffffffff1681526020016001820160009054906101000a900473ffffffffffffffffffffffffffffffffffffffff1673ffffffffffffffffffffffffffffffffffffffff1673ffffffffffffffffffffffffffffffffffffffff1681526020016002820180546166de9061826f565b80601f016020809104026020016040519081016040528092919081815260200182805461670a9061826f565b80156167575780601f1061672c57610100808354040283529160200191616757565b820191906000526020600020905b81548152906001019060200180831161673a57829003601f168201915b505050505081526020016003820180546167709061826f565b80601f016020809104026020016040519081016040528092919081815260200182805461679c9061826f565b80156167e95780601f106167be576101008083540402835291602001916167e9565b820191906000526020600020905b8154815290600101906020018083116167cc57829003601f168201915b505050505081526020016004820180546168029061826f565b80601f016020809104026020016040519081016040528092919081815260200182805461682e9061826f565b801561687b5780601f106168505761010080835404028352916020019161687b565b820191906000526020600020905b81548152906001019060200180831161685e57829003601f168201915b505050505081526020016005820180546168949061826f565b80601f01602080910402602001604051908101604052809291908181526020018280546168c09061826f565b801561690d5780601f106168e25761010080835404028352916020019161690d565b820191906000526020600020905b8154815290600101906020018083116168f057829003601f168201915b505050505081526020016006820180546169269061826f565b80601f01602080910402602001604051908101604052809291908181526020018280546169529061826f565b801561699f5780601f106169745761010080835404028352916020019161699f565b820191906000526020600020905b81548152906001019060200180831161698257829003601f168201915b5050505050815250508483815181106169bb576169ba618552565b5b60200260200101819052506001826169d39190618581565b915050505b80806169e3906181f8565b915050616587565b50809250505090565b6000655af3107a400082616a089190618719565b9050348114616a4c576040517f08c379a0000000000000000000000000000000000000000000000000000000008152600401616a43906187a7565b60405180910390fd5b60405180610100016040528060065481526020013373ffffffffffffffffffffffffffffffffffffffff1681526020018781526020018681526020018581526020018481526020018381526020016000815250600c600060065481526020019081526020016000206000820151816000015560208201518160010160006101000a81548173ffffffffffffffffffffffffffffffffffffffff021916908373ffffffffffffffffffffffffffffffffffffffff1602179055506040820151816002019081616b1a919061844c565b506060820151816003019081616b30919061844c565b506080820151816004019081616b46919061844c565b5060a0820151816005019081616b5c919061844c565b5060c0820151816006015560e08201518160070155905050600160066000828254616b879190618581565b92505081905550505050505050565b616c2c81604051602401616baa919061711a565b6040516020818303038152906040527ff82c50f1000000000000000000000000000000000000000000000000000000007bffffffffffffffffffffffffffffffffffffffffffffffffffffffff19166020820180517bffffffffffffffffffffffffffffffffffffffffffffffffffffffff8381831617835250505050616c2f565b50565b60008151905060006a636f6e736f6c652e6c6f679050602083016000808483855afa5050505050565b60405180610100016040528060008152602001600073ffffffffffffffffffffffffffffffffffffffff1681526020016060815260200160608152602001606081526020016060815260200160008152602001600081525090565b6040518060e00160405280600073ffffffffffffffffffffffffffffffffffffffff168152602001600073ffffffffffffffffffffffffffffffffffffffff16815260200160608152602001606081526020016060815260200160608152602001606081525090565b6040518060800160405280600073ffffffffffffffffffffffffffffffffffffffff1681526020016060815260200160608152602001606081525090565b6040518060e00160405280600073ffffffffffffffffffffffffffffffffffffffff1681526020016060815260200160608152602001606081526020016060815260200160008152602001606081525090565b6040518060a00160405280600073ffffffffffffffffffffffffffffffffffffffff168152602001606081526020016060815260200160608152602001606081525090565b6040518060800160405280600073ffffffffffffffffffffffffffffffffffffffff1681526020016060815260200160608152602001606081525090565b6000604051905090565b600080fd5b600080fd5b600073ffffffffffffffffffffffffffffffffffffffff82169050919050565b6000616e6f82616e44565b9050919050565b616e7f81616e64565b8114616e8a57600080fd5b50565b600081359050616e9c81616e76565b92915050565b600080fd5b600080fd5b6000601f19601f8301169050919050565b7f4e487b7100000000000000000000000000000000000000000000000000000000600052604160045260246000fd5b616ef582616eac565b810181811067ffffffffffffffff82111715616f1457616f13616ebd565b5b80604052505050565b6000616f27616e30565b9050616f338282616eec565b919050565b600067ffffffffffffffff821115616f5357616f52616ebd565b5b616f5c82616eac565b9050602081019050919050565b82818337600083830152505050565b6000616f8b616f8684616f38565b616f1d565b905082815260208101848484011115616fa757616fa6616ea7565b5b616fb2848285616f69565b509392505050565b600082601f830112616fcf57616fce616ea2565b5b8135616fdf848260208601616f78565b91505092915050565b60008060008060008060c0878903121561700557617004616e3a565b5b600061701389828a01616e8d565b965050602087013567ffffffffffffffff81111561703457617033616e3f565b5b61704089828a01616fba565b955050604087013567ffffffffffffffff81111561706157617060616e3f565b5b61706d89828a01616fba565b945050606087013567ffffffffffffffff81111561708e5761708d616e3f565b5b61709a89828a01616fba565b935050608087013567ffffffffffffffff8111156170bb576170ba616e3f565b5b6170c789828a01616fba565b92505060a087013567ffffffffffffffff8111156170e8576170e7616e3f565b5b6170f489828a01616fba565b9150509295509295509295565b6000819050919050565b61711481617101565b82525050565b600060208201905061712f600083018461710b565b92915050565b61713e81617101565b811461714957600080fd5b50565b60008135905061715b81617135565b92915050565b60008060008060008060c0878903121561717e5761717d616e3a565b5b600087013567ffffffffffffffff81111561719c5761719b616e3f565b5b6171a889828a01616fba565b965050602087013567ffffffffffffffff8111156171c9576171c8616e3f565b5b6171d589828a01616fba565b955050604087013567ffffffffffffffff8111156171f6576171f5616e3f565b5b61720289828a01616fba565b945050606087013567ffffffffffffffff81111561722357617222616e3f565b5b61722f89828a01616fba565b935050608061724089828a0161714c565b92505060a087013567ffffffffffffffff81111561726157617260616e3f565b5b61726d89828a01616fba565b9150509295509295509295565b6000602082840312156172905761728f616e3a565b5b600061729e84828501616e8d565b91505092915050565b600081519050919050565b600082825260208201905092915050565b6000819050602082019050919050565b6172dc81617101565b82525050565b6172eb81616e64565b82525050565b600081519050919050565b600082825260208201905092915050565b60005b8381101561732b578082015181840152602081019050617310565b60008484015250505050565b6000617342826172f1565b61734c81856172fc565b935061735c81856020860161730d565b61736581616eac565b840191505092915050565b60006101008301600083015161738960008601826172d3565b50602083015161739c60208601826172e2565b50604083015184820360408601526173b48282617337565b915050606083015184820360608601526173ce8282617337565b915050608083015184820360808601526173e88282617337565b91505060a083015184820360a08601526174028282617337565b91505060c083015161741760c08601826172d3565b5060e083015161742a60e08601826172d3565b508091505092915050565b60006174418383617370565b905092915050565b6000602082019050919050565b6000617461826172a7565b61746b81856172b2565b93508360208202850161747d856172c3565b8060005b858110156174b9578484038952815161749a8582617435565b94506174a583617449565b925060208a01995050600181019050617481565b50829750879550505050505092915050565b600060208201905081810360008301526174e58184617456565b905092915050565b60008060006060848603121561750657617505616e3a565b5b600084013567ffffffffffffffff81111561752457617523616e3f565b5b61753086828701616fba565b935050602084013567ffffffffffffffff81111561755157617550616e3f565b5b61755d86828701616fba565b925050604084013567ffffffffffffffff81111561757e5761757d616e3f565b5b61758a86828701616fba565b9150509250925092565b600081519050919050565b600082825260208201905092915050565b6000819050602082019050919050565b600060e0830160008301516175d860008601826172e2565b5060208301516175eb60208601826172e2565b50604083015184820360408601526176038282617337565b9150506060830151848203606086015261761d8282617337565b915050608083015184820360808601526176378282617337565b91505060a083015184820360a08601526176518282617337565b91505060c083015184820360c086015261766b8282617337565b9150508091505092915050565b600061768483836175c0565b905092915050565b6000602082019050919050565b60006176a482617594565b6176ae818561759f565b9350836020820285016176c0856175b0565b8060005b858110156176fc57848403895281516176dd8582617678565b94506176e88361768c565b925060208a019950506001810190506176c4565b50829750879550505050505092915050565b600060208201905081810360008301526177288184617699565b905092915050565b60006020828403121561774657617745616e3a565b5b60006177548482850161714c565b91505092915050565b60006101008301600083015161777660008601826172d3565b50602083015161778960208601826172e2565b50604083015184820360408601526177a18282617337565b915050606083015184820360608601526177bb8282617337565b915050608083015184820360808601526177d58282617337565b91505060a083015184820360a08601526177ef8282617337565b91505060c083015161780460c08601826172d3565b5060e083015161781760e08601826172d3565b508091505092915050565b6000602082019050818103600083015261783c818461775d565b905092915050565b600081519050919050565b600082825260208201905092915050565b6000819050602082019050919050565b600060808301600083015161788860008601826172e2565b50602083015184820360208601526178a08282617337565b915050604083015184820360408601526178ba8282617337565b915050606083015184820360608601526178d48282617337565b9150508091505092915050565b60006178ed8383617870565b905092915050565b6000602082019050919050565b600061790d82617844565b617917818561784f565b93508360208202850161792985617860565b8060005b85811015617965578484038952815161794685826178e1565b9450617951836178f5565b925060208a0199505060018101905061792d565b50829750879550505050505092915050565b600060208201905081810360008301526179918184617902565b905092915050565b600081519050919050565b600082825260208201905092915050565b6000819050602082019050919050565b600060e0830160008301516179dd60008601826172e2565b50602083015184820360208601526179f58282617337565b91505060408301518482036040860152617a0f8282617337565b91505060608301518482036060860152617a298282617337565b91505060808301518482036080860152617a438282617337565b91505060a0830151617a5860a08601826172d3565b5060c083015184820360c0860152617a708282617337565b9150508091505092915050565b6000617a8983836179c5565b905092915050565b6000602082019050919050565b6000617aa982617999565b617ab381856179a4565b935083602082028501617ac5856179b5565b8060005b85811015617b015784840389528151617ae28582617a7d565b9450617aed83617a91565b925060208a01995050600181019050617ac9565b50829750879550505050505092915050565b60006020820190508181036000830152617b2d8184617a9e565b905092915050565b60008060408385031215617b4c57617b4b616e3a565b5b6000617b5a85828601616e8d565b9250506020617b6b85828601616e8d565b9150509250929050565b60008115159050919050565b617b8a81617b75565b82525050565b6000602082019050617ba56000830184617b81565b92915050565b60008060008060808587031215617bc557617bc4616e3a565b5b600085013567ffffffffffffffff811115617be357617be2616e3f565b5b617bef87828801616fba565b945050602085013567ffffffffffffffff811115617c1057617c0f616e3f565b5b617c1c87828801616fba565b935050604085013567ffffffffffffffff811115617c3d57617c3c616e3f565b5b617c4987828801616fba565b925050606085013567ffffffffffffffff811115617c6a57617c69616e3f565b5b617c7687828801616fba565b91505092959194509250565b600081519050919050565b600082825260208201905092915050565b6000819050602082019050919050565b600060a083016000830151617cc660008601826172e2565b5060208301518482036020860152617cde8282617337565b91505060408301518482036040860152617cf88282617337565b91505060608301518482036060860152617d128282617337565b91505060808301518482036080860152617d2c8282617337565b9150508091505092915050565b6000617d458383617cae565b905092915050565b6000602082019050919050565b6000617d6582617c82565b617d6f8185617c8d565b935083602082028501617d8185617c9e565b8060005b85811015617dbd5784840389528151617d9e8582617d39565b9450617da983617d4d565b925060208a01995050600181019050617d85565b50829750879550505050505092915050565b60006020820190508181036000830152617de98184617d5a565b905092915050565b60008060408385031215617e0857617e07616e3a565b5b6000617e1685828601616e8d565b9250506020617e278582860161714c565b9150509250929050565b6000608083016000830151617e4960008601826172e2565b5060208301518482036020860152617e618282617337565b91505060408301518482036040860152617e7b8282617337565b91505060608301518482036060860152617e958282617337565b9150508091505092915050565b60006020820190508181036000830152617ebc8184617e31565b905092915050565b600060e083016000830151617edc60008601826172e2565b5060208301518482036020860152617ef48282617337565b91505060408301518482036040860152617f0e8282617337565b91505060608301518482036060860152617f288282617337565b91505060808301518482036080860152617f428282617337565b91505060a0830151617f5760a08601826172d3565b5060c083015184820360c0860152617f6f8282617337565b9150508091505092915050565b60006020820190508181036000830152617f968184617ec4565b905092915050565b600060a083016000830151617fb660008601826172e2565b5060208301518482036020860152617fce8282617337565b91505060408301518482036040860152617fe88282617337565b915050606083015184820360608601526180028282617337565b9150506080830151848203608086015261801c8282617337565b9150508091505092915050565b600060208201905081810360008301526180438184617f9e565b905092915050565b600060808301600083015161806360008601826172e2565b506020830151848203602086015261807b8282617337565b915050604083015184820360408601526180958282617337565b915050606083015184820360608601526180af8282617337565b9150508091505092915050565b600060208201905081810360008301526180d6818461804b565b905092915050565b600080600080600060a086880312156180fa576180f9616e3a565b5b600086013567ffffffffffffffff81111561811857618117616e3f565b5b61812488828901616fba565b955050602086013567ffffffffffffffff81111561814557618144616e3f565b5b61815188828901616fba565b945050604086013567ffffffffffffffff81111561817257618171616e3f565b5b61817e88828901616fba565b935050606086013567ffffffffffffffff81111561819f5761819e616e3f565b5b6181ab88828901616fba565b92505060806181bc8882890161714c565b9150509295509295909350565b7f4e487b7100000000000000000000000000000000000000000000000000000000600052601160045260246000fd5b600061820382617101565b91507fffffffffffffffffffffffffffffffffffffffffffffffffffffffffffffffff8203618235576182346181c9565b5b600182019050919050565b7f4e487b7100000000000000000000000000000000000000000000000000000000600052602260045260246000fd5b6000600282049050600182168061828757607f821691505b60208210810361829a57618299618240565b5b50919050565b60008190508160005260206000209050919050565b60006020601f8301049050919050565b600082821b905092915050565b6000600883026183027fffffffffffffffffffffffffffffffffffffffffffffffffffffffffffffffff826182c5565b61830c86836182c5565b95508019841693508086168417925050509392505050565b6000819050919050565b600061834961834461833f84617101565b618324565b617101565b9050919050565b6000819050919050565b6183638361832e565b61837761836f82618350565b8484546182d2565b825550505050565b600090565b61838c61837f565b61839781848461835a565b505050565b5b818110156183bb576183b0600082618384565b60018101905061839d565b5050565b601f821115618400576183d1816182a0565b6183da846182b5565b810160208510156183e9578190505b6183fd6183f5856182b5565b83018261839c565b50505b505050565b600082821c905092915050565b600061842360001984600802618405565b1980831691505092915050565b600061843c8383618412565b9150826002028217905092915050565b618455826172f1565b67ffffffffffffffff81111561846e5761846d616ebd565b5b618478825461826f565b6184838282856183bf565b600060209050601f8311600181146184b657600084156184a4578287015190505b6184ae8582618430565b865550618516565b601f1984166184c4866182a0565b60005b828110156184ec578489015182556001820191506020850194506020810190506184c7565b868310156185095784890151618505601f891682618412565b8355505b6001600288020188555050505b505050505050565b600061852982617101565b915061853483617101565b925082820390508181111561854c5761854b6181c9565b5b92915050565b7f4e487b7100000000000000000000000000000000000000000000000000000000600052603260045260246000fd5b600061858c82617101565b915061859783617101565b92508282019050808211156185af576185ae6181c9565b5b92915050565b7f4e487b7100000000000000000000000000000000000000000000000000000000600052603160045260246000fd5b600082825260208201905092915050565b7f446f6573206e6f742068617665207468652061636365737320746f206665746360008201527f682074686520646f63756d656e74730000000000000000000000000000000000602082015250565b6000618651602f836185e4565b915061865c826185f5565b604082019050919050565b6000602082019050818103600083015261868081618644565b9050919050565b7f446f6573206e6f7420686173207468652061636365737320746f20666574636860008201527f2074686520646f63756d656e7473000000000000000000000000000000000000602082015250565b60006186e3602e836185e4565b91506186ee82618687565b604082019050919050565b60006020820190508181036000830152618712816186d6565b9050919050565b600061872482617101565b915061872f83617101565b925082820261873d81617101565b91508282048414831517618754576187536181c9565b5b5092915050565b7f506c656173652070726f76696465207265717569726564206574686572730000600082015250565b6000618791601e836185e4565b915061879c8261875b565b602082019050919050565b600060208201905081810360008301526187c081618784565b905091905056fea26469706673582212207ddd7969b43bbeb3b79cc1d8cccf053c9a9523ce995376b34c3586b1e8e868c464736f6c63430008110033",
  "linkReferences": {},
  "deployedLinkReferences": {}
}